:020000040800F2
:10000000600700204D02000833150008F9120008AF
:10001000311500086D050008CD170008000000002C
:10002000000000000000000000000000371500087C
:100030006F0500080000000035150008391500089C
:1000400067020008670200086702000867020008EC
:1000500067020008670200086702000867020008DC
:1000600067020008670200086702000867020008CC
:1000700067020008670200086702000867020008BC
:1000800067020008670200086702000867020008AC
:10009000670200086702000867020008670200089C
:1000A000670200086702000867020008670200088C
:1000B000670200086702000867020008670200087C
:1000C000670200086702000867020008670200086C
:1000D000670200086702000867020008670200085C
:1000E000710500086702000867020008670200083F
:1000F000670200086702000867020008670200083C
:10010000670200086702000867020008670200082B
:10011000670200086702000867020008670200081B
:10012000670200086702000867020008670200080B
:1001300067020008670200086702000867020008FB
:1001400067020008670200086702000867020008EB
:1001500067020008670200086702000867020008DB
:1001600067020008670200086702000867020008CB
:10017000670200086702000867020008000000002C
:1001800067020008670200086702000867020008AB
:10019000670200086702000867020008670200089B
:1001A00067020008670200086702000800F002F812
:1001B00000F03CF80AA090E8000C82448344AAF1C5
:1001C0000107DA4501D100F031F8AFF2090EBAE8C3
:1001D0000F0013F0010F18BFFB1A43F0010318477B
:1001E0002C1700004C170000103A24BF78C878C1C3
:1001F000FAD8520724BF30C830C144BF04680C602D
:10020000704700000023002400250026103A28BF74
:1002100078C1FBD8520728BF30C148BF0B60704778
:100220001FB501F061FB1FBD10B510BD00F0CFF888
:100230001146FFF7F5FF01F0DBFA00F0EDF803B42B
:10024000FFF7F2FF03BC00F0F5F800000948804713
:1002500009480047FEE7FEE7FEE7FEE7FEE7FEE7A8
:10026000FEE7FEE7FEE7FEE704480549054A064BC0
:1002700070470000D9150008AD010008600100209A
:1002800060070020600300206003002053EA020C96
:1002900000F069802DE9F04B4FF00006002B1FBFE6
:1002A000B3FA83F503FA05F424FA05F65E4012BFAB
:1002B0001643B2FA82F502FA05F4C5F120051EBF15
:1002C00022FA05FC44EA0C04203556EA044C4FEAB5
:1002D000144418BF641C4FF000084FF0000990420E
:1002E00071EB030C39D3002919BFB1FA81F701FA78
:1002F00007F6B0FA80F700FA07F6C7F120071EBF2D
:1003000020FA07FC46EA0C062037B6FBF4FCA7EB04
:100310000507103F07F01F0BCBF120060CFA0BFB73
:100320002CFA06F644BFB3460026202FA4BF5E4633
:100330004FF0000B5BEA060C08BF4FF0010B19EB06
:100340000B09ABFB027C48EB0608C01B06FB02CC8A
:100350000BFB03CC71EB0C01C1E70B460246414697
:100360004846BDE8F08B13B54FF000004FF0000198
:10037000AFF30080BDE81C4070474FF0000200B5AD
:10038000134694469646203922BFA0E80C50A0E8B8
:100390000C50B1F12001BFF4F7AF090728BFA0E866
:1003A0000C5048BF0CC05DF804EB890028BF40F832
:1003B000042B08BF704748BF20F8022B11F0804F74
:1003C00018BF00F8012B704770477047704775469B
:1003D00000F02CF8AE4605006946534620F00700B1
:1003E000854618B020B5FFF73FFFBDE820404FF02D
:1003F00000064FF000074FF000084FF0000B21F00F
:100400000701AC46ACE8C009ACE8C009ACE8C009DB
:10041000ACE8C0098D46704710B50446AFF30080C4
:100420002046BDE81040FFF70ABF000000487047B3
:100430000001002001491820ABBEFEE726000200A3
:1004400070470000464910B54A6822F440324A60BD
:100450004A6843681A434A6001684A6822F4807215
:100460004A6001684A68036942EA03224A600168F7
:100470004A6822F040724A6001684A6883681A43F9
:100480004A6001688A6822F400628A6001688A68AA
:10049000C3681A438A60816A6FF07062D142016852
:1004A0008A6822F070628A6001688A680CD0836A68
:1004B0001A438A6001688A6822F040528A600168A3
:1004C0008A68C36A1A4301E022F040528A600168D8
:1004D0008A6822F002028A6001688A68037E42EA22
:1004E00043028A6090F82010002901684A680FD002
:1004F00042F400624A6001684A6822F460424A603D
:1005000001684A68174C436A04EB43331A4301E01D
:1005100022F400624A600168CA6A22F47002CA6268
:100520000168CA6A838B104C04EB03531A43CA62F6
:1005300001688A6822F400728A6001688A6890F80B
:10054000303042EA43228A6001688A6822F480627D
:100550008A6001688A68406942EA8020886010BD2C
:100560000023014000E0FFFF0000F0FFFEE77047BE
:100570004FF4806000F05AB978B50024009490F8E8
:100580003C20012A19D0012280F83C200A68072368
:100590000568092A13D9EE680A3A02EB4202934031
:1005A0009E43EE600B788A680A3B03EB43039A4054
:1005B0000368DD682A43DA6010E0022078BD2E6906
:1005C00002EB420293409E432E610B788A6803EB54
:1005D00043039A4003681D692A431A614A681F232E
:1005E000072A13D205686E6B521E02EB82029340FB
:1005F0009E436E630A8893B20A79521E02EB82020E
:1006000093400268556B2B43536327E005680D2A1E
:1006100012D22E6BD21F02EB820293409E432E63B6
:100620000B790A88DB1F92B203EB83039A400368BD
:100630001D6B2A431A6311E0EE6A0D3A02EB820247
:1006400093409E43EE620B790A880D3B92B203EB16
:1006500083039A400368DD6A2A43DA621B4B05680C
:10066000194A9D420AD10D68122D07D1556825F40B
:1006700000055560556845F48005556005689D4244
:100680001DD1134D0B68AB4201D0112B17D153680C
:1006900023F480035360536843F4000353600968F4
:1006A000A9420CD10B490C4A0968B1FBF2F101EBEC
:1006B0008101490000E0491E00910029FBD180F82A
:1006C0003C40002078BD0000002301400020014094
:1006D000120000102400002040420F0070B50400FA
:1006E0004FF0000503D0206C002610B107E0012078
:1006F00070BD204600F01CF8666484F83C60206CF5
:10070000C00610D4206C20F4885040F00200206411
:100710002046FFF797FE6664206C20F0020040F050
:100720000100206400E0012584F83C60284670BD8B
:1007300010B586B0044614216846FFF71EFE114925
:10074000206888421CD110480021026842F480725F
:100750000260006800F4807005900B48143802684D
:1007600042F004020260006800F0040005902020BE
:1007700000900320CDE901016946044800F062F8C9
:1007800006B010BD0020014044380240000802407D
:1007900070B5044600F07AF90546601C02D00448A2
:1007A0000078044400F072F9401BA042FAD370BDF7
:1007B0001800002070B54FF48061184800F05CF913
:1007C000174C01250128A08022D000281FD1A07835
:1007D00001281CD100F05AF9E060A168DFED110A90
:1007E000401A00EE100A0020B8EE400A20EE200A5F
:1007F000DFED0D0A20EE200AF6EE000A20EE200AB8
:10080000BCEEC00A84ED040A65702070A07070BD53
:1008100000F03CF9A060A57070BD0000000402402B
:100820000000002000007A440000AA43044910B5EB
:100830000A68024202D00860FFF7BCFF10BD00004A
:10084000143C01402DE9F84FDFF8F8A10022012403
:1008500003254FF00F090AF1040BAAF1040E00BFA3
:100860000B6804FA02F63340B34270D10F7907F0F7
:100870000307012F01D0022F16D187684FEA4208E3
:1008800005FA08FC27EA0C07D1F80CC00CFA08FCA2
:100890004CEA070CC0F808C04768B7430E79C6F3A6
:1008A000001696403E4346600E79F643B6070AD0DE
:1008B000C7684FEA420C05FA0CF6B7438E6806FA91
:1008C0000CF63E43C6600E7906F00306022E10D1E8
:1008D000D60800EB8608D8F8206057074FEAD76C97
:1008E00009FA0CF7BE430F6907FA0CF73743C8F84B
:1008F000207006684FEA420C05FA0CF7BE430F79E8
:1009000007F0030707FA0CF7374307604E6816F441
:10091000403F1CD04C4E376847F4804737603668FC
:1009200022F0030706F480460096484E07EB060CBB
:10093000DCF8086897073F0F09FA07F826EA080667
:10094000DFF80C81404503D14FF0000841E072E030
:10095000DFF80081404502D14FF0010839E0DFF8AF
:10096000F880404502D14FF0020832E0DFF8EC8019
:10097000404502D14FF003082BE0DFF8E48040450A
:1009800002D14FF0040824E0DFF8D880404502D1BE
:100990004FF005081DE0DFF8D080404502D14FF050
:1009A000060816E0DFF8C480404502D14FF0070882
:1009B0000FE0DFF8BC80404502D14FF0080808E0A6
:1009C000DFF8B080404502D14FF0090801E04FF058
:1009D0000A0808FA07F848EA0608CCF80888DAF89E
:1009E00000605746D1F804C09E435FEACC2C00D586
:1009F0001E433E60DBF800605F46D1F804C09E43B2
:100A00005FEA8C2C00D51E433E60DEF8006077461E
:100A1000D1F804C09E435FEA8C3C00D51E433E6083
:100A2000084F083F3E68D1F804C09E435FEACC3CC3
:100A300000D51E433E60521C102AFFF411AFBDE8E2
:100A4000F88F0000083C014044380240003001406B
:100A5000000002400004024000080240000C024076
:100A6000001002400014024000180240001C024026
:100A700000200240002402400069084000D001200C
:100A800070470AB1816170470904FBE7014880683B
:100A90007047000018000020024881680278114465
:100AA00081607047180000200B4810B5016841F4C0
:100AB00000710160016841F480610160016841F4E6
:100AC00080710160032000F06FF80F2000F006F83D
:100AD00000F024F8002010BD003C024070B50D4D20
:100AE00004464FF47A712878B1FBF0F00A4909689E
:100AF000B1FBF0F000F044FB48B9102C07D2002203
:100B00002146501E00F030F800206C6070BD0120BE
:100B100070BD000018000020240000200A4808B51D
:100B2000016841F480410160006800F48040009059
:100B30000548001F016841F080510160006800F025
:100B40008050009008BD000044380240002809DBB6
:100B500000F01F02012191404009800000F1E020D7
:100B6000C0F8001170470000F0B40E4B1B680C4633
:100B7000C3F30223C3F10705042D00D90425191D71
:100B8000072901D2002300E0DB1E012606FA05F149
:100B9000491E214099409E40761E16403143F0BCCC
:100BA00000F015BE0CED00E0064900F007020868F1
:100BB0004FF6FF03184040EA0220034A1043086042
:100BC000704700000CED00E00000FA052DE9F84345
:100BD0001748016841F0805101600068154F00F02E
:100BE0008050012600903E64FFF750FF05464FF409
:100BF0007A78114C05E000BFFFF748FF401B4045E5
:100C00000DD86068C003F7D57E64FFF73FFF054647
:100C1000464607E0FFF73AFF401BB04202D90320E7
:100C2000BDE8F88360688003F4D50020F8E7000091
:100C30004038024000000E42007000402DE9F047AD
:100C40000E46050065D0DFF81481D8F80000F7B231
:100C500000F00F00B04207D288F80070D8F800000A
:100C600000F00F00B04254D128683D4C810712D5E6
:100C7000400703D5206840F4E05020602878000742
:100C800003D5206840F4604020602068A96820F007
:100C9000F000084320602878C0072DD030496868EC
:100CA0000839012812D0022813D0032811D009686E
:100CB000890700292DDA216821F003010143216011
:100CC000FFF7E4FE814641F2883A0EE009688903A5
:100CD000EFE709688901ECE7FFF7D8FEA0EB09010F
:100CE000514502D90320BDE8F0872068696800F00B
:100CF0000C00B0EB810FEFD1D8F80010404601F0A6
:100D00000F01B14207D90770006800F00F00B04230
:100D100001D00120E7E72878400705D52068E96879
:100D200020F4E050084320602878000706D52068AA
:100D3000296920F4604040EAC100206000F038F8E2
:100D40002168084AC1F30311515CC8400649086094
:100D500006480068FFF7C2FE0020C4E7003C0240DE
:100D600008380240F2180008240000201C0000206F
:100D70000448054900680968044AC1F38221515CAE
:100D8000C8407047240000200838024002190008BB
:100D90000448054900680968044AC1F34231515CBE
:100DA000C84070472400002008380240021900089B
:100DB000154810B5006810F00C02144813D01449FF
:100DC000042A0FD0082A0ED10F4C241F2268236852
:100DD00002F03F025B0207D52068C0F38810A0FB39
:100DE000010106E0084610BD2168C1F38811A1FB8E
:100DF00000010023FFF74AFA2168C1F30141491CB1
:100E00004900B0FBF1F010BD083802400024F400A6
:100E100040787D012DE9F84F04006ED02078DFF88E
:100E20004C93C007A9F104054AD009F104000168F8
:100E3000C1F38101012908D00068C0F381000228B4
:100E40000AD1D9F80000400206D52868800337D5BA
:100E500060680028E1D033E06068B0F5803F10D0D2
:100E6000B0F5A02F286810D020F4803028602868C2
:100E700020F4802028606068A8B1FFF707FE0646CE
:100E80000DE0286840F48030F4E740F480202860CA
:100E9000F7E700BFFFF7FAFD801B642873D82868C6
:100EA0008003F7D50CE0FFF7F1FD064605E000BF33
:100EB000FFF7ECFD801B6428F0D828688003F7D486
:100EC0002078DFF8AC8280074FF0000A3ED5A748B3
:100ED000001D016811F00C0F08D00068C0F38100FC
:100EE00002280BD1D9F80000400207D428688007F7
:100EF00016D5E068012800D112E033E1E068B8B10E
:100F00000120C8F80000FFF7C1FD064605E000BF5C
:100F1000FFF7BCFD801B0228C0D828688007F7D5E2
:100F20002868216920F0F80040EAC10028600DE03F
:100F3000C8F800A0FFF7AAFD064604E0FFF7A6FDEB
:100F4000801B02281FD828688007F7D42078000764
:100F500022D5864F87486169703771B101210160E0
:100F6000FFF794FD064604E0FFF790FD801B022882
:100F700009D838688007F7D50EE0C0F800A0FFF761
:100F800085FD064605E082E0FFF780FD801B022814
:100F90007DD838688007F7D42078400768D5DFF817
:100FA000CCB100270BF13C0BDBF80000C0000BD4E8
:100FB000DBF8001041F08051CBF80010DBF80000A6
:100FC000012700F0805000906B4E3068C00510D4AF
:100FD000306840F480703060FFF758FD009005E005
:100FE000FFF754FD0099401A022850D83068C00518
:100FF000F6D55E4EA0686C3601280FD00528306803
:1010000010D020F001003060306820F00400306023
:10101000A068B8B1FFF73AFD00900FE0306840F0EB
:101020000100F4E740F004003060F7E7FFF72EFD21
:101030000099411A41F28830814266D830688007B1
:10104000F4D50EE0FFF722FD009007E0FFF71EFD4C
:101050000099411A41F28830814256D830688007A1
:10106000F4D42FB1DBF8001021F08051CBF8001040
:10107000A069C8B33D49091D0968C1F3810102296E
:101080004AD00228504607D0C8F8600000E03CE093
:10109000FFF7FCFC04463BE04746C8F86000FFF75A
:1010A000F5FC064605E000BFFFF7F0FC801B0228B8
:1010B0002BD828688001F7D4D4E907010843A16A36
:1010C0002E4A490802EB0141626A41EA8211084353
:1010D00094F82C1040EA0161C9F80010012038662C
:1010E000FFF7D4FC044606E03EE000BFFFF7CEFC6D
:1010F000001B022809D828688001F7D534E000BF1A
:10110000FFF7C4FC001B022802D90320BDE8F88FBA
:1011100028688001F4D427E00128F7D0D9F800002E
:10112000E26900F4800191421CD1226A00F03F0183
:10113000914217D147F6C071626A0140B1EB821F3C
:1011400010D1A26A4FF0FF3300F4403103EB52029A
:10115000B1EB024F06D194F82C1000F07060B0EBA8
:10116000016F01D00120D1E70020CFE70438024011
:1011700000004742800E4742007000400000FFFF21
:1011800010B5401EB0F1807F01D3012010BD4FF09B
:10119000E02460610F21601700F019FB0020A061BE
:1011A00007202061002010BD10B5040003D094F882
:1011B0003D0010B107E0012010BD002084F83C0084
:1011C000204600F01FF8022084F83D00211D206811
:1011D00000F00AFA012084F8460084F83E0084F802
:1011E0003F0084F8400084F8410084F8420084F80D
:1011F000430084F8440084F8450084F83D00002052
:1012000010BD000008B500680649884208D10648AC
:10121000016841F080010160006800F080000090EA
:1012200008BD0000001C00404038024070B50400BA
:1012300004D094F84100002510B106E0012070BDF3
:1012400084F84050204600F023F8242084F8410020
:101250002068C16821F40051C160204600F030FAD6
:101260002068016921F4904101612068416921F001
:101270002A0141612068C16841F40051C160656480
:10128000202084F8410084F842006563002070BD8E
:1012900010B586B0044614216846FFF76EF813496E
:1012A0002068884220D112480021026842F0804222
:1012B0000260006800F0804005900D481038026818
:1012C00042F020020260006800F020000590C0207B
:1012D00000900220CDE90101032003900820049032
:1012E00069460448FFF7AEFA06B010BD007800402A
:1012F0004038024000140240FEE700007FB50024A1
:1013000015480094019402941249039401604FF42B
:101310008031C0E901140461047680F820400F494F
:10132000C0E90A140125C561C46080F830404561F8
:10133000FFF7D4F908B172B6FEE70F20CDE900053A
:10134000694602940448FFF717F9002801D072B6E5
:10135000FEE77FBD00200140280000200100000FB3
:101360002DE9F04F87B014216846FFF706F8694869
:101370000024016841F010010160016801F01001D2
:101380000591016841F020010160016801F0200130
:101390000591016841F080010160016801F0800160
:1013A0000591016841F001010160016801F001014E
:1013B0000591016841F004010160016801F0040138
:1013C0000591016841F002010160016801F002012C
:1013D0000591016841F0400101600068DFF8389133
:1013E00000F040000590002204214846FFF749FB29
:1013F000DFF828A14FF4E066002231465046FFF79F
:1014000040FB41F28F07002239464548FFF739FB80
:10141000002210214348FFF734FB41F21A08002252
:1014200041464148FFF72DFBDFF800B10022802143
:101430005846FFF726FB042000900125CDE9015412
:10144000694648460394FFF7FDF9202000904FF4C9
:101450004410CDE9010469464846FFF7F3F90096C8
:10146000CDE90154694650460394FFF7EBF9009724
:10147000CDE9015469462A480394FFF7E3F91020A7
:101480000090CDE90154694626480394FFF7DAF944
:10149000CDF80080CDE90154694623480394FFF755
:1014A000D1F9A80200904FF48810CDE901046946F3
:1014B0001D48FFF7C7F94AF22000CDE9000469464C
:1014C00019480294FFF7BEF980200090CDE901543D
:1014D000694658460394FFF7B5F9E803CDE90004DF
:1014E00069460F480294FFF7ADF94FF4A050CDE9DB
:1014F000000469460B480294FFF7A4F90022114644
:101500002820FFF731FB2820FFF720FB07B0BDE8BC
:10151000F08F0000303802400010024000140240FA
:10152000000002400008024000040240001802408F
:10153000FEE7FEE770477047FFF7AEBA70B592B0AE
:1015400030216846FEF719FF14210CA8FEF715FF9D
:101550001F480025016841F080510160006800F0DB
:10156000805011901B48016841F4404101600068BF
:10157000022400F4404011900120009000040190EA
:101580008001CDE906400F260896D820CDE9090450
:1015900004200B906846FFF73DFC08B172B6FEE7E9
:1015A000FFF714FB08B172B6FEE74FF4A050CDE987
:1015B0000E504FF48050CDE90C64109005210CA81A
:1015C000FFF73CFB002801D072B6FEE712B070BDF9
:1015D00040380240007000400248016841F4700148
:1015E0000160704788ED00E0F0B50268294C2A4D93
:1015F0002A4E2B4F2B4B4FF0804CA04209D0604518
:1016000007D0A84205D0B04203D0B84201D09842DA
:1016100004D122F0700E4A6842EA0E02A0421BD0AA
:10162000604519D0A84217D0B04215D0B84213D0A7
:10163000984211D01C4DA8420ED01C4DA8420BD090
:101640001B4DA84208D01B4DA84205D01A4DA842F8
:1016500002D01A4DA84203D122F44075CA682A4329
:101660004D6922F080022A4302608A68C2620A68D9
:101670008262A04201D0984201D10969016301212F
:1016800041610169C90703D0016921F001010161CC
:10169000F0BD0000000001400004004000080040D0
:1016A000000C0040000401400040014000440140A3
:1016B0000048014000180040001C0040002000408D
:1016C00070B5044600680169E26821F44051114395
:1016D00001612169A068E269084361691143084317
:1016E0002168CA6849F20C639A430243CA602068C1
:1016F0004169A26921F44071114341613149206877
:10170000884202D03049884202D1FFF741FB01E014
:10171000FFF72EFBE2690023192164253226B2F57A
:10172000004F626828D0A0FB0101930F9200FEF7E2
:10173000ADFD0146B0FBF5F06FF01802504301EB30
:10174000800006EB0010B0FBF5F000F0F002B1FBFA
:10175000F5F002EB0012B1FBF5F06FF018035843FF
:1017600001EB800006EB0010B0FBF5F000F00F007D
:1017700021681044886070BDA0FB010192185B4194
:10178000FEF784FD0146B0FBF5F00201B1FBF5F078
:101790006FF01803584301EB800006EBC000B0FB6C
:1017A000F5F000F0F80002EB4002B1FBF5F0584311
:1017B00001EB800006EBC000B0FBF5F000F0070085
:1017C000D6E700000010014000140140FEE70907C1
:1017D000090E002804DB00F1E02080F800147047B7
:1017E00000F00F0000F1E02080F8141D70470000A9
:1017F000FFF75AF9FFF7A2FEFFF7B2FDFFF77EFDF4
:1018000032483149002401604FF4E131C0E901144C
:101810000C21C460C0E904418461C461FFF706FD86
:1018200008B172B6FEE7294829494838C0E90014D2
:1018300041F29311C0E9024104618461FFF7B4FCF5
:1018400008B172B6FEE70122DFF888801503294649
:101850004046FFF716F9012280211F48FFF711F9D2
:10186000012211021D48FFF70CF91D4C1D4E4FF4CB
:101870007A7901274FF4806A207828B1FFF706F9BA
:101880006169401A48450DD9002229463046FFF7C4
:10189000F8F8012229463046FFF7F3F8FFF7F6F88B
:1018A0006061277051463046FFF7E6F8A0800128B6
:1018B00008D0012229464046FFF7E3F80120FEF751
:1018C00067FFD9E70022F5E700780040B800002064
:1018D000001C0040000002400018024000140240BA
:1018E00000000020000402404FF04070E1EE100ABA
:1018F000704700000000000000000102030406071A
:101900000809000000000102030400002C1900086F
:101910000000002028000000E80100085419000819
:101920002800002038070000040200080000000022
:1019300000000000000000000000000000000000A7
:101940000000000001000000100000000000000086
:041950000024F4007B
:04000005080001AD41
:00000001FF
