:020000040800F2
:10000000804C00200D030008E3230008571F000860
:10001000E123000891060008092C000800000000F8
:100020000000000000000000000000004D02000879
:100030001D07000800000000A90200088125000833
:1000400027030008270300082703000827030008E8
:1000500027030008270300082703000827030008D8
:1000600027030008270300082703000827030008C8
:1000700027030008270300082703000827030008B8
:1000800027030008270300082703000827030008A8
:100090002703000827030008270300081F0700089C
:1000A0002703000827030008270300082703000888
:1000B0002703000827030008270300082703000878
:1000C0002703000827030008270300082703000868
:1000D0002703000827030008270300082703000858
:1000E0002703000827030008270300082703000848
:1000F0002703000827030008270300082703000838
:100100002703000827030008270300082703000827
:100110002703000827030008270300082703000817
:100120002703000827030008270300082703000807
:1001300027030008270300082703000827030008F7
:1001400027030008270300082703000827030008E7
:1001500027030008270300082703000827030008D7
:1001600027030008270300082703000827030008C7
:1001700027030008270300082703000800000000E9
:10018000270300082703000829290008270300087F
:100190002703000827030008270300082703000897
:1001A00027030008270300082703000800F002F8CF
:1001B00000F03CF80AA090E8000C82448344AAF1C5
:1001C0000107DA4501D100F031F8AFF2090EBAE8C3
:1001D0000F0013F0010F18BFFB1A43F0010318477B
:1001E0006C3D00008C3D0000103A24BF78C878C1F7
:1001F000FAD8520724BF30C830C144BF04680C602D
:10020000704700000023002400250026103A28BF74
:1002100078C1FBD8520728BF30C148BF0B60704778
:100220001FB503F02BFE1FBD10B510BD00F061F926
:100230001146FFF7F5FF02F07DFF00F07FF903B4F0
:10024000FFF7F2FF03BC00F089F900002C4B19689E
:100250000868B0E8F04F80F30988BFF36F8F4FF064
:10026000000080F311887047000000000848006813
:10027000006880F308884FF0000080F3148862B6AD
:1002800061B6BFF34F8FBFF36F8F00DF00BF00BFBA
:1002900008ED00E0DFF80C00016841F47001016036
:1002A000704700BF88ED00E0EFF30980BFF36F8F68
:1002B000134B1A681EF0100F08BF20ED108A20E9BA
:1002C000F04F106009B44FF0500080F31188BFF375
:1002D0004F8FBFF36F8F03F0E5FB4FF0000080F30B
:1002E000118809BC19680868B0E8F04F1EF0100FBB
:1002F00008BFB0EC108A80F30988BFF36F8F704796
:10030000A4000020EFF305807047000009488047F3
:1003100009480047FEE7FEE7FEE7FEE7FEE7FEE7E7
:10032000FEE7FEE7FEE7FEE704480549054A064BFF
:100330007047000035260008AD0100088046002007
:10034000804C0020804800208048002053EA020CA6
:1003500000F069802DE9F04B4FF00006002B1FBF25
:10036000B3FA83F503FA05F424FA05F65E4012BFEA
:100370001643B2FA82F502FA05F4C5F120051EBF54
:1003800022FA05FC44EA0C04203556EA044C4FEAF4
:10039000144418BF641C4FF000084FF0000990424D
:1003A00071EB030C39D3002919BFB1FA81F701FAB7
:1003B00007F6B0FA80F700FA07F6C7F120071EBF6C
:1003C00020FA07FC46EA0C062037B6FBF4FCA7EB44
:1003D0000507103F07F01F0BCBF120060CFA0BFBB3
:1003E0002CFA06F644BFB3460026202FA4BF5E4673
:1003F0004FF0000B5BEA060C08BF4FF0010B19EB46
:100400000B09ABFB027C48EB0608C01B06FB02CCC9
:100410000BFB03CC71EB0C01C1E70B4602464146D6
:100420004846BDE8F08B13B54FF000004FF00001D7
:10043000AFF30080BDE81C40704710B5203AC0F013
:100440000B80B1E81850203AA0E81850B1E81850D5
:10045000A0E81850BFF4F5AF5FEA027C24BFB1E812
:100460001850A0E8185044BF18C918C0BDE8104083
:100470005FEA827C24BF51F8043B40F8043B08BF8C
:100480007047D20728BF31F8023B48BF11F8012B53
:1004900028BF20F8023B48BF00F8012B70474FF0FF
:1004A000000200B5134694469646203922BFA0E8C4
:1004B0000C50A0E80C50B1F12001BFF4F7AF0907D0
:1004C00028BFA0E80C5048BF0CC05DF804EB8900C1
:1004D00028BF40F8042B08BF704748BF20F8022B04
:1004E00011F0804F18BF00F8012B7047704770471C
:1004F0007047754600F02CF8AE4605006946534635
:1005000020F00700854618B020B5FFF70DFFBDE8C5
:1005100020404FF000064FF000074FF000084FF06A
:10052000000B21F00701AC46ACE8C009ACE8C009FB
:10053000ACE8C009ACE8C0098D46704710B5044668
:10054000AFF300802046BDE81040FFF778BE000002
:10055000004870471C4600207047000001491820E1
:10056000ABBEFEE726000200464910B54A6822F4F9
:1005700040324A604A6843681A434A6001684A68E0
:1005800022F480724A6001684A68036942EA0322E1
:100590004A6001684A6822F040724A6001684A680D
:1005A00083681A434A6001688A6822F400628A609C
:1005B00001688A68C3681A438A60816A6FF0706252
:1005C000D14201688A6822F070628A6001688A6894
:1005D0000CD0836A1A438A6001688A6822F040520C
:1005E0008A6001688A68C36A1A4301E022F04052B7
:1005F0008A6001688A6822F002028A6001688A685B
:10060000037E42EA43028A6090F8201000290168C4
:100610004A680FD042F400624A6001684A6822F4D6
:1006200060424A6001684A68174C436A04EB4333EE
:100630001A4301E022F400624A600168CA6A22F4A7
:100640007002CA620168CA6A838B104C04EB0353C0
:100650001A43CA6201688A6822F400728A600168DB
:100660008A6890F8303042EA43228A6001688A68DA
:1006700022F480628A6001688A68406942EA8020C8
:10068000886010BD0023014000E0FFFF0000F0FF84
:10069000FEE7000070B51D4C01221103204600F05A
:1006A000D2FB012280211A4800F0CDFB0122110269
:1006B000184800F0C8FB00228021204600F0C3FB50
:1006C000154D00221021284600F0BDFB002201211B
:1006D000284600F0B8FB00220221284600F0B3FBB8
:1006E00000220221204600F0AEFB0022012120461C
:1006F00000F0A9FB00220821204600F0A4FB2046C0
:10070000BDE870400022042100F09DBB00000240C3
:1007100000180240001402400004024070472020EC
:1007200000F066BA70B590F83C206A4D012A19D0E5
:10073000012280F83C200A6807230468092A13D99B
:10074000E6680A3A02EB420293409E43E6600A786A
:100750008B680A3A02EB420293400268D468234352
:10076000D36010E0022070BD266902EB4202934084
:100770009E4326610B788A6803EB43039A40036823
:100780001C6922431A610268936B23F4401393633C
:100790000268936B0C8A504E06EB04542343936318
:1007A0000A790B7CD21AD21C02EB82021F239340DF
:1007B0000268946B9C4394630A790B7CD21AD21C16
:1007C00002EB82030A8892B29A4003689C6B224330
:1007D0009A638A69AA420268936823F4702393603B
:1007E000026893680CD08C69234393600268936815
:1007F00023F44013936002689368CC69234301E0BB
:1008000023F4401393604A7D002A0268536802D0A3
:1008100043F4806301E023F4806353600A7D002A7F
:100820000268536802D043F4805301E023F48053FC
:1008300053604A68012A16D0022A1FD0032A026890
:1008400027D0136A6FF30B0313620268136ACC6834
:1008500023431362224B0468204A9C4227D10C6830
:10086000122C20D023E0026853696FF30B0353610D
:1008700002685369CC6823435361EBE702689369CC
:100880006FF30B03936102689369CC682343936110
:10089000E0E7D3696FF30B03D3610268D369CC68D7
:1008A0002343D361D6E7546844F480045460046859
:1008B0009C420AD10968A1F18053123B01D0112951
:1008C00003D1516841F400015160002180F83C10CF
:1008D000084670BD01000F000000F0FF002301403A
:1008E0000020014078B50024009490F83C20012AB3
:1008F00019D0012280F83C200A6807230568092ADC
:1009000013D9EE680A3A02EB420293409E43EE602E
:100910000B788A680A3B03EB43039A400368DD685F
:100920002A43DA6010E0022078BD2E6902EB420211
:1009300093409E432E610B788A6803EB43039A40F1
:1009400003681D692A431A614A681F23072A13D2C4
:1009500005686E6B521E02EB820293409E436E63EB
:100960000A8893B20A79521E02EB8202934002680F
:10097000556B2B43536327E005680D2A12D22E6B6B
:10098000D21F02EB820293409E432E630B790A88AA
:10099000DB1F92B203EB83039A4003681D6B2A436B
:1009A0001A6311E0EE6A0D3A02EB820293409E4315
:1009B000EE620B790A880D3B92B203EB83039A40F7
:1009C0000368DD6A2A43DA621B4B0568194A9D42B7
:1009D0000AD10D68122D07D1556825F40005556020
:1009E000556845F48005556005689D421DD1134D3D
:1009F0000B68AB4201D0112B17D1536823F480034D
:100A00005360536843F4000353600968A9420CD152
:100A10000B490C4A0968B1FBF2F101EB8101490075
:100A200000E0491E00910029FBD180F83C400020E5
:100A300078BD00000023014000200140120000109A
:100A4000A000002040420F0070B504004FF00005E8
:100A500003D0206C002610B107E0012070BD2046B5
:100A600000F01CF8666484F83C60206CC00610D46A
:100A7000206C20F4885040F0020020642046FFF7EC
:100A800073FD6664206C20F0020040F001002064D9
:100A900000E0012584F83C60284670BD10B586B0A2
:100AA000044614216846FFF7FAFC11492068884281
:100AB0001CD110480021026842F480720260006874
:100AC00000F4807005900B481438026842F004026C
:100AD0000260006800F004000590202000900320D0
:100AE000CDE901016946044800F08EF806B010BD5A
:100AF0000020014044380240000802402DE9F04146
:100B00000446876D00F0A4F9064694F835000025E8
:100B1000022806D08020606584F834500120BDE8AA
:100B2000F0812068016821F01601016020684169A8
:100B300021F080014161206C08B9A06C20B12068CF
:100B4000016821F0080101602068016821F00101BD
:100B500001600CE000F07CF9801B052807D92020FB
:100B60006065032084F8350084F83450D7E72068A6
:100B70000068C007EED194F85C103F208840B86050
:100B8000012084F8350084F834500020C7E790F83D
:100B90003510022903D080214165012070470521CD
:100BA00080F835100068016821F001010160002023
:100BB0007047000070B5044600F04AF90546601C15
:100BC00002D004480078044400F042F9401BA042DF
:100BD000FAD370BD94000020202805D10348017F7E
:100BE000002901D000210177704700002400002077
:100BF000044910B50A68024202D00860FFF7ECFF12
:100C000010BD0000143C01402DE9F84FDFF8F8A1B9
:100C10000022012403254FF00F090AF1040BAAF169
:100C2000040E00BF0B6804FA02F63340B34270D1E1
:100C30000F7907F00307012F01D0022F16D1876823
:100C40004FEA420805FA08FC27EA0C07D1F80CC065
:100C50000CFA08FC4CEA070CC0F808C04768B74318
:100C60000E79C6F3001696403E4346600E79F64371
:100C7000B6070AD0C7684FEA420C05FA0CF6B7432C
:100C80008E6806FA0CF63E43C6600E7906F003063F
:100C9000022E10D1D60800EB8608D8F8206057073E
:100CA0004FEAD76C09FA0CF7BE430F6907FA0CF745
:100CB0003743C8F8207006684FEA420C05FA0CF773
:100CC000BE430F7907F0030707FA0CF737430760B5
:100CD0004E6816F4403F1CD04C4E376847F48047AE
:100CE0003760366822F0030706F480460096484EC7
:100CF00007EB060CDCF8086897073F0F09FA07F8BE
:100D000026EA0806DFF80C81404503D14FF00008C1
:100D100041E072E0DFF80081404502D14FF0010868
:100D200039E0DFF8F880404502D14FF0020832E0A8
:100D3000DFF8EC80404502D14FF003082BE0DFF8EC
:100D4000E480404502D14FF0040824E0DFF8D88069
:100D5000404502D14FF005081DE0DFF8D080404546
:100D600002D14FF0060816E0DFF8C480404502D1FA
:100D70004FF007080FE0DFF8BC80404502D14FF08C
:100D8000080808E0DFF8B080404502D14FF00908BC
:100D900001E04FF00A0808FA07F848EA0608CCF81C
:100DA0000888DAF800605746D1F804C09E435FEA2D
:100DB000CC2C00D51E433E60DBF800605F46D1F8C6
:100DC00004C09E435FEA8C2C00D51E433E60DEF8D3
:100DD00000607746D1F804C09E435FEA8C3C00D5A2
:100DE0001E433E60084F083F3E68D1F804C09E4352
:100DF0005FEACC3C00D51E433E60521C102AFFF433
:100E000011AFBDE8F88F0000083C014044380240B3
:100E1000003001400000024000040240000802408F
:100E2000000C024000100240001402400018024072
:100E3000001C0240002002400024024000690840DB
:100E400000D0012070470AB1816170470904FBE7B7
:100E500001488068704700009400002002488168C3
:100E60000278114481607047940000200B4810B54F
:100E7000016841F400710160016841F48061016022
:100E8000016841F480710160032000F073F80F20C5
:100E900000F006F800F024F8002010BD003C0240ED
:100EA00070B50D4D04464FF47A712878B1FBF0F01F
:100EB0000A490968B1FBF0F000F048FB48B9102C72
:100EC00007D200222146501E00F034F800206C604A
:100ED00070BD012070BD000094000020A000002023
:100EE0000C4882B0016841F480410160006800F460
:100EF000804000900748001F016841F08051016068
:100F00000068002200F0805000900F21901E02B077
:100F100000F010B844380240002809DB00F01F023E
:100F2000012191404009800000F1E020C0F800114B
:100F300070470000F0B40E4B1B680C46C3F302234D
:100F4000C3F10705042D00D90425191D072901D275
:100F5000002300E0DB1E012606FA05F1491E2140B0
:100F600099409E40761E16403143F0BC01F055BEBC
:100F70000CED00E0064900F0070208684FF6FF0399
:100F8000184040EA0220034A1043086070470000FE
:100F90000CED00E00000FA052DE9F8431748016860
:100FA00041F0805101600068154F00F0805001262B
:100FB00000903E64FFF74CFF05464FF47A78114CE1
:100FC00005E000BFFFF744FF401B40450DD86068B7
:100FD000C003F7D57E64FFF73BFF0546464607E0B2
:100FE000FFF736FF401BB04202D90320BDE8F8836B
:100FF00060688003F4D50020F8E700004038024024
:1010000000000E42007000402DE9F0470E4605003A
:1010100065D0DFF81481D8F80000F7B200F00F00B7
:10102000B04207D288F80070D8F8000000F00F0036
:10103000B04254D128683D4C810712D5400703D5F2
:10104000206840F4E05020602878000703D520682D
:1010500040F4604020602068A96820F0F000084358
:1010600020602878C0072DD03049686808390128E9
:1010700012D0022813D0032811D00968890700294B
:101080002DDA216821F0030101432160FFF7E0FE22
:10109000814641F2883A0EE009688903EFE7096862
:1010A0008901ECE7FFF7D4FEA0EB0901514502D915
:1010B0000320BDE8F0872068696800F00C00B0EB01
:1010C000810FEFD1D8F80010404601F00F01B14276
:1010D00007D90770006800F00F00B04201D001206E
:1010E000E7E72878400705D52068E96820F4E05054
:1010F000084320602878000706D52068296920F475
:10110000604040EAC100206000F038F82168084AD9
:10111000C1F30311515CC8400649086006480068E5
:10112000FFF7BEFE0020C4E7003C02400838024042
:10113000F83E0008A000002098000020044805495F
:1011400000680968044AC1F38221515CC8407047B5
:10115000A000002008380240083F00080448054964
:1011600000680968044AC1F34231515CC8407047C5
:10117000A000002008380240083F0008154810B5BC
:10118000006810F00C02144813D01449042A0FD040
:10119000082A0ED10F4C241F2268236802F03F0258
:1011A0005B0207D52068C0F38810A0FB010106E0B0
:1011B000084610BD2168C1F38811A1FB000100237E
:1011C000FFF7C4F82168C1F30141491C4900B0FB95
:1011D000F1F010BD083802400024F40040787D0191
:1011E0002DE9F84F04006ED02078DFF84C93C0074B
:1011F000A9F104054AD009F104000168C1F3810195
:10120000012908D00068C0F3810002280AD1D9F86A
:101210000000400206D52868800337D560680028A2
:10122000E1D033E06068B0F5803F10D0B0F5A02F7A
:10123000286810D020F480302860286820F48020AE
:1012400028606068A8B1FFF703FE06460DE0286835
:1012500040F48030F4E740F480202860F7E700BFD6
:10126000FFF7F6FD801B642873D828688003F7D544
:101270000CE0FFF7EDFD064605E000BFFFF7E8FDD7
:10128000801B6428F0D828688003F7D42078DFF822
:10129000AC8280074FF0000A3ED5A748001D0168C8
:1012A00011F00C0F08D00068C0F3810002280BD1A8
:1012B000D9F80000400207D42868800716D5E068F6
:1012C000012800D112E033E1E068B8B10120C8F88C
:1012D0000000FFF7BDFD064605E000BFFFF7B8FDC3
:1012E000801B0228C0D828688007F7D528682169A4
:1012F00020F0F80040EAC10028600DE0C8F800A026
:10130000FFF7A6FD064604E0FFF7A2FD801B0228BA
:101310001FD828688007F7D42078000722D5864F89
:1013200087486169703771B101210160FFF790FD55
:10133000064604E0FFF78CFD801B022809D83868B8
:101340008007F7D50EE0C0F800A0FFF781FD064644
:1013500005E082E0FFF77CFD801B02287DD838681D
:101360008007F7D42078400768D5DFF8CCB1002794
:101370000BF13C0BDBF80000C0000BD4DBF80010D5
:1013800041F08051CBF80010DBF80000012700F09D
:10139000805000906B4E3068C00510D4306840F427
:1013A00080703060FFF754FD009005E0FFF750FDBE
:1013B0000099401A022850D83068C005F6D55E4E14
:1013C000A0686C3601280FD00528306810D020F0B6
:1013D00001003060306820F004003060A068B8B1CF
:1013E000FFF736FD00900FE0306840F00100F4E7B1
:1013F00040F004003060F7E7FFF72AFD0099411A3A
:1014000041F28830814266D830688007F4D50EE01A
:10141000FFF71EFD009007E0FFF71AFD0099411A43
:1014200041F28830814256D830688007F4D42FB119
:10143000DBF8001021F08051CBF80010A069C8B390
:101440003D49091D0968C1F3810102294AD00228DA
:10145000504607D0C8F8600000E03CE0FFF7F8FC19
:1014600004463BE04746C8F86000FFF7F1FC06463B
:1014700005E000BFFFF7ECFC801B02282BD8286892
:101480008001F7D4D4E907010843A16A2E4A49082C
:1014900002EB0141626A41EA8211084394F82C1080
:1014A00040EA0161C9F8001001203866FFF7D0FC5E
:1014B000044606E03EE000BFFFF7CAFC001B02281E
:1014C00009D828688001F7D534E000BFFFF7C0FCD9
:1014D000001B022802D90320BDE8F88F286880018C
:1014E000F4D427E00128F7D0D9F80000E26900F42D
:1014F000800191421CD1226A00F03F01914217D134
:1015000047F6C071626A0140B1EB821F10D1A26A36
:101510004FF0FF3300F4403103EB5202B1EB024FC6
:1015200006D194F82C1000F07060B0EB016F01D080
:101530000120D1E70020CFE70438024000004742F5
:10154000800E4742007000400000FFFF10B5401EB3
:10155000B0F1807F01D3012010BD4FF0E024606125
:101560000F21601701F059FB0020A06107202061C6
:10157000002010BD70B590F83C20012A32D0012423
:1015800080F83C40022280F83D2003685A689D683C
:1015900022F070060A6832435A60134B02689A427E
:1015A00014D0B2F1804F11D0104B9A420ED0104B94
:1015B0009A420BD00F4B9A4208D00F4B9A4205D05B
:1015C0000E4B9A4202D00E4B9A4204D1496825F044
:1015D00080031943916080F83D40002180F83C1061
:1015E000084670BD022070BD0000014000040040AC
:1015F00000080040000C0040000401400040014091
:101600000018004010B5040003D094F83D0010B15C
:1016100007E0012010BD002084F83C00204600F0C7
:101620001FF8022084F83D00211D206801F00AF80F
:10163000012084F8460084F83E0084F83F0084F8D6
:10164000400084F8410084F8420084F8430084F8A4
:10165000440084F8450084F83D00002010BD0000DF
:1016600008B501680B48B1F1804F0BD00A4A91428E
:1016700007D1016841F002010160006800F002003A
:10168000009008BD016841F001010160006800F0B0
:101690000100F5E7403802400004004090F83D109A
:1016A000012901D001207047022180F83D10016816
:1016B000CA6842F00102CA6000681149884214D029
:1016C000B0F1804F11D00F4988420ED00E498842A8
:1016D0000BD00E49884208D00D49884205D00D49EB
:1016E000884202D00C49884204D1816801F0070188
:1016F000062903D0016841F0010101600020704714
:10170000000001400004004000080040000C0040C0
:1017100000040140004001400018004070B504463C
:1017200090F83C000025012817D0012684F83C6081
:10173000022084F83D002068826822F0770222F4BB
:101740007F4282600868502838D00DDC20284FD0B6
:1017500005DC90B3102811D14AE0022070BD30287A
:1017600046D040280AD13BE060282FD070280DD009
:10177000B0F5805F03D0B0F5005F12D0012584F88A
:101780003D60002084F83C00284670BDCB68D1E95C
:101790000121206800F0CFFF2068816841F07701C7
:1017A00009E0CB68D1E90121206800F0C4FF20687E
:1017B000816841F480418160E1E719E0CA684968C5
:1017C000206801F08DF85021206806E0CA68496859
:1017D000206801F096F86021206800F0B6FFCEE79F
:1017E000CA684968206801F07BF840212068F4E766
:1017F000226801461046F0E730B587B00446142150
:101800006846FEF74CFE2268002420490225204845
:10181000B2F1804F28D01F4B9A4223D10A6842F080
:1018200001020A600A6802F0010205920A6842F0A9
:1018300002020A60096801F002010591802100910D
:10184000CDE901546946CDE90345FFF7DDF91320E1
:101850000090CDE9015410486946CDE9034500BF29
:10186000FFF7D2F907B030BD0A6842F001020A6002
:10187000096801F0010105910F210091CDE90154A2
:101880000121CDE903416946EAE700003038024012
:1018900000000240000400400004024070B504460D
:1018A00090F83C0000260D4601280FD0012084F856
:1018B0003C006AB1042A1DD0082A2FD00C2A3FD040
:1018C0000126002084F83C00304670BD022070BD27
:1018D000206800F043FF2068816941F008018161C0
:1018E0002068816921F004018161206881692A6989
:1018F000114311E0206800F061FF2068816941F424
:10190000006181612068816921F4806181612068C2
:1019100081692A6941EA02218161D2E7206800F0E9
:1019200083FF2068C16941F00801C1612068C16975
:1019300021F00401C1612068C1692A69114311E0E5
:10194000206800F0A5FF2068C16941F40061C16111
:101950002068C16921F48061C1612068C1692A6978
:1019600041EA0221C161ACE710B5040003D094F84C
:101970003D0010B107E0012010BD002084F83C00BC
:10198000204600F01EF8022084F83D00211D20684A
:1019900000F058FE012084F8460084F83E0084F8E8
:1019A0003F0084F8400084F8410084F8420084F845
:1019B000430084F8440084F8450084F83D0000208A
:1019C00010BD704710B50446022249B104290ED05B
:1019D000082913D094F84100012816D0012010BD29
:1019E00094F83E000128F9D184F83E200FE094F8E5
:1019F0003F000128F2D184F83F2008E094F840002D
:101A00000128EBD184F8402001E084F84120012234
:101A1000206800F083FE16492068164A884201D0EB
:101A2000904203D1436C43F40043436420688842EE
:101A300013D0B0F1804F10D00F4988420DD00F491C
:101A400088420AD00E49884207D0904205D00D49FD
:101A5000884202D00C49884204D1816801F0070114
:101A6000062903D0016841F001010160002010BD8A
:101A70000000014000040140000400400008004054
:101A8000000C0040004001400018004070477047C3
:101A9000F8B5016804460868CA684B6910F00F0F72
:101AA0004FF0000559D003F0010602F49077374358
:101AB00065D0C10705D0D10503D5616C41F00101A6
:101AC0006164410705D5D90703D0616C41F002017B
:101AD0006164810705D5D90703D0616C41F0040129
:101AE0006164010707D502F02001314303D0616C26
:101AF00041F008016164616C00293AD0800604D588
:101B0000900602D5204600F044FF20684069616CD1
:101B1000C0F38010090700D460B3204600F012FF24
:101B200020684069400621D52068143050E8001F25
:101B300021F0400140E80012002AF5D1E06BA8B185
:101B40006E490165E06BFFF722F8002811D0E06BC9
:101B5000016D01B0BDE8F040084783060FD593063C
:101B60000DD52046BDE8F84000F013BF2046FFF732
:101B70008EFFF8BD2046FFF78AFF6564F8BD266B2F
:101B80002023012E7DD1C6067BD5D60679D50868DF
:101B90004868009048694FF00206400641D5E16B65
:101BA000086840680004000CE8D0A28D8242E5D9A4
:101BB000E085C869B0F5807F2DD020680C3050E8F2
:101BC000001F21F4807140E80012002AF5D120683E
:101BD000143050E8001F21F0010140E80012002AF3
:101BE000F5D12068143050E8001F21F0400140E892
:101BF0000012002AF5D184F84230256320680C30A9
:101C000050E8001F21F0100140E80012002AF5D131
:101C1000E06BFEF773FF6663A08DE18D401A81B221
:101C20002AE0A08DE18D401A81B2E08D0028A5D078
:101C30000029A3D022680C3252E8000F20F49070E3
:101C400042E80007002FF5D12068143050E8002F3B
:101C500022F0010240E80027002FF5D184F842303D
:101C6000256320680C3050E8002F22F0100240E875
:101C70000023002BF5D166632046FFF707FFF8BD70
:101C8000FFE705062BD5150629D594F84100212834
:101C9000F5D1A068B0F5805F01D12069B0B1206AAC
:101CA000411C2162216800784860E08C401E0004DD
:101CB000000CE084E3D12068C16821F08001C1609C
:101CC0002068C16841F04001C160D8E7206A0088FF
:101CD000C0F308004860206A801C2062E5E74006E7
:101CE000CDD55006CBD5CA68204622F04002CA6046
:101CF00084F8413000F02EF9C1E7000035290008D2
:101D000070B5040004D094F84100002510B106E03D
:101D1000012070BD84F84050204600F023F82420B4
:101D200084F841002068C16821F40051C160204658
:101D300000F090FE2068016921F490410161206863
:101D4000416921F02A0141612068C16841F40051D4
:101D5000C1606564202084F8410084F84200656316
:101D6000002070BD10B586B0044614216846FEF709
:101D700096FB17492068884228D11648002102683E
:101D800042F080420260006800F0804005901148F7
:101D90001038026842F020020260006800F0200063
:101DA0000590C02000900220CDE90101032003909E
:101DB0000820049069460848FEF726FF0022052106
:101DC0005220FFF7B7F85220FFF7A6F806B010BD73
:101DD00000780040403802400014024090F8423041
:101DE000202B01D00220704721B11AB100230363D8
:101DF00000F0B6BE0120704710B500682749884240
:101E00004AD12748037827480188274A5418491C93
:101E1000018023706A2B38D10188114411F8093CE4
:101E20002249303B0B7049600388134413F8084C77
:101E300001F10803303C1C700488144414F8074C6A
:101E4000303C5C700488144414F8064C303C9C70A0
:101E50000488144414F8054C303CDC7004881444A5
:101E600014F8044C303C1C710488144414F8034CDE
:101E7000303C5C7100881044012210F8020C3038AC
:101E8000987164230A4800F015F8BDE8104001225B
:101E900003490748FFF7A2BF10BD000000780040CB
:101EA000880000208A0000202C05002078000020F7
:101EB000900200202DE9F843044690F8410098462E
:101EC00016460D46202802D00220BDE8F88385B1D1
:101ED0007EB100206064212084F84100FEF7B8FF45
:101EE000A6848146E684A0682027B0F5805F02D0F2
:101EF00003E00120E9E7206910B12E4600250EE03D
:101F000000260CE08021204600F045FEA8B9C6B1AD
:101F100016F8010B21684860E08C401EE084E08CDC
:101F20004B464FF00002CDF800800028EAD14FF078
:101F30004001204600F02FFE40B184F8417003209C
:101F4000C3E735F8020BC0F30800E3E784F84170FB
:101F50000020BAE77047704706490968414364208A
:101F6000B1FBF0F104480268D1630068002101640C
:101F7000704700009000002048020020064900221F
:101F80000B68DA63054A0968126842436420B2FBB1
:101F9000F0F0086470470000480200209000002024
:101FA0000649096841436420B1FBF0F10448026826
:101FB0009163006800214163704700009000002099
:101FC00048020020064900220B689A63054A096806
:101FD000126842436420B2FBF0F04863704700008F
:101FE000480200209000002070B58CB000240894B6
:101FF00009940A94202168460B94FEF750FA1E4873
:102000001C49012501604FF48031C0E901140461CD
:10201000047680F820401949C0E90A14C561C460FB
:1020200080F830404561FEF70FFD08B172B6FEE75B
:102030000F260896CDE9095408A90F48FEF752FC6F
:1020400008B172B6FEE7CDE900650D480294CDE90E
:1020500006048DF8154004958DF81440694606482D
:102060000394FEF75FFB002801D072B6FEE70CB0C8
:1020700070BD000000200140B80100200100000FE9
:1020800001000F002DE9F04F87B014216846FEF7DC
:1020900006FA68480024016841F0100101600168F7
:1020A00001F010010591016841F020010160016813
:1020B00001F020010591016841F080010160016893
:1020C00001F080010591016841F0010101600168A2
:1020D00001F001010591016841F00401016001680E
:1020E00001F004010591016841F0020101600168FD
:1020F00001F002010591016841F0400101600068B2
:10210000DFF8349100F04000059000220421484699
:10211000FEF799FEDFF824A14FF4E0660022314675
:102120005046FEF790FE002210214548FEF78BFE38
:10213000DFF810B141F20807002239465846FEF791
:1021400082FE002280214048FEF77DFE4FF4805839
:10215000002241463D48FEF776FE0420009001250E
:10216000CDE90154694648460394FEF74DFD202011
:1021700000904FF44410CDE9010569464846FEF74A
:1021800043FD0096CDE90154694650460394FEF79D
:102190003BFD10200090CDE9015469462848039486
:1021A000FEF732FDA802CDE9000402200290694644
:1021B0005846FEF729FD0097CDE901546946584677
:1021C0000394FEF721FD4AF22000CDE900046946A0
:1021D00058460294FEF718FD80200090CDE9015486
:1021E000694619480394FEF70FFDCDF80080CDE94C
:1021F0000154694615480394FEF706FDE803CDE94E
:102200000004694611480294FEF7FEFC4FF4A0500A
:10221000CDE9000469460A480294FEF7F5FC002265
:1022200005211720FEF786FE1720FEF775FE07B082
:10223000BDE8F08F30380240001002400014024028
:102240000008024000040240001802400000024062
:1022500010B58EB000240794089409940A940B9446
:102260001C2168460C94FEF71AF92A484FF0804169
:1022700001602C21C0E9011442F21071C0E903147D
:102280008461FFF7BFF908B172B6FEE74FF48050E2
:10229000079007A91F48FFF741FA08B172B6FEE799
:1022A0001C48FFF761FB08B172B6FEE70B940BA95F
:1022B00018480C94FFF75EF908B172B6FEE760208B
:1022C000CDE9000402940022694612480494FFF705
:1022D000E5FA08B172B6FEE7042269460D48FFF739
:1022E000DDFA08B172B6FEE7082269460948FFF731
:1022F000D5FA08B172B6FEE70C2269460548FFF729
:10230000CDFA08B172B6FEE70248FFF775FA0EB0D3
:1023100010BD00000002002010B58EB0002407940C
:10232000089409940A940B941C2168460C94FEF7B7
:10233000B6F82A48284901602C21C0E9011442F26C
:102340001071C0E903148461FFF75CF908B172B63B
:10235000FEE74FF48050079007A92048FFF7DEF909
:1023600008B172B6FEE71D48FFF7FEFA08B172B673
:10237000FEE70B940BA919480C94FFF7FBF808B182
:1023800072B6FEE76020CDE900040294002269469F
:1023900012480494FFF782FA08B172B6FEE70422ED
:1023A00069460E48FFF77AFA08B172B6FEE70822CE
:1023B00069460A48FFF772FA08B172B6FEE70C22C6
:1023C00069460648FFF76AFA08B172B6FEE70348A5
:1023D000FFF712FA0EB010BD0004004048020020C2
:1023E000FEE7FEE70649096841436420B1FBF0F1CE
:1023F000044802689163006800214163704700004F
:102400009000002000020020064900220B689A6319
:10241000054A0968126842436420B2FBF0F0486341
:1024200070470000000200209000002006490022B2
:102430000B681A64054A0968126842436420B2FBBB
:10244000F0F0C863704700000002002090000020F8
:102450000649096841436420B1FBF0F10448026871
:10246000116400680021C1637047000090000020E3
:1024700000020020962001F0B1FA3C48FFF70EF967
:102480003B4D3C4C4FF480572E154FF000094FF058
:10249000010A002239462846FEF7D5FC01223946BA
:1024A0002846FEF7D0FC0F2000F054FD00223946EC
:1024B0002846FEF7C8FC31462846FEF7BFFC002838
:1024C000F9D00020C4E904000AE000BFD4E9040107
:1024D000401C41F10001C4E90401012000F03AFD73
:1024E00031462846FEF7AAFC0128EFD0D4E90412B1
:1024F00040F6D860C4E90612081A72F1000031D221
:1025000060684FF4AD738346A060A1FB030802FB33
:1025100003824FF0000C01FB0C214FF4FA6263467A
:10252000FDF714FF606050280CD2584502D920787E
:10253000401C20702078032814D384F803A084F86A
:1025400000900FE064280DD3E17859B1584502D2CC
:102550006078401C60706078052803D384F802A07E
:1025600084F80190012001F039FA92E74802002036
:102570000004024048000020012000F065FEFBE757
:1025800010B5FEF76BFC01F0A3FB012803D0BDE8FA
:10259000104001F02FBB10BD70B592B030216846DD
:1025A000FDF77DFF14210CA8FDF779FF1F480025DA
:1025B000016841F080510160006800F08050119086
:1025C0001B48016841F4404101600068022400F4A6
:1025D0004040119001200090000401908001CDE95D
:1025E00006400F260896D820CDE9090404200B9058
:1025F0006846FEF7F5FD08B172B6FEE7FEF7CCFCC3
:1026000008B172B6FEE74FF4A050CDE90E504FF47A
:102610008050CDE90C64109005210CA8FEF7F4FC65
:10262000002801D072B6FEE712B070BD40380240FB
:10263000007000400248016841F470010160704779
:1026400088ED00E0F0B50268294C2A4D2A4E2B4F48
:102650002B4B4FF0804CA04209D0604507D0A842D8
:1026600005D0B04203D0B84201D0984204D122F044
:10267000700E4A6842EA0E02A0421BD0604519D093
:10268000A84217D0B04215D0B84213D0984211D00A
:102690001C4DA8420ED01C4DA8420BD01B4DA84289
:1026A00008D01B4DA84205D01A4DA84202D01A4DA1
:1026B000A84203D122F44075CA682A434D6922F02A
:1026C00080022A4302608A68C2620A688262A0426B
:1026D00001D0984201D10969016301214161016979
:1026E000C90703D0016921F001010161F0BD0000BB
:1026F000000001400004004000080040000C0040C1
:1027000000040140004001400044014000480140F5
:1027100000180040001C00400020004010B501F0EF
:102720001F030121046A99408C430462016A9A40A4
:102730001143016210BD10B5846842EA032224F4FB
:102740007F440A432243826010BD826822F07002F7
:102750000A4342F00701816070470000F0B5036A48
:10276000026A22F00102026242688469124E24F079
:1027700073050C682C4323F002058B682B430D4D29
:10278000A84201D0B04205D123F00807CB683B43F3
:1027900023F00403A84201D0B04205D14D6922F4D0
:1027A000407215438A692A434260846149684163E3
:1027B0000362F0BD0000014000040140F0B5026A70
:1027C000036A23F010030362436884690D6824F4EC
:1027D000E64444EA05248D6822F0200242EA05120C
:1027E0000F4D104EA84201D0B04206D1CF6822F062
:1027F000800242EA071222F04002A84201D0B04211
:1028000007D14D6923F4406343EA85038D6943EAA8
:10281000850343608461496881630262F0BD000002
:102820000000014000040140F0B5026A036A23F48D
:10283000807303624368C46922F4007224F0730554
:102840000C68124E2C438D6842EA05220E4DA842B8
:1028500001D0B04206D1CF6822F4006242EA0722DA
:1028600022F48062A84201D0B04207D14D6923F41E
:10287000405343EA05138D6943EA05134360C4617D
:102880004968C1630262F0BD0000014000040140DC
:1028900030B5046A026A22F4805202624268C36957
:1028A0000D6823F4E64343EA05238D6824F40054BD
:1028B00044EA0534084DA84202D0084DA84204D18C
:1028C0004D6922F4804242EA85124260C361496840
:1028D0000164046230BD00000000014000040140BA
:1028E00010B5036A046A24F001040462846924F0C8
:1028F000F00444EA021423F00A020A4384610262EB
:1029000010BD10B5036A046A24F0100404628469DF
:1029100023F0A00324F4704444EA023243EA011194
:102920008261016210BD00000148FFF7B1B80000EC
:102930009002002010B5806B0021C185C184FFF793
:10294000A6F810BD01680C3151E8002F22F49072F6
:1029500041E80023002BF5D10168143151E8002F24
:1029600022F0010241E80023002BF5D1016B01297F
:1029700009D101680C3151E8002F22F0100241E822
:102980000023002BF5D1202180F8421000210163A3
:10299000704708B590F84210222901D0022008BDE6
:1029A00082684FF480539A4201D1016921B1816A52
:1029B0009A421BD04AB10AE00268816A5268C2F3A7
:1029C00008020A80816A891C08E0026972B1026803
:1029D000526802F07F020A70816A491C8162C18DCF
:1029E000491E0904090CC18503D01BE00268526826
:1029F000F1E70168CA6822F02002CA600168CA686B
:102A000022F48072CA6001684A6922F001024A61B8
:102A1000202180F8421000214163026B012A03D07B
:102A2000FFF7EAF9002008BD016301680C3151E8A5
:102A3000002F22F0100241E80023002BF5D101689D
:102A40000A68D20602D50A6849680091818DFFF7AD
:102A50001DF8E7E770B5044600680169E26821F4F3
:102A60004051114301612169A068E269084361692D
:102A7000114308432168CA6849F20C639A43024330
:102A8000CA6020684169A26921F440711143416123
:102A900031492068884202D03049884202D1FEF78D
:102AA0005DFB01E0FEF74AFBE26900231921642582
:102AB0003226B2F5004F626828D0A0FB0101930FC7
:102AC0009200FDF743FC0146B0FBF5F06FF01802F1
:102AD000504301EB800006EB0010B0FBF5F000F076
:102AE000F002B1FBF5F002EB0012B1FBF5F06FF074
:102AF0001803584301EB800006EB0010B0FBF5F023
:102B000000F00F0021681044886070BDA0FB010137
:102B100092185B41FDF71AFC0146B0FBF5F002018B
:102B2000B1FBF5F06FF01803584301EB800006EBA2
:102B3000C000B0FBF5F000F0F80002EB4002B1FB82
:102B4000F5F0584301EB800006EBC000B0FBF5F058
:102B500000F00700D6E7000000100140001401401B
:102B600081628285C28500214164222180F8421061
:102B7000016921B10168CA6842F48072CA600168C3
:102B80004A6942F001024A610068C16841F02001CF
:102B9000C160002070472DE9F843984617460D465E
:102BA0000446089E24E0701C22D0FEF751F9A0EBE9
:102BB0000800B0421AD8CEB12068C168490717D5BD
:102BC000802D15D0402D13D00168C94309070FD4BB
:102BD00001680025406800902046FFF7B3FE0820FA
:102BE000606484F840500120BDE8F8830320FBE7CF
:102BF0002068006835EA000004D00020B842D2D036
:102C00000020F1E70120F9E7FEE700F043FF01F0C3
:102C1000D3F8012000F0E2FEF7E70907090E0028CB
:102C200004DB00F1E02080F80014704700F00F0092
:102C300000F1E02080F8141D704710B56420FFF704
:102C4000AFF96420FFF788F96420FFF7EFFBBDE8D8
:102C500010406420FFF7C6BB70B5414CA4F11805C5
:102C60002AE0686900280BDD3220FFF7ABF932203B
:102C7000FFF784F93220FFF7D9FB3220FFF7D6FBAC
:102C8000686900280BDA5720FFF78AF95720FFF709
:102C900063F95720FFF7DCFB5720FFF7D9FB00F063
:102CA000ADFD6078217800EB4100E178401A217990
:102CB000494200EB41006860207840B9607830B943
:102CC000A07820B9E07810B920790028C9D06078C0
:102CD000217800EB4100E178401A2179494200EB6C
:102CE00041006860FEF7B4F82969401A642813D9D6
:102CF000FEF7AEF828611B49E8686B6951F820209F
:102D00009A1A6B681A446A6141F82030401CE860E6
:102D10001E2801D30020E8606868C01C07281ED266
:102D2000DFE800F01816140D08060400032002E086
:102D3000022000E00120BDE8704000F0BDB8FFF7C0
:102D40007CFFBDE87040012000F07EBA012002E067
:102D5000022000E00320BDE8704000F0CEB870BD56
:102D6000180000200C01002030B51949194891F9CC
:102D700000201AB19FED180A80ED000A91F9023087
:102D80001BB19FED160A80ED000A9FED150A12B9DE
:102D90000BB980ED000A0E4A91F9013092F9032037
:102DA00003B962B19C1A4FF4FA5514FB05F400EE16
:102DB000904AF8EEE00AC0ED020A13B90AB980EDB4
:102DC000020A097909B1002100E00121817730BDB3
:102DD000800000202400002000401C4600401CC64B
:102DE00000000000962000F0F9FD2B4801794278A0
:102DF00000EE101AC178B8EE401A00EE101A817871
:102E0000F8EE400A00EE101A01782448B8EE400AA5
:102E100000F050FA204C224DE41D012221492248A5
:102E2000FEF7DCFF00F0EAFCFFF79EFF607F20B9B1
:102E3000207F012801D100202077207F60770128A2
:102E400025D0287810B1012812D020E0FFF704FF28
:102E5000012211021548FDF7F6FF01221103144863
:102E6000FDF7F1FF012280211248FDF7ECFF0EE093
:102E700009481D38406900F08BF8052802DA00F097
:102E80004FFC04E02878012801D100F085F80120EA
:102E900000F0A4FDC1E700001D0000208401002017
:102EA0004B00002088000020900200200014024007
:102EB000000002400018024010B5012811D002287D
:102EC00001D0032818D12820FFF77CF82820FFF72D
:102ED00055F85020FFF7AAFA5020BDE81040FFF740
:102EE00081BA2820FFF76EF82820FFF747F8642002
:102EF000FFF79CFA6420F0E710BD10B5012811D04F
:102F000002281AD0032823D16420FFF749F864204F
:102F1000FFF722F82D20FFF79BFA2D20BDE8104087
:102F2000FFF772BA6420FFF73BF86420FFF714F84C
:102F30003220FFF78DFA3220F0E76420FFF730F8F7
:102F40006420FFF709F82320FFF782FA2320E5E742
:102F500010BD000070B50C4A4FF0E0250021136849
:102F60000A4AB3FBF2F4AA694443A8699042FCD030
:102F700002D2A2EB000202E0A3EB000632441144AD
:102F80000246A142F1D370BDA000002040420F00D4
:102F9000002800DA404270472DE9F05F00224FF42C
:102FA00080715E48FDF74FFFDFF874815D485E4E2B
:102FB000D8F814205D4D4FF480514FF47A794FF4D6
:102FC000967B4FF4FA6A08F1180412F1080F4BDCF3
:102FD0000022FDF738FF012280213046FDF733FF44
:102FE000FDF736FF064605E00320FFF765FF0120E9
:102FF00000F02AF928780028F6D0FDF729FF871B72
:103000004F4502D2584600F01FF9FFF716FE4FF465
:10301000966000F019F90320FFF76FFF384600F0C3
:1030200013F92878801B504503D24FF4167000F036
:103030000BF9FFF702FE4FF4167002E0FFF7FDFDFB
:10304000642000F001F900F0D9FB207800285ED15F
:10305000607800285BD1A078002858D1E078D8BBF0
:1030600020790028EAD052E0082A50DB0122FDF73F
:10307000EAFE002280213046FDF7E5FEFDF7E8FE7E
:10308000064605E00320FFF738FF012000F0DCF8DA
:1030900028780028F6D0FDF7DBFE871B4F4502D2CB
:1030A000584600F0D1F8FFF7C8FD4FF4966000F0E5
:1030B000CBF80320FFF700FF384600F0C5F828786A
:1030C000801B504503D24FF4167000F0BDF8FFF797
:1030D000B4FD4FF4167004E019E000BFFFF7ADFD3A
:1030E000642000F0B1F800F089FB207840B96078E6
:1030F00030B9A07820B9E07810B920790028EDD057
:103100000320FFF7FAFE4FF4FA7000F09DF808492B
:103110000020087088F80000BDE8F09F001402400D
:103120000000002000000240001802404A00002079
:103130004B0000209CB0FDF799FEFFF72DFAFEF73B
:10314000A1FFFEF751FF3A4838490C2201604FF4C5
:10315000E131416000218160C160C0E904128161F8
:10316000C161FEF7CDFD08B172B6FEE7FFF7D4F8F6
:10317000FFF76EF82E4800219038FEF723FC2C480C
:1031800004219038FEF71EFC294808219038FEF7EC
:1031900019FC27480C219038FEF714FC2448002124
:1031A0004838FEF70FFC224804214838FEF70AFC95
:1031B0001F4808214838FEF705FC1D480C214838F7
:1031C000FEF700FCFDF766FA1C221A496846FDF777
:1031D00034F90021684600F043F8174C15491C22C9
:1031E00020601C3107A8FDF728F9002107A800F08E
:1031F00037F8104960601C2238310EA8FDF71DF920
:1032000000210EA800F02CF80A49A0601C225431BD
:1032100015A8FDF712F9002115A800F021F8E060CB
:1032200000F019F80120FDF7C5FCFBE7007800402D
:1032300090020020883E000868000020014600201F
:10324000842900D0C81C704710B500B9012000F0D7
:10325000C5FB002010BD10B500F0E6FB002010BD3E
:103260007FB50D4604464169B0F9080081B1A169F6
:1032700071B1FFF7E3FFD4E905128DE80700D4E947
:1032800000102B46226900F0F8FC039004B070BDDA
:10329000FFF7D4FF03A9CDE90001208A2B4682B2B3
:1032A000D4E9001000F0BCFC012801D00020EDE7BB
:1032B0000398EBE7C0E90B1280EC030A70470000AB
:1032C0002DE9F0411A4C0F460546E66821680020BA
:1032D00081F852002068001D00F0B8FA38B9206863
:1032E00090F82C1001208840216981432161681CDD
:1032F00007D137B12168BDE8F0410E48091D00F043
:10330000E9BA20683544B5424560216805D2A06B12
:10331000BDE8F041091D00F0C5BA606B091D00F061
:10332000C1FAA06A854200D2A562BDE8F081000022
:10333000A4000020080A00202DE9F041054600F015
:10334000D5FA2E4CA068401CA06020682C4F10B10C
:10335000606940B32DE02560A068012829D10026CE
:1033600006EB860007EB800000F08EFA761C072E35
:10337000F6D323488C3000F087FA2148A03000F0C3
:1033800083FA1F48B43000F07FFA1D48C83000F0BF
:103390007BFA1B48DC3000F077FA19488C30606308
:1033A0001430A06305E02068E96AC06A884200D84A
:1033B0002560606A401C6062E96A012022698840D9
:1033C0001043206101EB810007EB8000291D00F014
:1033D00081FA00F0ABFA606900280CD02068E96A35
:1033E000C06A884207D207494FF080500860BFF397
:1033F0004F8FBFF36F8FBDE8F0810000A400002065
:103400002C09002004ED00E010B5044690F85100AE
:1034100058B101280CD002280FD0502080F3118819
:10342000BFF34F8FBFF36F8FFEE7206B00F092FA70
:103430002046BDE8104000F08DBA10BD10484FF492
:103440007051420706D0C01D0D4920F00700411AF7
:10345000C1F570510B4A00230144C2E90003083949
:10346000183A21F0070111604B600B600B1AC0E99C
:10347000001393604FF000405360506170470000AC
:103480001C0A0020F8000020144E154CA6F1C807B5
:103490004FF08058DFF84C9012E000BF00F026FAA1
:1034A000F068C568281D00F0D1F9A068401EA06032
:1034B0006068401E606000F039FA2846FFF7A4FFFC
:1034C00060680028EAD138680128F9D9C9F8008075
:1034D000BFF34F8FBFF36F8FF2E70000F4090020B6
:1034E000A400002004ED00E02DE9F0479A46DDE954
:1034F000098481466FF00303206B03EB82021044C2
:10350000089E20F00707780707D0502080F3118825
:10351000BFF34F8FBFF36F8FFEE7002561B100202F
:1035200023180A5C83F834200A5C12B1401C10286E
:10353000F6D384F8435001E084F83450072E00D3CA
:103540000626E662C4E91165201D00F0A8F904F121
:10355000180000F0A4F92461C6F107006462A061BC
:10356000E56484F8505084F8525052464946384633
:1035700000F0C0F82060B8F1000F01D0C8F800409A
:10358000BDE8F08730B5114900E011460A68824273
:10359000FBD34B685C18844203D1406818444860F0
:1035A000084643681C18944209D1084C183C24680A
:1035B000A24209D052681A4442600A681268026046
:1035C000814200D0086030BD0460F9E7F8000020B7
:1035D0000648416B096829B1416BC968C9684968E7
:1035E000816270474FF0FF31FAE70000A40000202D
:1035F00008484068401C4FF0500080F3118804D008
:10360000BFF34F8FBFF36F8FFEE7BFF34F8FBFF353
:103610006F8FFEE7000100202DE9F04105460027ED
:1036200000F038FA324E306808B9FFF707FF7069CA
:1036300005424ED1C5B3083568070ED005F0070026
:10364000C0F108000544680707D0502080F31188B6
:10365000BFF34F8FBFF36F8FFEE72DB370688542C6
:1036600037D82348183001460C6801E020460C4644
:103670006168A94202D221680029F7D131688C42E1
:1036800027D007682168016060680837411B10294E
:103690000FD96019420708D0502080F31188BFF37A
:1036A0004F8FBFF36F8FFEE713E041606560FFF758
:1036B00069FF61687068401A7060B268904200D219
:1036C000B060706901430020C4E90001F068401C4B
:1036D000F06000F071FB780707D0502080F311886C
:1036E000BFF34F8FBFF36F8FFEE73846BDE8F08121
:1036F000E000002010B5031F4FF080741C601B1FFA
:1037000021F001011960191F044B0B6014390A6084
:10371000091F6FF0020244380A6010BDF13500083D
:1037200070B5012211032F48FDF78DFB0122802186
:103730002D48FDF788FB00224FF480712B48FDF7E0
:1037400082FB0320FFF7D9FB4FF46170FFF77CFD8C
:10375000FFF773FA40F6FC00FFF776FD0320FFF752
:10376000ABFB4FF44870FFF76FFDFFF766FA4FF4BD
:10377000C860FFF769FD0320FFF79EFB4FF47A75E1
:103780002846FFF761FDFFF758FA40F2A460FFF703
:103790005BFD00F033F8164C07E000BFFFF74DFA71
:1037A0006420FFF751FD00F029F8207840B96078D7
:1037B00030B9A07820B9E07810B920790028EDD090
:1037C0000320FFF79AFB2846FFF73EFD084918390A
:1037D0000878401C087007490020087006490870E6
:1037E00070BD0000000002400018024000140240BA
:1037F000180000204B0000204A00002070B54FF454
:10380000004529460D48FDF719FB0D4C0D4E691179
:1038100020703046FDF712FB6070E9103046FDF76E
:103820000DFB094EA070A9103046FDF707FBE070B4
:1038300029463046FDF702FB207170BD00000240B2
:10384000180000200008024000040240D0E90132C4
:1038500001699A60D0E901235A604A68824201D125
:1038600082684A60002202610868401E0860086899
:1038700070470000034B036003F154000860802090
:1038800010607047D802002000F108014FF0FF32AD
:10389000C0E90112C160016100210160704700218F
:1038A0000161704730B50B685A1C02D000F1080264
:1038B00002E0026904E02246546825689D42FAD974
:1038C00053684B6099608A60516008610168491CC7
:1038D000016030BD42684A6093688B6093685960AC
:1038E000916008610168491C01607047502080F3B5
:1038F0001188BFF34F8FBFF36F8F0A494868401C90
:10390000486001280CD10848006810F0FF0F07D06C
:10391000502080F31188BFF34F8FBFF36F8FFEE706
:10392000704700000001002004ED00E008494868ED
:1039300028B1401E486001D180F3118870475020A3
:1039400080F31188BFF34F8FBFF36F8FFEE7000046
:103950000001002070B500282AD0164DA0F10804FF
:1039600060686969084207D1502080F31188BFF36D
:103970004F8FBFF36F8FFEE722683AB1502080F37C
:103980001188BFF34F8FBFF36F8FFEE788436060EE
:1039900000F080F860686968084468602046FFF7B6
:1039A000F1FD2869401C2861BDE8704000F004BAB0
:1039B00070BD0000E00000204FF0E0200021016118
:1039C000816105494FF47A720968B1FBF2F1491E31
:1039D0004161072101617047A000002010B502007D
:1039E00014D00F48006B38B1502080F31188BFF31A
:1039F0004F8FBFF36F8FFEE700F04CF800211046A9
:103A0000FFF75EFC00F0D8F9002807D105494FF018
:103A100080500860BFF34F8FBFF36F8F10BD000061
:103A2000A400002004ED00E010B586B0002403944B
:103A300005AA04A903A80494FFF71CFFDDE903010C
:103A40000094CDE9011000230EA11048059A00F062
:103A500014F90F490028C86211D0502080F3118852
:103A6000BFF34F8FBFF36F8F4FF0FF30886201209D
:103A70004861CC6006B0BDE8104000F041B806B027
:103A800010BD000049444C45000000008934000886
:103A9000A40000200248016B491C0163704700002C
:103AA000A40000201448016B11B10121C1617047CD
:103AB0000021C1610169B1FA81F1C1F11F0101EB7E
:103AC00081020E4951F822306BB101EB820101F104
:103AD00008034A6852684A609A4201D152684A60B3
:103AE000D16801607047502080F31188BFF34F8F79
:103AF000BFF36F8FFEE70000A40000202C09002018
:103B00001CB537480168374A914207D1502080F3ED
:103B10001188BFF34F8FBFF36F8FFEE70068314905
:103B2000491E884207D1502080F31188BFF34F8F80
:103B3000BFF36F8FFEE72C4908780190FF200870D3
:103B400008788DF800009DF800009DF8002000F036
:103B5000F000904207D0502080F31188BFF34F8FC0
:103B6000BFF36F8FFEE79DF80000204C00F050007F
:103B700020700720A06005E09DF8002052008DF81D
:103B80000020401E9DF800201206F5D4A0600328F6
:103B900007D0502080F31188BFF34F8FBFF36F8F92
:103BA000FEE74FF44070A060019808700C48203088
:103BB000016841F470010160016841F070410160E9
:103BC000FFF7FAFE00206060FCF764FB084801681C
:103BD00041F040410160FCF749FB00201CBD0000A2
:103BE00000ED00E071C20F4100E400E000010020A0
:103BF00034EF00E010B5502080F31188BFF34F8FF1
:103C0000BFF36F8F00F072F818B104494FF0805085
:103C10000860002080F3118810BD000004ED00E072
:103C20002DE9FF5F8346DDE90E87994616468A46F1
:103C30009000FFF7F1FC05001CD05420FFF7ECFCCE
:103C4000040014D00020256384F85100CDE902401F
:103C5000CDE900874B46324651465846FFF744FCB3
:103C60002046FFF769FB012004B0BDE8F09F28461D
:103C7000FFF770FE4FF0FF30F6E7F0B585B0DDE9F5
:103C80000B640A9DA6B1DCB1542700972663022677
:103C900084F85160002604AFCDE90246CDE9005713
:103CA000FFF722FC2046FFF747FB049805B0F0BD64
:103CB000502080F31188BFF34F8FBFF36F8FFEE763
:103CC000502080F31188BFF34F8FBFF36F8FFEE753
:103CD0000548416919B1006B18B1002070470120F7
:103CE0007047022070470000A40000202DE9F04139
:103CF0002F4C0026206B28B1A069401CA0613046E3
:103D0000BDE8F081E5686D1CE56013D1606B00686B
:103D100038B1502080F31188BFF34F8FBFF36F8FFE
:103D2000FEE7606BA16B6163A063206A401C2062A8
:103D3000FFF74EFCA06ADFF87C80854209D3606BF8
:103D40000068A0B1606BC068C7687868854211D20E
:103D5000A0622068C06A00EB800158F821000128A9
:103D600000D90126E0690028C9D00126C7E74FF035
:103D7000FF30EDE7381DFFF769FDB86A18B107F1AC
:103D80001800FFF763FDF96A01202269884010439B
:103D9000206101EB810108EB8100391DFFF79AFDDD
:103DA000F86A2168C96A8842C9D30126C7E70000BA
:103DB000A40000202C0900202DE9F0472C4D002400
:103DC0002746286B38B1FFF791FD286B401E28630A
:103DD000286B40B146E0502080F31188BFF34F8F2D
:103DE000BFF36F8FFEE7A968224E0120D1B3A6F181
:103DF000B40980463068E8B1F068C46804F118007E
:103E0000FFF724FD201DFFF721FDE06A2A6908FA6B
:103E100000F11143296100EB800109EB8100211DB4
:103E2000FFF758FDE06A2968C96A8842E2D3C5F8FD
:103E30001C80DFE70CB1FFF7CBFBAC6944B1464611
:103E4000FFF754FF00B1EE61641EF9D10020A861B4
:103E5000E86938B10849012738070860BFF34F8F78
:103E6000BFF36F8FFFF762FD3846BDE8F0870000B3
:103E7000A4000020E009002004ED00E04FF04070B5
:103E8000E1EE100A70470000403F00087925000865
:103E900000000000000000008000000000000000A2
:103EA00000000000103F0008E52D0008FEFF0000A4
:103EB0000000000080000000000000000000000082
:103EC000203F000875240008FEFF000000000000ED
:103ED000800000000000000000000000303F0008EB
:103EE0000B2C000802000000000000008000000011
:103EF00000000000000000000000000000000000C2
:103F0000010203040607080900000000010203047F
:103F1000436861737369735461736B48616E6400C5
:103F2000535230345461736B48616E646C650000A9
:103F3000576946695461736B48616E646C65000033
:103F400064656661756C745461736B006C3F000846
:103F5000000000200C010000E80100087840000883
:103F60000C010020744B0000040200080000000057
:103F700000000000500000000000000000000000F1
:103F8000000000000000000000641E0A00000000A5
:103F90000000000000000000000000000000000021
:103FA000000000000000000000000000010101000E
:103FB0000000000000000000000000000000000001
:103FC00000000000000000000000000000000000F1
:103FD00000000000000000000000000000000000E1
:103FE00000000000000000000000000000000000D1
:103FF00000000000000000002C010000102700005D
:104000000100000010000000000000000024F40087
:1040100000000000000000000000000000000000A0
:104020000000000000000000000000000000000090
:104030000000000000000000000000000000000080
:104040000000000000000000000000000000000070
:104050000000000000000000000000000000000060
:104060000000000000000000000000000000000050
:08407000AAAAAAAA00000000A0
:04000005080001AD41
:00000001FF
