:020000040800F2
:10000000F04700200D030008EB2200085D1E0008E9
:10001000E922000829070008FD2800080000000068
:100020000000000000000000000000004D02000879
:10003000B507000800000000A90200083D240008E0
:1000400027030008270300082703000827030008E8
:1000500027030008270300082703000827030008D8
:1000600027030008270300082703000827030008C8
:1000700027030008270300082703000827030008B8
:1000800027030008270300082703000827030008A8
:10009000270300082703000827030008B707000804
:1000A0002703000827030008270300082703000888
:1000B000270300080125000827030008270300087C
:1000C0002703000827030008270300082703000868
:1000D0002703000827030008270300082703000858
:1000E0002703000827030008270300082703000848
:1000F0002703000827030008270300082703000838
:100100002703000827030008270300082703000827
:100110002703000827030008270300082703000817
:100120002703000827030008270300082703000807
:1001300027030008270300082703000827030008F7
:1001400027030008270300082703000827030008E7
:1001500027030008270300082703000827030008D7
:1001600027030008270300082703000827030008C7
:1001700027030008270300082703000800000000E9
:1001800027030008270300082703000827030008A7
:100190002703000827030008270300082703000897
:1001A00027030008270300082703000800F002F8CF
:1001B00000F03CF80AA090E8000C82448344AAF1C5
:1001C0000107DA4501D100F031F8AFF2090EBAE8C3
:1001D0000F0013F0010F18BFFB1A43F0010318477B
:1001E0005C3A00007C3A0000103A24BF78C878C11D
:1001F000FAD8520724BF30C830C144BF04680C602D
:10020000704700000023002400250026103A28BF74
:1002100078C1FBD8520728BF30C148BF0B60704778
:100220001FB503F073FC1FBD10B510BD00F061F9E0
:100230001146FFF7F5FF02F0CFFC00F07FF903B4A1
:10024000FFF7F2FF03BC00F087F900002C4B1968A0
:100250000868B0E8F04F80F30988BFF36F8F4FF064
:10026000000080F311887047000000000848006813
:10027000006880F308884FF0000080F3148862B6AD
:1002800061B6BFF34F8FBFF36F8F00DF00BF00BFBA
:1002900008ED00E0DFF80C00016841F47001016036
:1002A000704700BF88ED00E0EFF30980BFF36F8F68
:1002B000134B1A681EF0100F08BF20ED108A20E9BA
:1002C000F04F106009B44FF0500080F31188BFF375
:1002D0004F8FBFF36F8F03F0EBF84FF0000080F308
:1002E000118809BC19680868B0E8F04F1EF0100FBB
:1002F00008BFB0EC108A80F30988BFF36F8F704796
:1003000078000020EFF3058070470000094880471F
:1003100009480047FEE7FEE7FEE7FEE7FEE7FEE7E7
:10032000FEE7FEE7FEE7FEE704480549054A064BFF
:1003300070470000F1240008AD010008F0410020E2
:10034000F0470020F0430020F043002053EA020C65
:1003500000F069802DE9F04B4FF00006002B1FBF25
:10036000B3FA83F503FA05F424FA05F65E4012BFEA
:100370001643B2FA82F502FA05F4C5F120051EBF54
:1003800022FA05FC44EA0C04203556EA044C4FEAF4
:10039000144418BF641C4FF000084FF0000990424D
:1003A00071EB030C39D3002919BFB1FA81F701FAB7
:1003B00007F6B0FA80F700FA07F6C7F120071EBF6C
:1003C00020FA07FC46EA0C062037B6FBF4FCA7EB44
:1003D0000507103F07F01F0BCBF120060CFA0BFBB3
:1003E0002CFA06F644BFB3460026202FA4BF5E4673
:1003F0004FF0000B5BEA060C08BF4FF0010B19EB46
:100400000B09ABFB027C48EB0608C01B06FB02CCC9
:100410000BFB03CC71EB0C01C1E70B4602464146D6
:100420004846BDE8F08B13B54FF000004FF00001D7
:10043000AFF30080BDE81C40704710B5203AC0F013
:100440000B80B1E81850203AA0E81850B1E81850D5
:10045000A0E81850BFF4F5AF5FEA027C24BFB1E812
:100460001850A0E8185044BF18C918C0BDE8104083
:100470005FEA827C24BF51F8043B40F8043B08BF8C
:100480007047D20728BF31F8023B48BF11F8012B53
:1004900028BF20F8023B48BF00F8012B70474FF0FF
:1004A000000200B5134694469646203922BFA0E8C4
:1004B0000C50A0E80C50B1F12001BFF4F7AF0907D0
:1004C00028BFA0E80C5048BF0CC05DF804EB8900C1
:1004D00028BF40F8042B08BF704748BF20F8022B04
:1004E00011F0804F18BF00F8012B7047704770471C
:1004F0007047754600F02CF8AE4605006946534635
:1005000020F00700854618B020B5FFF70DFFBDE8C5
:1005100020404FF000064FF000074FF000084FF06A
:10052000000B21F00701AC46ACE8C009ACE8C009FB
:10053000ACE8C009ACE8C0098D46704710B5044668
:10054000AFF300802046BDE81040FFF778BE000002
:10055000004870478C41002001491820ABBEFEE7DF
:100560002600020070470000464910B54A6822F490
:1005700040324A604A6843681A434A6001684A68E0
:1005800022F480724A6001684A68036942EA0322E1
:100590004A6001684A6822F040724A6001684A680D
:1005A00083681A434A6001688A6822F400628A609C
:1005B00001688A68C3681A438A60816A6FF0706252
:1005C000D14201688A6822F070628A6001688A6894
:1005D0000CD0836A1A438A6001688A6822F040520C
:1005E0008A6001688A68C36A1A4301E022F04052B7
:1005F0008A6001688A6822F002028A6001688A685B
:10060000037E42EA43028A6090F8201000290168C4
:100610004A680FD042F400624A6001684A6822F4D6
:1006200060424A6001684A68174C436A04EB4333EE
:100630001A4301E022F400624A600168CA6A22F4A7
:100640007002CA620168CA6A838B104C04EB0353C0
:100650001A43CA6201688A6822F400728A600168DB
:100660008A6890F8303042EA43228A6001688A68DA
:1006700022F480628A6001688A68406942EA8020C8
:10068000886010BD0023014000E0FFFF0000F0FF84
:100690001E4C1F4800F0DAFA32211D4800F080FAA3
:1006A0001B4800F01DFA80051ED5194800F01AFA03
:1006B00080B2608003F019F99FED161B53EC112BEB
:1006C00003F026F99FED151B53EC112B03F020F9D5
:1006D00003F0DAF86060B0F17E5F02DA012020708A
:1006E00005E0002020700DE0207801280AD10D4897
:1006F000007838B94FF47A75284602F01FFB284677
:1007000002F01CFB012002F06FFEC2E70000002097
:10071000E00000206666666666660A40000000002B
:100720000000303F08000020FEE7000070B51D4CBF
:1007300001221103204600F050FC012280211A48BA
:1007400000F04BFC01221102184800F046FC002288
:100750008021204600F041FC154D00221021284642
:1007600000F03BFC00220121284600F036FC00226C
:100770000221284600F031FC00220221204600F030
:100780002CFC00220121204600F027FC0022082139
:10079000204600F022FC2046BDE8704000220421E3
:1007A00000F01BBC00000240001802400014024090
:1007B000000402407047202000F0E4BA70B590F8C1
:1007C0003C206A4D012A19D0012280F83C200A6899
:1007D00007230468092A13D9E6680A3A02EB4202A1
:1007E00093409E43E6600A788B680A3A02EB420225
:1007F00093400268D4682343D36010E0022070BDA8
:10080000266902EB420293409E4326610B788A6878
:1008100003EB43039A4003681C6922431A61026890
:10082000936B23F4401393630268936B0C8A504ECE
:1008300006EB0454234393630A790B7CD21AD21C2F
:1008400002EB82021F2393400268946B9C439463E3
:100850000A790B7CD21AD21C02EB82030A8892B26C
:100860009A4003689C6B22439A638A69AA42026891
:10087000936823F470239360026893680CD08C69AA
:10088000234393600268936823F4401393600268E3
:100890009368CC69234301E023F4401393604A7DBD
:1008A000002A0268536802D043F4806301E023F415
:1008B000806353600A7D002A0268536802D043F4C3
:1008C000805301E023F4805353604A68012A16D014
:1008D000022A1FD0032A026827D0136A6FF30B0382
:1008E00013620268136ACC6823431362224B0468C4
:1008F000204A9C4227D10C68122C20D023E00268A9
:1009000053696FF30B03536102685369CC68234347
:100910005361EBE7026893696FF30B03936102681D
:100920009369CC6823439361E0E7D3696FF30B03CA
:10093000D3610268D369CC682343D361D6E7546896
:1009400044F48004546004689C420AD10968A1F10F
:100950008053123B01D0112903D1516841F40001A9
:100960005160002180F83C10084670BD01000F0066
:100970000000F0FF002301400020014078B5002472
:10098000009490F83C20012A19D0012280F83C20E4
:100990000A6807230568092A13D9EE680A3A02EBA8
:1009A000420293409E43EE600B788A680A3B03EB59
:1009B00043039A400368DD682A43DA6010E00220AE
:1009C00078BD2E6902EB420293409E432E610B7864
:1009D0008A6803EB43039A4003681D692A431A613E
:1009E0004A681F23072A13D205686E6B521E02EB5A
:1009F000820293409E436E630A8893B20A79521E24
:100A000002EB820293400268556B2B43536327E04D
:100A100005680D2A12D22E6BD21F02EB8202934080
:100A20009E432E630B790A88DB1F92B203EB83038C
:100A30009A4003681D6B2A431A6311E0EE6A0D3A6F
:100A400002EB820293409E43EE620B790A880D3BD3
:100A500092B203EB83039A400368DD6A2A43DA62A9
:100A60001B4B0568194A9D420AD10D68122D07D10A
:100A7000556825F400055560556845F480055560B6
:100A800005689D421DD1134D0B68AB4201D0112B5F
:100A900017D1536823F480035360536843F4000371
:100AA00053600968A9420CD10B490C4A0968B1FB93
:100AB000F2F101EB8101490000E0491E009100299B
:100AC000FBD180F83C40002078BD000000230140AD
:100AD00000200140120000107400002040420F006E
:100AE000006C70470068C06C704770B504004FF030
:100AF000000503D0206C002610B107E0012070BD76
:100B0000204600F01DF8666484F83C60206CC00646
:100B100010D4206C20F4885040F00200206420465D
:100B2000FFF722FD6664206C20F0020040F0010017
:100B3000206400E0012584F83C60284670BD000078
:100B400010B586B0044614216846FFF7A8FC114989
:100B5000206888421CD110480021026842F480724B
:100B60000260006800F4807005900B481438026839
:100B700042F004020260006800F0040005902020AA
:100B800000900320CDE901016946044800F006F910
:100B900006B010BD00200140443802400008024069
:100BA0002DE9F041044600680D4681684FF00007CA
:100BB00049050BD58068C00508D5206C40F02000A1
:100BC000206484F83C700120BDE8F08100F00AFA4E
:100BD000064613E0681C11D025B100F003FA801B13
:100BE000A8420BD920680068800707D4206C40F029
:100BF0000400206484F83C700320E5E72068006866
:100C00008007E7D521686FF012000860206C40F47F
:100C1000007020642068816811F0405F13D1217E4C
:100C200089B9C16A11F4700F02D0806840050AD4F6
:100C3000206C20F480702064206CC00403D4206CED
:100C400040F0010020640020BEE7000018B500213C
:100C5000009190F83C20012A07D0012280F83C2026
:100C600002689368DB0702D011E0022018BD936888
:100C700043F0010393602E4A2E4B1268B2FBF3F24D
:100C800002EB420200E0521E0092002AFBD10268F1
:100C90009368DB0742D0036C40F20164A34343F442
:100CA0008073036453685B0505D5036C23F400531C
:100CB00043F480530364036CDB0404D5436C23F0DA
:100CC0000603436400E0416480F83C101A496FF069
:100CD0002203136049680068CA06184906D0884292
:100CE00024D1816811F0405F13D01FE08842F8D012
:100CF000134A904203D1D1F80423D206F1D0114A0D
:100D0000904213D1D1F8041301F01F011029E8D348
:100D10000CE0816841F08041816007E0016C41F0A6
:100D200010010164416C41F001014164002018BDD3
:100D30007400002040420F000023014000200140C9
:100D4000002101400022014070B5044600F04AF93C
:100D50000546601C02D004480078044400F042F9C3
:100D6000401BA042FAD370BD68000020202805D1A6
:100D700003480178002901D000210170704700006C
:100D800008000020044910B50A68024202D0086039
:100D9000FFF7ECFF10BD0000143C01402DE9F84FB7
:100DA000DFF8F8A10022012403254FF00F090AF112
:100DB000040BAAF1040E00BF0B6804FA02F63340DC
:100DC000B34270D10F7907F00307012F01D0022F32
:100DD00016D187684FEA420805FA08FC27EA0C0793
:100DE000D1F80CC00CFA08FC4CEA070CC0F808C09B
:100DF0004768B7430E79C6F3001696403E434660F7
:100E00000E79F643B6070AD0C7684FEA420C05FAD6
:100E10000CF6B7438E6806FA0CF63E43C6600E79B0
:100E200006F00306022E10D1D60800EB8608D8F88B
:100E3000206057074FEAD76C09FA0CF7BE430F69D9
:100E400007FA0CF73743C8F8207006684FEA420CDF
:100E500005FA0CF7BE430F7907F0030707FA0CF702
:100E6000374307604E6816F4403F1CD04C4E37683D
:100E700047F480473760366822F0030706F480465F
:100E80000096484E07EB060CDCF8086897073F0F02
:100E900009FA07F826EA0806DFF80C81404503D175
:100EA0004FF0000841E072E0DFF80081404502D1D8
:100EB0004FF0010839E0DFF8F880404502D14FF0EB
:100EC000020832E0DFF8EC80404502D14FF0030821
:100ED0002BE0DFF8E480404502D14FF0040824E025
:100EE000DFF8D880404502D14FF005081DE0DFF85B
:100EF000D080404502D14FF0060816E0DFF8C480EC
:100F0000404502D14FF007080FE0DFF8BC804045B4
:100F100002D14FF0080808E0DFF8B080404502D168
:100F20004FF0090801E04FF00A0808FA07F848EA0C
:100F30000608CCF80888DAF800605746D1F804C0F3
:100F40009E435FEACC2C00D51E433E60DBF8006078
:100F50005F46D1F804C09E435FEA8C2C00D51E4347
:100F60003E60DEF800607746D1F804C09E435FEA39
:100F70008C3C00D51E433E60084F083F3E68D1F8C8
:100F800004C09E435FEACC3C00D51E433E60521C29
:100F9000102AFFF411AFBDE8F88F0000083C0140B3
:100FA000443802400030014000000240000402408A
:100FB00000080240000C02400010024000140240F1
:100FC00000180240001C02400020024000240240A1
:100FD0000069084000D0012070470AB18161704764
:100FE0000904FBE7014880687047000068000020A2
:100FF00002488168027811448160704768000020CF
:101000000B4810B5016841F400710160016841F4BA
:1010100080610160016841F480710160032000F08B
:1010200073F80F2000F006F800F024F8002010BD3F
:10103000003C024070B50D4D04464FF47A7128789B
:10104000B1FBF0F00A490968B1FBF0F000F048FB91
:1010500048B9102C07D200222146501E00F034F867
:1010600000206C6070BD012070BD00006800002091
:10107000740000200C4882B0016841F48041016096
:10108000006800F4804000900748001F016841F0AC
:10109000805101600068002200F0805000900F2114
:1010A000901E02B000F010B844380240002809DB5E
:1010B00000F01F02012191404009800000F1E02072
:1010C000C0F8001170470000F0B40E4B1B680C46CE
:1010D000C3F30223C3F10705042D00D90425191D0C
:1010E000072901D2002300E0DB1E012606FA05F1E4
:1010F000491E214099409E40761E16403143F0BC67
:1011000001F005BC0CED00E0064900F0070208689C
:101110004FF6FF03184040EA0220034A10430860DC
:10112000704700000CED00E00000FA052DE9F843DF
:101130001748016841F0805101600068154F00F0C8
:101140008050012600903E64FFF74CFF05464FF4A7
:101150007A78114C05E000BFFFF744FF401B404583
:101160000DD86068C003F7D57E64FFF73BFF0546E6
:10117000464607E0FFF736FF401BB04202D9032086
:10118000BDE8F88360688003F4D50020F8E700002C
:101190004038024000000E42007000402DE9F04748
:1011A0000E46050065D0DFF81481D8F80000F7B2CC
:1011B00000F00F00B04207D288F80070D8F80000A5
:1011C00000F00F00B04254D128683D4C810712D581
:1011D000400703D5206840F4E050206028780007DD
:1011E00003D5206840F4604020602068A96820F0A2
:1011F000F000084320602878C0072DD03049686887
:101200000839012812D0022813D0032811D0096808
:10121000890700292DDA216821F0030101432160AB
:10122000FFF7E0FE814641F2883A0EE00968890343
:10123000EFE709688901ECE7FFF7D4FEA0EB0901AD
:10124000514502D90320BDE8F0872068696800F0A5
:101250000C00B0EB810FEFD1D8F80010404601F040
:101260000F01B14207D90770006800F00F00B042CB
:1012700001D00120E7E72878400705D52068E96814
:1012800020F4E050084320602878000706D5206845
:10129000296920F4604040EAC100206000F038F87D
:1012A0002168084AC1F30311515CC840064908602F
:1012B00006480068FFF7BEFE0020C4E7003C02407D
:1012C00008380240C83B0008740000206C00002071
:1012D0000448054900680968044AC1F38221515C49
:1012E000C84070477400002008380240D83B00080E
:1012F0000448054900680968044AC1F34231515C59
:10130000C84070477400002008380240D83B0008ED
:10131000154810B5006810F00C02144813D0144999
:10132000042A0FD0082A0ED10F4C241F22682368EC
:1013300002F03F025B0207D52068C0F38810A0FBD3
:10134000010106E0084610BD2168C1F38811A1FB28
:1013500000010023FEF7FAFF2168C1F30141491C97
:101360004900B0FBF1F010BD083802400024F40041
:1013700040787D012DE9F84F04006ED02078DFF829
:101380004C93C007A9F104054AD009F10400016893
:10139000C1F38101012908D00068C0F3810002284F
:1013A0000AD1D9F80000400206D52868800337D555
:1013B00060680028E1D033E06068B0F5803F10D06D
:1013C000B0F5A02F286810D020F48030286028685D
:1013D00020F4802028606068A8B1FFF703FE06466D
:1013E0000DE0286840F48030F4E740F48020286065
:1013F000F7E700BFFFF7F6FD801B642873D8286865
:101400008003F7D50CE0FFF7EDFD064605E000BFD1
:10141000FFF7E8FD801B6428F0D828688003F7D424
:101420002078DFF8AC8280074FF0000A3ED5A7484D
:10143000001D016811F00C0F08D00068C0F3810096
:1014400002280BD1D9F80000400207D42868800791
:1014500016D5E068012800D112E033E1E068B8B1A8
:101460000120C8F80000FFF7BDFD064605E000BFFB
:10147000FFF7B8FD801B0228C0D828688007F7D581
:101480002868216920F0F80040EAC10028600DE0DA
:10149000C8F800A0FFF7A6FD064604E0FFF7A2FD8E
:1014A000801B02281FD828688007F7D420780007FF
:1014B00022D5864F87486169703771B1012101607B
:1014C000FFF790FD064604E0FFF78CFD801B022825
:1014D00009D838688007F7D50EE0C0F800A0FFF7FC
:1014E00081FD064605E082E0FFF77CFD801B0228B7
:1014F0007DD838688007F7D42078400768D5DFF8B2
:10150000CCB100270BF13C0BDBF80000C0000BD482
:10151000DBF8001041F08051CBF80010DBF8000040
:10152000012700F0805000906B4E3068C00510D449
:10153000306840F480703060FFF754FD009005E0A3
:10154000FFF750FD0099401A022850D83068C005B6
:10155000F6D55E4EA0686C3601280FD0052830689D
:1015600010D020F001003060306820F004003060BE
:10157000A068B8B1FFF736FD00900FE0306840F08A
:101580000100F4E740F004003060F7E7FFF72AFDC0
:101590000099411A41F28830814266D8306880074C
:1015A000F4D50EE0FFF71EFD009007E0FFF71AFDEF
:1015B0000099411A41F28830814256D8306880073C
:1015C000F4D42FB1DBF8001021F08051CBF80010DB
:1015D000A069C8B33D49091D0968C1F38101022909
:1015E0004AD00228504607D0C8F8600000E03CE02E
:1015F000FFF7F8FC04463BE04746C8F86000FFF7F9
:10160000F1FC064605E000BFFFF7ECFC801B02285A
:101610002BD828688001F7D4D4E907010843A16AD0
:101620002E4A490802EB0141626A41EA82110843ED
:1016300094F82C1040EA0161C9F8001001203866C6
:10164000FFF7D0FC044606E03EE000BFFFF7CAFC0F
:10165000001B022809D828688001F7D534E000BFB4
:10166000FFF7C0FC001B022802D90320BDE8F88F59
:1016700028688001F4D427E00128F7D0D9F80000C9
:10168000E26900F4800191421CD1226A00F03F011E
:10169000914217D147F6C071626A0140B1EB821FD7
:1016A00010D1A26A4FF0FF3300F4403103EB520235
:1016B000B1EB024F06D194F82C1000F07060B0EB43
:1016C000016F01D00120D1E70020CFE704380240AC
:1016D00000004742800E4742007000400000FFFFBC
:1016E00010B5401EB0F1807F01D3012010BD4FF036
:1016F000E02460610F21601701F009F90020A0616A
:1017000007202061002010BD7047704770B590F829
:101710003C20012A32D0012480F83C40022280F88B
:101720003D2003685A689D6822F070060A683243BB
:101730005A60134B02689A4214D0B2F1804F11D014
:10174000104B9A420ED0104B9A420BD00F4B9A423C
:1017500008D00F4B9A4205D00E4B9A4202D00E4B46
:101760009A4204D1496825F080031943916080F8BA
:101770003D40002180F83C10084670BD022070BD3D
:10178000000001400004004000080040000C004040
:1017900000040140004001400018004010B5040062
:1017A00003D094F83D0010B107E0012010BD0020E7
:1017B00084F83C00204600F01FF8022084F83D0029
:1017C000211D206800F0A2FE012084F8460084F864
:1017D0003E0084F83F0084F8400084F8410084F81B
:1017E000420084F8430084F8440084F8450084F8FB
:1017F0003D00002010BD000008B501681648B1F199
:10180000804F14D0154A914219D1016841F002016C
:1018100001600068002200F00200009005211D20F8
:10182000FFF752FCBDE808401D20FFF73FBC0168F0
:1018300041F001010160006800F0010009E0084A80
:10184000914207D1016841F080010160006800F019
:101850008000009008BD00004038024000040040B5
:10186000001C004090F83D10012901D00120704774
:10187000022180F83D100168CA6842F00102CA6086
:1018800000681149884214D0B0F1804F11D00F493F
:1018900088420ED00E4988420BD00E49884208D0AB
:1018A0000D49884205D00D49884202D00C49884232
:1018B00004D1816801F00701062903D0016841F0D5
:1018C0000101016000207047000001400004004059
:1018D00000080040000C00400004014000400140AE
:1018E0000018004070B5044690F83C00002501281F
:1018F00017D0012684F83C60022084F83D0020685F
:10190000826822F0770222F47F42826008685028C1
:1019100038D00DDC20284FD005DC90B3102811D131
:101920004AE0022070BD302846D040280AD13BE072
:1019300060282FD070280DD0B0F5805F03D0B0F5AF
:10194000005F12D0012584F83D60002084F83C003F
:10195000284670BDCB68D1E90121206800F04FFE18
:101960002068816841F0770109E0CB68D1E9012165
:10197000206800F044FE2068816841F48041816065
:10198000E1E719E0CA684968206800F00DFF5021BE
:10199000206806E0CA684968206800F016FF6021E8
:1019A000206800F036FECEE7CA684968206800F07B
:1019B000FBFE40212068F4E7226801461046F0E76C
:1019C00070472DE9F04104460068C66805694FF08C
:1019D0000007A90713D5B10711D5F91E0161012030
:1019E0002077206880698007204602D0FFF7E8FF53
:1019F00004E000F0D1F8204600F063F9277768078B
:101A000016D5700714D521686FF004000861022014
:101A100020772068806910F4407F204602D0FFF7CD
:101A2000CFFF04E000F0B8F8204600F04AF927772D
:101A3000280715D5300713D521686FF00800086115
:101A4000042020772068C0698007204602D0FFF775
:101A5000B7FF04E000F0A0F8204600F032F9277745
:101A6000E80616D5F00614D521686FF0100008615D
:101A7000082020772068C06910F4407F204602D0FB
:101A8000FFF79EFF04E000F087F8204600F019F908
:101A90002777E80708D0F00706D021686FF001002B
:101AA0000861204600F072F9280608D5300606D5F0
:101AB00021686FF0800008612046FFF725FE680668
:101AC00008D5700606D521686FF0400008612046F1
:101AD00000F05DF9A8060AD5B00608D521686FF0B8
:101AE000200008612046BDE8F041FFF70EBEBDE8CA
:101AF000F081000030B587B0044614216846FEF737
:101B0000CEFC22680024204902252048B2F1804FF3
:101B100028D01F4B9A4223D10A6842F001020A6082
:101B20000A6802F0010205920A6842F002020A60A5
:101B3000096801F00201059180210091CDE901546D
:101B40006946CDE90345FFF729F913200090CDE957
:101B5000015410486946CDE9034500BFFFF71EF95F
:101B600007B030BD0A6842F001020A60096801F05E
:101B7000010105910F210091CDE901540121CDE929
:101B800003416946EAE700003038024000000240A5
:101B90000004004000040240704770B5044690F80D
:101BA0003C0000260D4601280FD0012084F83C009F
:101BB0006AB1042A1DD0082A2FD00C2A3FD0012652
:101BC000002084F83C00304670BD022070BD2068C3
:101BD00000F028FD2068816941F0080181612068DA
:101BE000816921F004018161206881692A691143BA
:101BF00011E0206800F046FD2068816941F4006131
:101C000081612068816921F4806181612068816936
:101C10002A6941EA02218161D2E7206800F068FD6B
:101C20002068C16941F00801C1612068C16921F0E3
:101C30000401C1612068C1692A69114311E020686B
:101C400000F08AFD2068C16941F40061C16120682B
:101C5000C16921F48061C1612068C1692A6941EAD2
:101C60000221C161ACE710B5040003D094F83D0037
:101C700010B107E0012010BD002084F83C00204690
:101C800000F01EF8022084F83D00211D206800F0BD
:101C90003DFC012084F8460084F83E0084F83F00B3
:101CA00084F8400084F8410084F8420084F843003E
:101CB00084F8440084F8450084F83D00002010BDFD
:101CC0007047704710B50446022249B104290ED06E
:101CD000082913D094F84100012816D0012010BD26
:101CE00094F83E000128F9D184F83E200FE094F8E2
:101CF0003F000128F2D184F83F2008E094F840002A
:101D00000128EBD184F8402001E084F84120012231
:101D1000206800F067FC16492068164A884201D006
:101D2000904203D1436C43F40043436420688842EB
:101D300013D0B0F1804F10D00F4988420DD00F4919
:101D400088420AD00E49884207D0904205D00D49FA
:101D5000884202D00C49884204D1816801F0070111
:101D6000062903D0016841F001010160002010BD87
:101D70000000014000040140000400400008004051
:101D8000000C0040004001400018004070477047C0
:101D900070B5040004D094F84100002510B106E0AD
:101DA000012070BD84F84050204600F023F8242024
:101DB00084F841002068C16821F40051C1602046C8
:101DC00000F016FD2068016921F49041016120684E
:101DD000416921F02A0141612068C16841F4005144
:101DE000C1606564202084F8410084F84200656386
:101DF000002070BD10B586B0044614216846FEF779
:101E00004EFB13492068884220D112480021026805
:101E100042F080420260006800F0804005900D486A
:101E20001038026842F020020260006800F02000D2
:101E30000590C02000900220CDE90101032003900D
:101E40000820049069460448FEF7A8FF06B010BDBC
:101E5000007800404038024000140240FEE70000D5
:101E60000649896841436420B1FBF0F104480268E7
:101E7000D163006800210164704700000800002061
:101E800070010020064900220B68DA63054A0968E0
:101E9000926842436420B2FBF0F00864704700008F
:101EA0007001002008000020064989684143642031
:101EB000B1FBF0F1044802689163006800214163BE
:101EC0007047000008000020700100200649002231
:101ED0000B689A63054A0968926842436420B2FB22
:101EE000F0F04863704700007001002008000020F7
:101EF00070B58CB00024089409940A942021684697
:101F00000B94FEF7CCFA1E481C49012501604FF4E2
:101F10008031C0E901140461047680F82040194939
:101F2000C0E90A14C561C46080F830404561FEF71D
:101F3000DCFD08B172B6FEE70F260896CDE909541C
:101F400008A90F48FEF71AFD08B172B6FEE7CDE901
:101F500000650D480294CDE906048DF815400495FE
:101F60008DF81440694606480394FEF727FC0028C4
:101F700001D072B6FEE70CB070BD00000020014039
:101F8000E00000200100000F01000F002DE9F04FDC
:101F900087B014216846FEF782FA68480024016879
:101FA00041F010010160016801F010010591016824
:101FB00041F020010160016801F0200105910168F4
:101FC00041F080010160016801F080010591016824
:101FD00041F001010160016801F001010591016812
:101FE00041F004010160016801F0040105910168FC
:101FF00041F002010160016801F0020105910168F0
:1020000041F0400101600068DFF8349100F04000C9
:102010000590002204214846FEF7DFFFDFF824A1E7
:102020004FF4E066002231465046FEF7D6FF00220C
:1020300010214548FEF7D1FFDFF810B141F2080743
:10204000002239465846FEF7C8FF0022802140484A
:10205000FEF7C3FF4FF48058002241463D48FEF78B
:10206000BCFF042000900125CDE901546946484693
:102070000394FEF793FE202000904FF44410CDE926
:10208000010569464846FEF789FE0096CDE90154F0
:10209000694650460394FEF781FE10200090CDE97A
:1020A0000154694628480394FEF778FEA802CDE95A
:1020B00000040220029069465846FEF76FFE009722
:1020C000CDE90154694658460394FEF767FE4AF28B
:1020D0002000CDE90004694658460294FEF75EFEF2
:1020E00080200090CDE90154694619480394FEF719
:1020F00055FECDF80080CDE901546946154803949A
:10210000FEF74CFEE803CDE900046946114802944D
:10211000FEF744FE4FF4A050CDE9000469460A489A
:102120000294FEF73BFE002205211720FEF7CCFFAC
:102130001720FEF7BBFF07B0BDE8F08F3038024034
:102140000010024000140240000802400004024057
:10215000001802400000024010B58EB00024079421
:10216000089409940A940B941C2168460C94FEF779
:1021700096F92A484FF0804101602C21C0E90114F2
:1021800042F21071C0E903148461FFF707FB08B144
:1021900072B6FEE74FF48050079007A91F48FFF77B
:1021A000A1FB08B172B6FEE71C48FFF75CFD08B161
:1021B00072B6FEE70B940BA918480C94FFF7A6FA29
:1021C00008B172B6FEE76020CDE900040294002257
:1021D000694612480494FFF7E0FC08B172B6FEE7C6
:1021E000042269460D48FFF7D8FC08B172B6FEE735
:1021F000082269460948FFF7D0FC08B172B6FEE72D
:102200000C2269460548FFF7C8FC08B172B6FEE724
:102210000248FFF76FFC0EB010BD0000280100203F
:1022200010B58EB000240794089409940A940B9476
:102230001C2168460C94FEF732F92A4828490160AF
:102240002C21C0E9011442F21071C0E90314846129
:10225000FFF7A4FA08B172B6FEE74FF4805007907A
:1022600007A92048FFF73EFB08B172B6FEE71D48FC
:10227000FFF7F9FC08B172B6FEE70B940BA91948F9
:102280000C94FFF743FA08B172B6FEE76020CDE97F
:10229000000402940022694612480494FFF77DFC72
:1022A00008B172B6FEE7042269460E48FFF775FCD6
:1022B00008B172B6FEE7082269460A48FFF76DFCCE
:1022C00008B172B6FEE70C2269460648FFF765FCC6
:1022D00008B172B6FEE70348FFF70CFC0EB010BD64
:1022E0000004004070010020FEE7FEE7064989680F
:1022F00041436420B1FBF0F1044802689163006837
:1023000000214163704700000800002028010020E0
:10231000064900220B689A63054A0968926842439D
:102320006420B2FBF0F048637047000028010020F1
:1023300008000020064900220B681A64054A096853
:10234000926842436420B2FBF0F0C863704700001B
:1023500028010020080000200649896841436420C4
:10236000B1FBF0F104480268116400680021C16308
:10237000704700000800002028010020962001F08E
:1023800033F82948FFF76EFA284D294C4FF480574F
:102390002E15002239462846FEF71FFE0122394637
:1023A0002846FEF71AFE0F2000F0F4FB0022394603
:1023B0002846FEF712FE31462846FEF709FE0028A1
:1023C000F9D00020C4E902000AE000BFD4E902010C
:1023D000401C41F10001C4E90201012000F0DAFBD8
:1023E00031462846FEF7F4FD0128EFD0D4E9021269
:1023F00040F6D860C4E90412081A72F100000FD246
:102400004FF4AD73A1FB030E02FB03E24FF0000C8F
:1024100001FB0C214FF4FA626346FDF797FF606001
:10242000012000F0E1FFB4E7700100200004024049
:1024300038000020012000F081FCFBE710B5FEF71A
:10244000D7FD01F04BF9012803D0BDE8104001F0A1
:10245000D7B810BD70B592B030216846FEF71FF8AE
:1024600014210CA8FEF71BF81F480025016841F055
:1024700080510160006800F0805011901B48016895
:1024800041F4404101600068022400F44040119092
:1024900001200090000401908001CDE906400F2644
:1024A0000896D820CDE9090404200B906846FEF771
:1024B00061FF08B172B6FEE7FEF738FE08B172B6EA
:1024C000FEE74FF4A050CDE90E504FF48050CDE917
:1024D0000C64109005210CA8FEF760FE002801D0C6
:1024E00072B6FEE712B070BD403802400070004086
:1024F0000248016841F470010160704788ED00E016
:102500000148FFF75EBA000070010020F0B50268D4
:10251000294C2A4D2A4E2B4F2B4B4FF0804CA0427A
:1025200009D0604507D0A84205D0B04203D0B842D8
:1025300001D0984204D122F0700E4A6842EA0E029D
:10254000A0421BD0604519D0A84217D0B04215D088
:10255000B84213D0984211D01C4DA8420ED01C4D49
:10256000A8420BD01B4DA84208D01B4DA84205D055
:102570001A4DA84202D01A4DA84203D122F4407548
:10258000CA682A434D6922F080022A4302608A68A1
:10259000C2620A688262A04201D0984201D10969F0
:1025A0000163012141610169C90703D0016921F07B
:1025B00001010161F0BD0000000001400004004085
:1025C00000080040000C00400004014000400140B1
:1025D000004401400048014000180040001C004039
:1025E0000020004010B501F01F030121046A99404A
:1025F0008C430462016A9A401143016210BD10B518
:10260000846842EA032224F47F440A43224382601E
:1026100010BD826822F070020A4342F00701816017
:1026200070470000F0B5036A026A22F001020262FC
:1026300042688469124E24F073050C682C4323F021
:1026400002058B682B430D4DA84201D0B04205D145
:1026500023F00807CB683B4323F00403A84201D0D2
:10266000B04205D14D6922F4407215438A692A436C
:1026700042608461496841630362F0BD000001402B
:1026800000040140F0B5026A036A23F010030362FC
:10269000436884690D6824F4E64444EA05248D689F
:1026A00022F0200242EA05120F4D104EA84201D03E
:1026B000B04206D1CF6822F0800242EA071222F02F
:1026C0004002A84201D0B04207D14D6923F44063D3
:1026D00043EA85038D6943EA850343608461496861
:1026E00081630262F0BD000000000140000401406F
:1026F000F0B5026A036A23F4807303624368C46915
:1027000022F4007224F073050C68124E2C438D687D
:1027100042EA05220E4DA84201D0B04206D1CF6850
:1027200022F4006242EA072222F48062A84201D029
:10273000B04207D14D6923F4405343EA05138D6934
:1027400043EA05134360C4614968C1630262F0BD96
:10275000000001400004014030B5046A026A22F41E
:10276000805202624268C3690D6823F4E64343EA7B
:1027700005238D6824F4005444EA0534084DA8422A
:1027800002D0084DA84204D14D6922F4804242EAA9
:1027900085124260C36149680164046230BD000073
:1027A000000001400004014010B5036A046A24F0EF
:1027B00001040462846924F0F00444EA021423F062
:1027C0000A020A438461026210BD10B5036A046AFA
:1027D00024F010040462846923F0A00324F47044FC
:1027E00044EA023243EA01118261016210BD000035
:1027F00070B5044600680169E26821F44051114354
:1028000001612169A068E2690843616911430843D5
:102810002168CA6849F20C639A430243CA6020687F
:102820004169A26921F44071114341613149206835
:10283000884202D03049884202D1FEF759FD01E0BA
:10284000FEF746FDE2690023192164253226B2F520
:10285000004F626828D0A0FB0101930F9200FDF7A2
:1028600075FD0146B0FBF5F06FF01802504301EB27
:10287000800006EB0010B0FBF5F000F0F002B1FBB9
:10288000F5F002EB0012B1FBF5F06FF018035843BE
:1028900001EB800006EB0010B0FBF5F000F00F003C
:1028A00021681044886070BDA0FB010192185B4153
:1028B000FDF74CFD0146B0FBF5F00201B1FBF5F070
:1028C0006FF01803584301EB800006EBC000B0FB2B
:1028D000F5F000F0F80002EB4002B1FBF5F05843D0
:1028E00001EB800006EBC000B0FBF5F000F0070044
:1028F000D6E700000010014000140140FEE700F0A0
:10290000CFFD00F05FFF012000F06EFDF7E7090743
:10291000090E002804DB00F1E02080F80014704765
:1029200000F00F0000F1E02080F8141D7047000057
:1029300010B5074CE068FFF7B7FAE068FFF790FAC8
:10294000E068FFF7F7FCE068BDE81040FFF7CEBC99
:10295000080000202DE9F0413D4CA4F1100528E0CD
:10296000686800284FF064000BDBFFF79DFA6420D5
:10297000FFF776FA6420FFF7EFFC6420FFF7ECFC2A
:102980000AE0FFF7A3FA6420FFF77CFA6420FFF760
:10299000D1FC6420FFF7CEFC00F036FC6078217893
:1029A00000EB4100E178401A2179494200EB4100F7
:1029B0006860207840B9607830B9A07820B9E078B4
:1029C00010B920790028CBD06078217800EB410045
:1029D000E178401A21791E4C494200EB410018343D
:1029E00068602068A4F11006A4F1080720B9FEF77A
:1029F000F9FA206030683860606820B9FEF7F2FAB2
:102A00006060706878606868C01C07281BD2DFE8C7
:102A100000F01513110D08060400032002E0022047
:102A200000E00120BDE8F04100F058B8BDE8F041F9
:102A3000FFF77EBF012002E0022000E00320BDE896
:102A4000F04100F077B8BDE8F04100F003B80000B5
:102A50001800002070B5164C002280212046FEF799
:102A6000BCFA144D002210212846FEF7B6FA0022C7
:102A700001212846FEF7B1FA002202212846FEF77E
:102A8000ACFA002208212046FEF7A7FA0022042112
:102A90002046FEF7A2FA002202212046FEF79DFA08
:102AA0002046BDE8704000220121FEF796BA0000E2
:102AB0000000024000040240962000F095FC064C05
:102AC00000F0A2FB2078012801D0FFF743FF01208E
:102AD00000F08AFCF4E700000800002000B501289F
:102AE00011D002281AD0032823D10A20FFF7EEF9CB
:102AF0000A20FFF7C7F92820FFF71CFC28205DF803
:102B000004EBFFF7F3BB2820FFF7CEF92820FFF7EF
:102B1000A7F95720FFF70EFC5720F0E72820FFF712
:102B2000D5F92820FFF7AEF95020FFF703FC50201D
:102B3000E5E700BD00B5012811D002281DD003280B
:102B400026D12820FFF7B0F92820FFF789F90A20BD
:102B5000FFF702FC0A205DF804EBFFF7D9BB572012
:102B6000FFF7A2F95720FFF77BF92820FFF7E2FBD8
:102B700028205DF804EBFFF7B9BB5020FFF794F96C
:102B80005020FFF76DF92820FFF7E6FB2820E2E749
:102B900000BD000070B54FF0E024002265690949CE
:102BA000A36909784843A1699942FCD002D2A3EBFA
:102BB000010302E0A5EB010633441A440B468242AE
:102BC000F1D370BD3800002000F06AFC00F0FAFD7F
:102BD000012000F009FCF7E7AAB0FEF711FAFFF7B1
:102BE00039FCFFF7D3F9FFF783F94D484B4900242F
:102BF00001604FF4E131C0E901140C21C460C0E967
:102C000004418461C461FFF7C3F808B172B6FEE7FE
:102C1000434844494838C0E9001441F29311C0E9DF
:102C2000024104618461FEF7B9FD08B172B6FEE7A6
:102C3000FFF7F6FAFFF790FA39480021D838FFF786
:102C400041F837480421D838FFF73CF834480821C8
:102C5000D838FFF737F832480C21D838FFF732F868
:102C60002F4800219038FFF72DF82D480421903887
:102C7000FFF728F82A4808219038FFF723F828485A
:102C80000C219038FFF71EF8FDF750FD1C22264955
:102C90006846FDF7D2FB0021684600F05BF8234C44
:102CA00021491C2220601C3107A8FDF7C6FB00212A
:102CB00007A800F04FF81C4960601C2238310EA8AC
:102CC000FDF7BBFB00210EA800F044F81649A060F8
:102CD0001C22543115A8FDF7B0FB002115A800F007
:102CE00039F81149E0601C2270311CA8FDF7A5FBE2
:102CF00000211CA800F02EF80B4920611C228C3109
:102D000023A8FDF79AFB002123A800F023F86061B7
:102D100000F01BF80120FEF717F8FBE700780040F1
:102D200000020020001C0040203B00085000002052
:102D300001460020842900D0C81C704710B500B996
:102D4000012000F051FB002010BD10B500F072FB17
:102D5000002010BD7FB50D4604464169B0F908005A
:102D600081B1A16971B1FFF7E3FFD4E905128DE8E4
:102D70000700D4E900102B46226900F084FC039080
:102D800004B070BDFFF7D4FF03A9CDE90001208A8C
:102D90002B4682B2D4E9001000F048FC012801D093
:102DA0000020EDE70398EBE72DE9F0411A4C0F46C0
:102DB0000546E6682168002081F852002068001D61
:102DC00000F04AFA38B9206890F82C1001208840A9
:102DD000216981432161681C07D137B12168BDE8B1
:102DE000F0410E48091D00F07BBA20683544B54219
:102DF0004560216805D2A06BBDE8F041091D00F0D7
:102E000057BA606B091D00F053FAA06A854200D2E0
:102E1000A562BDE8F0810000780000207805002060
:102E20002DE9F041054600F067FA2E4CA068401CE1
:102E3000A06020682C4F10B1606940B32DE0256080
:102E4000A068012829D1002606EB860007EB800048
:102E500000F020FA761C072EF6D323488C3000F0C1
:102E600019FA2148A03000F015FA1F48B43000F0DC
:102E700011FA1D48C83000F00DFA1B48DC3000F094
:102E800009FA19488C3060631430A06305E02068AB
:102E9000E96AC06A884200D82560606A401C6062A6
:102EA000E96A0120226988401043206101EB81001A
:102EB00007EB8000291D00F013FA00F03DFA60696D
:102EC00000280CD02068E96AC06A884207D2074906
:102ED0004FF080500860BFF34F8FBFF36F8FBDE896
:102EE000F0810000780000209C04002004ED00E048
:102EF00010B5044690F8510058B101280CD00228B2
:102F00000FD0502080F31188BFF34F8FBFF36F8F26
:102F1000FEE7206B00F024FA2046BDE8104000F0E8
:102F20001FBA10BD10484FF47051420706D0C01DA3
:102F30000D4920F00700411AC1F570510B4A0023DA
:102F40000144C2E900030839183A21F00701116071
:102F50004B600B600B1AC0E9001393604FF0004008
:102F600053605061704700008C050020CC000020A9
:102F7000144E154CA6F1C8074FF08058DFF84C905E
:102F800012E000BF00F0B8F9F068C568281D00F035
:102F900063F9A068401EA0606068401E606000F099
:102FA000CBF92846FFF7A4FF60680028EAD138680B
:102FB0000128F9D9C9F80080BFF34F8FBFF36F8F95
:102FC000F2E70000640500207800002004ED00E036
:102FD0002DE9F0479A46DDE9098481466FF0030345
:102FE000206B03EB82021044089E20F0070778074D
:102FF00007D0502080F31188BFF34F8FBFF36F8F3E
:10300000FEE7002561B1002023180A5C83F8342014
:103010000A5C12B1401C1028F6D384F8435001E03A
:1030200084F83450072E00D30626E662C4E9116501
:10303000201D00F03AF904F1180000F036F924617F
:10304000C6F107006462A061E56484F8505084F81A
:10305000525052464946384600F0C0F82060B8F158
:10306000000F01D0C8F80040BDE8F08730B5114925
:1030700000E011460A688242FBD34B685C18844228
:1030800003D1406818444860084643681C189442BD
:1030900009D1084C183C2468A24209D052681A444D
:1030A00042600A6812680260814200D0086030BD48
:1030B0000460F9E7CC0000200648416B096829B19B
:1030C000416BC968C9684968816270474FF0FF3138
:1030D000FAE700007800002008484068401C4FF0E4
:1030E000500080F3118804D0BFF34F8FBFF36F8F70
:1030F000FEE7BFF34F8FBFF36F8FFEE7D4000020D2
:103100002DE9F0410546002700F0CAF9324E30683B
:1031100008B9FFF707FF706905424ED1C5B30835FE
:1031200068070ED005F00700C0F1080005446807E5
:1031300007D0502080F31188BFF34F8FBFF36F8FFC
:10314000FEE72DB37068854237D823481830014612
:103150000C6801E020460C466168A94202D2216851
:103160000029F7D131688C4227D0076821680160B7
:1031700060680837411B10290FD96019420708D031
:10318000502080F31188BFF34F8FBFF36F8FFEE79E
:1031900013E041606560FFF769FF61687068401A7D
:1031A0007060B268904200D2B06070690143002044
:1031B000C4E90001F068401CF06000F003FB7807F0
:1031C00007D0502080F31188BFF34F8FBFF36F8F6C
:1031D000FEE73846BDE8F081B400002010B5031FBB
:1031E0004FF080741C601B1F21F001011960191F32
:1031F000044B0B6014390A60091F6FF00202443857
:103200000A6010BDD930000870B54FF4004529465A
:103210000D48FDF7DDFE0D4C0D4E69112070304656
:10322000FDF7D6FE6070E9103046FDF7D1FE094E7D
:10323000A070A9103046FDF7CBFEE070294630465D
:10324000FDF7C6FE207170BD00000240180000208E
:103250000008024000040240D0E9013201699A608E
:10326000D0E901235A604A68824201D182684A60EB
:10327000002202610868401E08600868704700006C
:10328000034B036003F15400086080201060704716
:103290004802002000F108014FF0FF32C0E901129E
:1032A000C160016100210160704700210161704728
:1032B00030B50B685A1C02D000F1080202E0026926
:1032C00004E02246546825689D42FAD953684B6051
:1032D00099608A60516008610168491C016030BDD5
:1032E00042684A6093688B60936859609160086196
:1032F0000168491C01607047502080F31188BFF3BA
:103300004F8FBFF36F8F0A494868401C48600128FF
:103310000CD10848006810F0FF0F07D0502080F350
:103320001188BFF34F8FBFF36F8FFEE77047000028
:10333000D400002004ED00E00849486828B1401E90
:10334000486001D180F311887047502080F31188C4
:10335000BFF34F8FBFF36F8FFEE70000D400002054
:1033600070B500282AD0164DA0F10804606869697C
:10337000084207D1502080F31188BFF34F8FBFF36D
:103380006F8FFEE722683AB1502080F31188BFF3B7
:103390004F8FBFF36F8FFEE78843606000F080F8C7
:1033A00060686968084468602046FFF75FFE286926
:1033B000401C2861BDE8704000F004BA70BD0000F8
:1033C000B40000204FF0E020002101618161054937
:1033D0004FF47A720968B1FBF2F1491E416107218D
:1033E000016170477400002010B5020014D00F482E
:1033F000006B38B1502080F31188BFF34F8FBFF3BB
:103400006F8FFEE700F04CF800211046FFF7CCFC70
:1034100000F0D8F9002807D105494FF08050086026
:10342000BFF34F8FBFF36F8F10BD000078000020F7
:1034300004ED00E010B586B00024039405AA04A9A9
:1034400003A80494FFF71CFFDDE903010094CDE914
:10345000011000230EA11048059A00F014F90F493D
:103460000028C86211D0502080F31188BFF34F8F1D
:10347000BFF36F8F4FF0FF30886201204861CC604E
:1034800006B0BDE8104000F041B806B010BD000025
:1034900049444C4500000000712F000878000020CE
:1034A0000248016B491C016370470000780000204E
:1034B0001448016B11B10121C16170470021C16144
:1034C0000169B1FA81F1C1F11F0101EB81020E49DD
:1034D00051F822306BB101EB820101F108034A6817
:1034E00052684A609A4201D152684A60D1680160CC
:1034F0007047502080F31188BFF34F8FBFF36F8F59
:10350000FEE70000780000209C0400201CB537482E
:103510000168374A914207D1502080F31188BFF3E8
:103520004F8FBFF36F8FFEE700683149491E884215
:1035300007D1502080F31188BFF34F8FBFF36F8FF7
:10354000FEE72C4908780190FF20087008788DF874
:1035500000009DF800009DF8002000F0F00090426F
:1035600007D0502080F31188BFF34F8FBFF36F8FC8
:10357000FEE79DF80000204C00F05000207007206E
:10358000A06005E09DF8002052008DF80020401E4C
:103590009DF800201206F5D4A060032807D0502023
:1035A00080F31188BFF34F8FBFF36F8FFEE74FF4A7
:1035B0004070A060019808700C482030016841F408
:1035C00070010160016841F070410160FFF7FAFE8F
:1035D00000206060FCF75EFE0848016841F0404151
:1035E0000160FCF743FE00201CBD000000ED00E080
:1035F00071C20F4100E400E0D400002034EF00E08D
:1036000010B5502080F31188BFF34F8FBFF36F8F39
:1036100000F072F818B104494FF0805008600020A3
:1036200080F3118810BD000004ED00E02DE9FF5F7C
:103630008346DDE90E87994616468A469000FFF7D5
:103640005FFD05001CD05420FFF75AFD040014D084
:103650000020256384F85100CDE90240CDE90087C0
:103660004B46324651465846FFF7B2FC2046FFF71C
:10367000D7FB012004B0BDE8F09F2846FFF770FE9D
:103680004FF0FF30F6E7F0B585B0DDE90B640A9D39
:10369000A6B1DCB1542700972663022684F8516056
:1036A000002604AFCDE90246CDE90057FFF790FCB4
:1036B0002046FFF7B5FB049805B0F0BD502080F31D
:1036C0001188BFF34F8FBFF36F8FFEE7502080F359
:1036D0001188BFF34F8FBFF36F8FFEE70548416935
:1036E00019B1006B18B1002070470120704702200B
:1036F00070470000780000202DE9F0412F4C002693
:10370000206B28B1A069401CA0613046BDE8F08163
:10371000E5686D1CE56013D1606B006838B150201E
:1037200080F31188BFF34F8FBFF36F8FFEE7606B9D
:10373000A16B6163A063206A401C2062FFF7BCFCA0
:10374000A06ADFF87C80854209D3606B0068A0B175
:10375000606BC068C7687868854211D2A062206833
:10376000C06A00EB800158F82100012800D9012629
:10377000E0690028C9D00126C7E74FF0FF30EDE728
:10378000381DFFF769FDB86A18B107F11800FFF797
:1037900063FDF96A0120226988401043206101EB32
:1037A000810108EB8100391DFFF79AFDF86A216855
:1037B000C96A8842C9D30126C7E700007800002003
:1037C0009C0400202DE9F0472C4D00242746286B4F
:1037D00038B1FFF791FD286B401E2863286B40B17C
:1037E00046E0502080F31188BFF34F8FBFF36F8FF7
:1037F000FEE7A968224E0120D1B3A6F1B4098046A4
:103800003068E8B1F068C46804F11800FFF724FDDF
:10381000201DFFF721FDE06A2A6908FA00F1114333
:10382000296100EB800109EB8100211DFFF758FDA4
:10383000E06A2968C96A8842E2D3C5F81C80DFE7DC
:103840000CB1FFF739FCAC6944B14646FFF754FFB1
:1038500000B1EE61641EF9D10020A861E86938B1B9
:103860000849012738070860BFF34F8FBFF36F8FF8
:10387000FFF762FD3846BDE8F087000078000020C1
:103880005005002004ED00E021F00042A2F160525A
:10389000B2F5801F01F0004328BFD2F17F6C0BD935
:1038A0005FEA001C43EAC20242EB507018BF704747
:1038B00028BF20F001007047B2F5801FBCBF18463A
:1038C00070474FEA410C1CF5001F02D2084600F079
:1038D00022B970B500F0C6F800000089FFF7F6BF06
:1038E0004FF00040A0F580007047B0FA80F310FA66
:1038F00003F10AD0C3F11D0303F580634FEA415081
:103900004FEA035202EBD12170474FF0000070479D
:10391000DFF848C170B51CEA111E1EBF1CEA131562
:103920009EEA0C0F95EA0C0F00F06F8081EA030409
:1039300023EA4C134EEAD47E21EA4C1141F4801163
:1039400043F48013AE44A1FB024CA0FB0365AEF12F
:103950007F7E361955EB0C05A1FB034C4CF100039F
:10396000A0FB021C16EB0C06654153F10003094253
:1039700018BF46F0010613F4007F0BD14FEA033164
:103980004FEA0530340341EA155140EA16506FF012
:1039900003020AE04FEAC3214FEAC520F40241EADC
:1039A000555140EA56506FF0020202EB2E4201EBF5
:1039B000025585EACE710AD05FEA440C18BF24F0A4
:1039C000004450F1000041F1000120EAD47040F2BF
:1039D000FE7C624500D270BDA84214BF4FF0804407
:1039E0004FF04044002E08BF0024BEF1806FA8BFF6
:1039F000A1F1C041BDE8704080F282804FF000002C
:103A000001F1C04101F0004170479EEA0C0F0CEA41
:103A1000131518BF95EA0C0F06D04FF0000081EA8D
:103A2000030E0EF0004170BD00F01CF88900013E4D
:103A300000F007B800F009B84FEA430C5FEA5C5C9D
:103A400008D081EA030100F05BB84FEA410C5FEA5D
:103A50005C5CF6D14FF00000014970470000FF07A1
:103A60000000F87F0EF1020E2EF0030E5EF8046BDC
:103A7000364205D4012A43EB030515F5001F12D881
:103A8000012841EB010C1CF5001F0CD80ED14FEAA8
:103A9000D17C15F5001F0CEB4C0C0CF1020C08BF8F
:103AA0004CEBD37C04E04FF0080C01E04FEAD37CF0
:103AB0000CEB4C0526FA05F606F00706B6F1040CE9
:103AC00006D20EEB860CBDE870404CF0010C60474E
:103AD000DFE80CF0090B02024FF000414FF000004C
:103AE000A1F5002170BD19461046012851EB0104D3
:103AF00018BFD4F5001484BF002001F0004170BD50
:103B00000808A0F500114FEA310170474FF04070EE
:103B1000E1EE100A7047FF2141EAD050C00570471E
:103B2000303C0008352400080000000000000000C0
:103B3000800000000000000000000000E03B0008E2
:103B4000B92A0008FEFF000000000000800000000D
:103B50000000000000000000103C0008C92B000815
:103B600000000000000000008000000000000000D5
:103B700000000000003C0008910600080000000062
:103B800000000000800000000000000000000000B5
:103B9000F03B00087D230008FEFF0000000000004D
:103BA000800000000000000000000000203C000831
:103BB000FF28000802000000000000008000000054
:103BC00000000000000000000000000000000000F5
:103BD00001020304060708090000000001020304B3
:103BE000436861737369735461736B48616E6400F9
:103BF000535230345461736B48616E646C650000DD
:103C00004144435461736B48616E646C650000000D
:103C10004C45445461736B48616E646C65000000F0
:103C2000576946695461736B48616E646C65000046
:103C300064656661756C745461736B005C3C00086C
:103C400000000020E0000000E80100083C3D000802
:103C5000E0000020104700000402000800000000FF
:103C6000000000000100000000000000102700001C
:103C700050000000000000000000000000000000F4
:103C80000000000000000000000000000000000034
:103C90000000000000000000000000000000000024
:103CA0000000000000000000000000000000000014
:103CB0000000000000000000000000000000000004
:103CC00000000000010000001000000000000000E3
:103CD0000024F400000000000000000000000000CC
:103CE00000000000000000000000000000000000D4
:103CF00000000000000000000000000000000000C4
:103D000000000000000000000000000000000000B3
:103D100000000000000000000000000000000000A3
:103D20000000000000000000000000000000000093
:0C3D300000000000AAAAAAAA00000000DF
:04000005080001AD41
:00000001FF
