:020000040800F2
:10000000480700204D0200082F14000819120008AC
:100010002D1400086D050008C91600080000000036
:100020000000000000000000000000003314000881
:100030006F050008000000003114000835140008A6
:1000400067020008670200086702000867020008EC
:1000500067020008670200086702000867020008DC
:1000600067020008670200086702000867020008CC
:1000700067020008670200086702000867020008BC
:1000800067020008670200086702000867020008AC
:10009000670200086702000867020008670200089C
:1000A000670200086702000867020008670200088C
:1000B000670200086702000867020008670200087C
:1000C000670200086702000867020008670200086C
:1000D000670200086702000867020008670200085C
:1000E000670200086702000867020008670200084C
:1000F000670200086702000867020008670200083C
:10010000670200086702000867020008670200082B
:10011000670200086702000867020008670200081B
:10012000670200086702000867020008670200080B
:1001300067020008670200086702000867020008FB
:1001400067020008670200086702000867020008EB
:1001500067020008670200086702000867020008DB
:1001600067020008670200086702000867020008CB
:10017000670200086702000867020008000000002C
:1001800067020008670200086702000867020008AB
:10019000670200086702000867020008670200089B
:1001A00067020008670200086702000800F002F812
:1001B00000F03CF80AA090E8000C82448344AAF1C5
:1001C0000107DA4501D100F031F8AFF2090EBAE8C3
:1001D0000F0013F0010F18BFFB1A43F0010318477B
:1001E000CC150000EC150000103A24BF78C878C187
:1001F000FAD8520724BF30C830C144BF04680C602D
:10020000704700000023002400250026103A28BF74
:1002100078C1FBD8520728BF30C148BF0B60704778
:100220001FB501F0B1FA1FBD10B510BD00F0CFF839
:100230001146FFF7F5FF01F059FA00F0EDF803B4AD
:10024000FFF7F2FF03BC00F0F5F800000948804713
:1002500009480047FEE7FEE7FEE7FEE7FEE7FEE7A8
:10026000FEE7FEE7FEE7FEE704480549054A064BC0
:1002700070470000D5140008AD01000848010020B7
:1002800048070020480300204803002053EA020CDE
:1002900000F069802DE9F04B4FF00006002B1FBFE6
:1002A000B3FA83F503FA05F424FA05F65E4012BFAB
:1002B0001643B2FA82F502FA05F4C5F120051EBF15
:1002C00022FA05FC44EA0C04203556EA044C4FEAB5
:1002D000144418BF641C4FF000084FF0000990420E
:1002E00071EB030C39D3002919BFB1FA81F701FA78
:1002F00007F6B0FA80F700FA07F6C7F120071EBF2D
:1003000020FA07FC46EA0C062037B6FBF4FCA7EB04
:100310000507103F07F01F0BCBF120060CFA0BFB73
:100320002CFA06F644BFB3460026202FA4BF5E4633
:100330004FF0000B5BEA060C08BF4FF0010B19EB06
:100340000B09ABFB027C48EB0608C01B06FB02CC8A
:100350000BFB03CC71EB0C01C1E70B460246414697
:100360004846BDE8F08B13B54FF000004FF0000198
:10037000AFF30080BDE81C4070474FF0000200B5AD
:10038000134694469646203922BFA0E80C50A0E8B8
:100390000C50B1F12001BFF4F7AF090728BFA0E866
:1003A0000C5048BF0CC05DF804EB890028BF40F832
:1003B000042B08BF704748BF20F8022B11F0804F74
:1003C00018BF00F8012B704770477047704775469B
:1003D00000F02CF8AE4605006946534620F00700B1
:1003E000854618B020B5FFF73FFFBDE820404FF02D
:1003F00000064FF000074FF000084FF0000B21F00F
:100400000701AC46ACE8C009ACE8C009ACE8C009DB
:10041000ACE8C0098D46704710B50446AFF30080C4
:100420002046BDE81040FFF70ABF000000487047B3
:10043000E800002001491820ABBEFEE726000200BC
:1004400070470000464910B54A6822F440324A60BD
:100450004A6843681A434A6001684A6822F4807215
:100460004A6001684A68036942EA03224A600168F7
:100470004A6822F040724A6001684A6883681A43F9
:100480004A6001688A6822F400628A6001688A68AA
:10049000C3681A438A60816A6FF07062D142016852
:1004A0008A6822F070628A6001688A680CD0836A68
:1004B0001A438A6001688A6822F040528A600168A3
:1004C0008A68C36A1A4301E022F040528A600168D8
:1004D0008A6822F002028A6001688A68037E42EA22
:1004E00043028A6090F82010002901684A680FD002
:1004F00042F400624A6001684A6822F460424A603D
:1005000001684A68174C436A04EB43331A4301E01D
:1005100022F400624A600168CA6A22F47002CA6268
:100520000168CA6A838B104C04EB03531A43CA62F6
:1005300001688A6822F400728A6001688A6890F80B
:10054000303042EA43228A6001688A6822F480627D
:100550008A6001688A68406942EA8020886010BD2C
:100560000023014000E0FFFF0000F0FFFEE77047BE
:1005700078B50024009490F83C20012A19D001227B
:1005800080F83C200A6807230568092A13D9EE6819
:100590000A3A02EB420293409E43EE600B788A686F
:1005A0000A3B03EB43039A400368DD682A43DA60A1
:1005B00010E0022078BD2E6902EB420293409E4378
:1005C0002E610B788A6803EB43039A4003681D6928
:1005D0002A431A614A681F23072A13D205686E6BE3
:1005E000521E02EB820293409E436E630A8893B2CE
:1005F0000A79521E02EB820293400268556B2B432C
:10060000536327E005680D2A12D22E6BD21F02EB2E
:10061000820293409E432E630B790A88DB1F92B2BD
:1006200003EB83039A4003681D6B2A431A6311E0AE
:10063000EE6A0D3A02EB820293409E43EE620B7922
:100640000A880D3B92B203EB83039A400368DD6A8C
:100650002A43DA621B4B0568194A9D420AD10D688C
:10066000122D07D1556825F400055560556845F4ED
:100670008005556005689D421DD1134D0B68AB4246
:1006800001D0112B17D1536823F4800353605368B2
:1006900043F4000353600968A9420CD10B490C4A8A
:1006A0000968B1FBF2F101EB8101490000E0491E4C
:1006B00000910029FBD180F83C40002078BD00006B
:1006C0000023014000200140120000100C00002017
:1006D00040420F0070B504004FF0000503D0206CBD
:1006E000002610B107E0012070BD204600F01CF884
:1006F000666484F83C60206CC00610D4206C20F442
:10070000885040F0020020642046FFF79BFE66649C
:10071000206C20F0020040F00100206400E0012580
:1007200084F83C60284670BD10B586B0044614219C
:100730006846FFF722FE1149206888421CD1104804
:100740000021026842F480720260006800F4807048
:1007500005900B481438026842F0040202600068F9
:1007600000F004000590202000900320CDE9010155
:100770006946044800F008F806B010BD00200140AA
:1007800044380240000802402DE9F84FDFF8F8A194
:100790000022012403254FF00F090AF1040BAAF1EE
:1007A000040E00BF0B6804FA02F63340B34270D166
:1007B0000F7907F00307012F01D0022F16D18768A8
:1007C0004FEA420805FA08FC27EA0C07D1F80CC0EA
:1007D0000CFA08FC4CEA070CC0F808C04768B7439D
:1007E0000E79C6F3001696403E4346600E79F643F6
:1007F000B6070AD0C7684FEA420C05FA0CF6B743B1
:100800008E6806FA0CF63E43C6600E7906F00306C3
:10081000022E10D1D60800EB8608D8F820605707C2
:100820004FEAD76C09FA0CF7BE430F6907FA0CF7C9
:100830003743C8F8207006684FEA420C05FA0CF7F7
:10084000BE430F7907F0030707FA0CF73743076039
:100850004E6816F4403F1CD04C4E376847F4804732
:100860003760366822F0030706F480460096484E4B
:1008700007EB060CDCF8086897073F0F09FA07F842
:1008800026EA0806DFF80C81404503D14FF0000846
:1008900041E072E0DFF80081404502D14FF00108ED
:1008A00039E0DFF8F880404502D14FF0020832E02D
:1008B000DFF8EC80404502D14FF003082BE0DFF871
:1008C000E480404502D14FF0040824E0DFF8D880EE
:1008D000404502D14FF005081DE0DFF8D0804045CB
:1008E00002D14FF0060816E0DFF8C480404502D17F
:1008F0004FF007080FE0DFF8BC80404502D14FF011
:10090000080808E0DFF8B080404502D14FF0090840
:1009100001E04FF00A0808FA07F848EA0608CCF8A0
:100920000888DAF800605746D1F804C09E435FEAB1
:10093000CC2C00D51E433E60DBF800605F46D1F84A
:1009400004C09E435FEA8C2C00D51E433E60DEF857
:1009500000607746D1F804C09E435FEA8C3C00D526
:100960001E433E60084F083F3E68D1F804C09E43D6
:100970005FEACC3C00D51E433E60521C102AFFF4B7
:1009800011AFBDE8F88F0000083C01404438024038
:100990000030014000000240000402400008024014
:1009A000000C0240001002400014024000180240F7
:1009B000001C024000200240002402400AB1816174
:1009C00070470904FBE70000014880687047000099
:1009D000000000200248816802781144816070475D
:1009E000000000200B4810B5016841F4007101605F
:1009F000016841F480610160016841F48071016027
:100A0000032000F061F80F2000F006F800F024F851
:100A1000002010BD003C024070B50D4D04464FF45F
:100A20007A712878B1FBF0F00A490968B1FBF0F05F
:100A300000F036FB48B9102C07D200222146501E88
:100A400000F022F800206C6070BD012070BD000035
:100A5000000000200C0000200A4808B5016841F49D
:100A600080410160006800F4804000900548001F4C
:100A7000016841F080510160006800F080500090F2
:100A800008BD000044380240F0B40E4B1B680C4611
:100A9000C3F30223C3F10705042D00D90425191D52
:100AA000072901D2002300E0DB1E012606FA05F12A
:100AB000491E214099409E40761E16403143F0BCAD
:100AC00000F003BE0CED00E0064900F007020868E4
:100AD0004FF6FF03184040EA0220034A1043086023
:100AE000704700000CED00E00000FA052DE9F84326
:100AF0001748016841F0805101600068154F00F00F
:100B00008050012600903E64FFF75EFF05464FF4DB
:100B10007A78114C05E000BFFFF756FF401B4045B7
:100B20000DD86068C003F7D57E64FFF74DFF05461A
:100B3000464607E0FFF748FF401BB04202D90320BA
:100B4000BDE8F88360688003F4D50020F8E7000072
:100B50004038024000000E42007000402DE9F0478E
:100B60000E46050065D0DFF81481D8F80000F7B212
:100B700000F00F00B04207D288F80070D8F80000EB
:100B800000F00F00B04254D128683D4C810712D5C7
:100B9000400703D5206840F4E05020602878000723
:100BA00003D5206840F4604020602068A96820F0E8
:100BB000F000084320602878C0072DD030496868CD
:100BC0000839012812D0022813D0032811D009684F
:100BD000890700292DDA216821F0030101432160F2
:100BE000FFF7F2FE814641F2883A0EE00968890378
:100BF000EFE709688901ECE7FFF7E6FEA0EB0901E2
:100C0000514502D90320BDE8F0872068696800F0EB
:100C10000C00B0EB810FEFD1D8F80010404601F086
:100C20000F01B14207D90770006800F00F00B04211
:100C300001D00120E7E72878400705D52068E9685A
:100C400020F4E050084320602878000706D520688B
:100C5000296920F4604040EAC100206000F038F8C3
:100C60002168084AC1F30311515CC8400649086075
:100C700006480068FFF7D0FE0020C4E7003C0240B1
:100C800008380240921700080C00002004000020E1
:100C90000448054900680968044AC1F38221515C8F
:100CA000C84070470C00002008380240A217000816
:100CB0000448054900680968044AC1F34231515C9F
:100CC000C84070470C00002008380240A2170008F6
:100CD000154810B5006810F00C02144813D01449E0
:100CE000042A0FD0082A0ED10F4C241F2268236833
:100CF00002F03F025B0207D52068C0F38810A0FB1A
:100D0000010106E0084610BD2168C1F38811A1FB6E
:100D100000010023FFF7BAFA2168C1F30141491C21
:100D20004900B0FBF1F010BD083802400024F40087
:100D300040787D012DE9F84F04006ED02078DFF86F
:100D40004C93C007A9F104054AD009F104000168D9
:100D5000C1F38101012908D00068C0F38100022895
:100D60000AD1D9F80000400206D52868800337D59B
:100D700060680028E1D033E06068B0F5803F10D0B3
:100D8000B0F5A02F286810D020F4803028602868A3
:100D900020F4802028606068A8B1FFF715FE0646A1
:100DA0000DE0286840F48030F4E740F480202860AB
:100DB000F7E700BFFFF708FE801B642873D8286898
:100DC0008003F7D50CE0FFF7FFFD064605E000BF06
:100DD000FFF7FAFD801B6428F0D828688003F7D459
:100DE0002078DFF8AC8280074FF0000A3ED5A74894
:100DF000001D016811F00C0F08D00068C0F38100DD
:100E000002280BD1D9F80000400207D428688007D7
:100E100016D5E068012800D112E033E1E068B8B1EE
:100E20000120C8F80000FFF7CFFD064605E000BF2F
:100E3000FFF7CAFD801B0228C0D828688007F7D5B5
:100E40002868216920F0F80040EAC10028600DE020
:100E5000C8F800A0FFF7B8FD064604E0FFF7B4FDB0
:100E6000801B02281FD828688007F7D42078000745
:100E700022D5864F87486169703771B101210160C1
:100E8000FFF7A2FD064604E0FFF79EFD801B022847
:100E900009D838688007F7D50EE0C0F800A0FFF742
:100EA00093FD064605E082E0FFF78EFD801B0228D9
:100EB0007DD838688007F7D42078400768D5DFF8F8
:100EC000CCB100270BF13C0BDBF80000C0000BD4C9
:100ED000DBF8001041F08051CBF80010DBF8000087
:100EE000012700F0805000906B4E3068C00510D490
:100EF000306840F480703060FFF766FD009005E0D8
:100F0000FFF762FD0099401A022850D83068C005EA
:100F1000F6D55E4EA0686C3601280FD005283068E3
:100F200010D020F001003060306820F00400306004
:100F3000A068B8B1FFF748FD00900FE0306840F0BE
:100F40000100F4E740F004003060F7E7FFF73CFDF4
:100F50000099411A41F28830814266D83068800792
:100F6000F4D50EE0FFF730FD009007E0FFF72CFD11
:100F70000099411A41F28830814256D83068800782
:100F8000F4D42FB1DBF8001021F08051CBF8001021
:100F9000A069C8B33D49091D0968C1F3810102294F
:100FA0004AD00228504607D0C8F8600000E03CE074
:100FB000FFF70AFD04463BE04746C8F86000FFF72C
:100FC00003FD064605E000BFFFF7FEFC801B02287C
:100FD0002BD828688001F7D4D4E907010843A16A17
:100FE0002E4A490802EB0141626A41EA8211084334
:100FF00094F82C1040EA0161C9F80010012038660D
:10100000FFF7E2FC044606E03EE000BFFFF7DCFC31
:10101000001B022809D828688001F7D534E000BFFA
:10102000FFF7D2FC001B022802D90320BDE8F88F8D
:1010300028688001F4D427E00128F7D0D9F800000F
:10104000E26900F4800191421CD1226A00F03F0164
:10105000914217D147F6C071626A0140B1EB821F1D
:1010600010D1A26A4FF0FF3300F4403103EB52027B
:10107000B1EB024F06D194F82C1000F07060B0EB89
:10108000016F01D00120D1E70020CFE704380240F2
:1010900000004742800E4742007000400000FFFF02
:1010A00010B5401EB0F1807F01D3012010BD4FF07C
:1010B000E02460610F21601700F007FB0020A061B1
:1010C00007202061002010BD10B5040003D094F863
:1010D0003D0010B107E0012010BD002084F83C0065
:1010E000204600F01FF8022084F83D00211D2068F2
:1010F00000F0F8F9012084F8460084F83E0084F8F6
:101100003F0084F8400084F8410084F8420084F8ED
:10111000430084F8440084F8450084F83D00002032
:1011200010BD000008B500680649884208D106488D
:10113000016841F080010160006800F080000090CB
:1011400008BD0000001C00404038024070B504009B
:1011500004D094F84100002510B106E0012070BDD4
:1011600084F84050204600F023F8242084F8410001
:101170002068C16821F40051C160204600F01EFAC9
:101180002068016921F4904101612068416921F0E2
:101190002A0141612068C16841F40051C160656461
:1011A000202084F8410084F842006563002070BD6F
:1011B00010B586B0044614216846FFF7DEF81349DF
:1011C0002068884220D112480021026842F0804203
:1011D0000260006800F0804005900D4810380268F9
:1011E00042F020020260006800F020000590C0205C
:1011F00000900220CDE90101032003900820049013
:1012000069460448FFF7C0FA06B010BD00780040F8
:101210004038024000140240FEE700007FB5002481
:1012200015480094019402941249039401604FF40C
:101230008031C0E901140461047680F820400F4930
:10124000C0E90A140125C561C46080F830404561D9
:10125000FFF740FA08B172B6FEE70F20CDE90005AE
:10126000694602940448FFF783F9002801D072B65A
:10127000FEE77FBD00200140100000200100000FAC
:101280002DE9F04F87B014216846FFF776F86048E3
:101290000024016841F010010160016801F01001B3
:1012A0000591016841F020010160016801F0200111
:1012B0000591016841F080010160016801F0800141
:1012C0000591016841F001010160016801F001012F
:1012D0000591016841F004010160016801F0040119
:1012E0000591016841F002010160016801F002010D
:1012F0000591016841F0400101600068DFF8149138
:1013000000F040000590002204214846FFF756FBFC
:10131000DFF804A14FF4E066002231465046FFF7A3
:101320004DFB41F28F07002239463C48FFF746FB50
:10133000002210213A48FFF741FB41F21A0800222F
:1013400041463848FFF73AFBDFF8DCB00022802145
:101350005846FFF733FB042000900125CDE90154E6
:10136000694648460394FFF70FFA202000904FF497
:101370008810CDE9010469464846FFF705FA009652
:10138000CDE90154694650460394FFF7FDF90097F3
:10139000CDE90154694621480394FFF7F5F910207F
:1013A0000090CDE9015469461D480394FFF7ECF91C
:1013B000CDF80080CDE9015469461A480394FFF73F
:1013C000E3F94AF22040CDE9000469461548029449
:1013D000FFF7DAF980200090CDE9015469465846BC
:1013E0000394FFF7D1F9E803CDE9000469460B48FF
:1013F0000294FFF7C9F94FF4A050CDE90004694603
:1014000007480294FFF7C0F907B0BDE8F08F00006D
:101410003038024000100240001402400000024038
:10142000000802400004024000180240FEE7FEE708
:1014300070477047FFF7CEBA70B592B0302168465A
:10144000FEF79BFF14210CA8FEF797FF1F4800250D
:10145000016841F080510160006800F080501190F7
:101460001B48016841F4404101600068022400F417
:101470004040119001200090000401908001CDE9CE
:1014800006400F260896D820CDE9090404200B90C9
:101490006846FFF74FFC08B172B6FEE7FFF726FB80
:1014A00008B172B6FEE74FF4A050CDE90E504FF4EC
:1014B0008050CDE90C64109005210CA8FFF74EFB7D
:1014C000002801D072B6FEE712B070BD403802406D
:1014D000007000400248016841F4700101607047EB
:1014E00088ED00E0F0B50268294C2A4D2A4E2B4FBA
:1014F0002B4B4FF0804CA04209D0604507D0A8424A
:1015000005D0B04203D0B84201D0984204D122F0B5
:10151000700E4A6842EA0E02A0421BD0604519D004
:10152000A84217D0B04215D0B84213D0984211D07B
:101530001C4DA8420ED01C4DA8420BD01B4DA842FA
:1015400008D01B4DA84205D01A4DA84202D01A4D12
:10155000A84203D122F44075CA682A434D6922F09B
:1015600080022A4302608A68C2620A688262A042DC
:1015700001D0984201D109690163012141610169EA
:10158000C90703D0016921F001010161F0BD00002C
:10159000000001400004004000080040000C004032
:1015A0000004014000400140004401400048014067
:1015B00000180040001C00400020004070B50446A8
:1015C00000680169E26821F4405111430161216919
:1015D000A068E26908436169114308432168CA6849
:1015E00049F20C639A430243CA6020684169A269C8
:1015F00021F440711143416131492068884202D091
:101600003049884202D1FFF753FB01E0FFF740FB6E
:10161000E2690023192164253226B2F5004F626881
:1016200028D0A0FB0101930F9200FEF72FFE014688
:10163000B0FBF5F06FF01802504301EB800006EBB1
:101640000010B0FBF5F000F0F002B1FBF5F002EB9A
:101650000012B1FBF5F06FF01803584301EB800066
:1016600006EB0010B0FBF5F000F00F00216810440D
:10167000886070BDA0FB010192185B41FEF706FE79
:101680000146B0FBF5F00201B1FBF5F06FF0180375
:10169000584301EB800006EBC000B0FBF5F000F012
:1016A000F80002EB4002B1FBF5F0584301EB80007B
:1016B00006EBC000B0FBF5F000F00700D6E7000035
:1016C0000010014000140140FEE70907090E002840
:1016D00004DB00F1E02080F80014704700F00F00F8
:1016E00000F1E02080F8141D70470000FFF77AF940
:1016F000FFF7A2FEFFF7C4FDFFF790FD1D481C4950
:10170000002401604FF4E131C0E901140C21C460F0
:10171000C0E904418461C461FFF718FD08B172B6E5
:10172000FEE7144814494838C0E9001441F2931107
:10173000C0E9024104618461FFF7C6FC08B172B6DA
:10174000FEE74FF480540D4D0D4EDFF83880271121
:10175000012221462846FFF731F901228021304637
:10176000FFF72CF9012239464046FFF727F9EFE74A
:1017700000780040A0000020001C00400000024053
:1017800000180240001402404FF04070E1EE100AD1
:10179000704700000000000000000102030406077B
:1017A000080900000000010203040000CC17000833
:1017B0000000002010000000E8010008DC1700080D
:1017C000100000203807000004020008010000009B
:0C17D00010000000000000000024F400E5
:04000005080001AD41
:00000001FF
