:020000040800F2
:10000000704700200D030008F31A0008D1170008FC
:10001000F11A0008A1060008B51E00080000000043
:100020000000000000000000000000004D02000879
:100030002D07000800000000A9020008951B000819
:1000400027030008270300082703000827030008E8
:1000500027030008270300082703000827030008D8
:1000600027030008270300082703000827030008C8
:1000700027030008270300082703000827030008B8
:1000800027030008270300082703000827030008A8
:100090002703000827030008270300082F0700088C
:1000A0002703000827030008270300082703000888
:1000B00027030008591C000827030008270300082D
:1000C0002703000827030008270300082703000868
:1000D0002703000827030008270300082703000858
:1000E0002703000827030008270300082703000848
:1000F0002703000827030008270300082703000838
:100100002703000827030008270300082703000827
:100110002703000827030008270300082703000817
:100120002703000827030008270300082703000807
:1001300027030008270300082703000827030008F7
:1001400027030008270300082703000827030008E7
:1001500027030008270300082703000827030008D7
:1001600027030008270300082703000827030008C7
:1001700027030008270300082703000800000000E9
:1001800027030008270300082703000827030008A7
:100190002703000827030008270300082703000897
:1001A00027030008270300082703000800F002F8CF
:1001B00000F03CF80AA090E8000C82448344AAF1C5
:1001C0000107DA4501D100F031F8AFF2090EBAE8C3
:1001D0000F0013F0010F18BFFB1A43F0010318477B
:1001E000E42B0000042C0000103A24BF78C878C12A
:1001F000FAD8520724BF30C830C144BF04680C602D
:10020000704700000023002400250026103A28BF74
:1002100078C1FBD8520728BF30C148BF0B60704778
:100220001FB502F03BFD1FBD10B510BD00F061F918
:100230001146FFF7F5FF01F003FF00F07FF903B46B
:10024000FFF7F2FF03BC00F087F900002C4B1968A0
:100250000868B0E8F04F80F30988BFF36F8F4FF064
:10026000000080F311887047000000000848006813
:10027000006880F308884FF0000080F3148862B6AD
:1002800061B6BFF34F8FBFF36F8F00DF00BF00BFBA
:1002900008ED00E0DFF80C00016841F47001016036
:1002A000704700BF88ED00E0EFF30980BFF36F8F68
:1002B000134B1A681EF0100F08BF20ED108A20E9BA
:1002C000F04F106009B44FF0500080F31188BFF375
:1002D0004F8FBFF36F8F02F0F5FA4FF0000080F3FD
:1002E000118809BC19680868B0E8F04F1EF0100FBB
:1002F00008BFB0EC108A80F30988BFF36F8F704796
:1003000040000020EFF30580704700000948804757
:1003100009480047FEE7FEE7FEE7FEE7FEE7FEE7E7
:10032000FEE7FEE7FEE7FEE704480549054A064BFF
:1003300070470000491C0008AD0100087041002012
:1003400070470020704300207043002053EA020CE5
:1003500000F069802DE9F04B4FF00006002B1FBF25
:10036000B3FA83F503FA05F424FA05F65E4012BFEA
:100370001643B2FA82F502FA05F4C5F120051EBF54
:1003800022FA05FC44EA0C04203556EA044C4FEAF4
:10039000144418BF641C4FF000084FF0000990424D
:1003A00071EB030C39D3002919BFB1FA81F701FAB7
:1003B00007F6B0FA80F700FA07F6C7F120071EBF6C
:1003C00020FA07FC46EA0C062037B6FBF4FCA7EB44
:1003D0000507103F07F01F0BCBF120060CFA0BFBB3
:1003E0002CFA06F644BFB3460026202FA4BF5E4673
:1003F0004FF0000B5BEA060C08BF4FF0010B19EB46
:100400000B09ABFB027C48EB0608C01B06FB02CCC9
:100410000BFB03CC71EB0C01C1E70B4602464146D6
:100420004846BDE8F08B13B54FF000004FF00001D7
:10043000AFF30080BDE81C40704710B5203AC0F013
:100440000B80B1E81850203AA0E81850B1E81850D5
:10045000A0E81850BFF4F5AF5FEA027C24BFB1E812
:100460001850A0E8185044BF18C918C0BDE8104083
:100470005FEA827C24BF51F8043B40F8043B08BF8C
:100480007047D20728BF31F8023B48BF11F8012B53
:1004900028BF20F8023B48BF00F8012B70474FF0FF
:1004A000000200B5134694469646203922BFA0E8C4
:1004B0000C50A0E80C50B1F12001BFF4F7AF0907D0
:1004C00028BFA0E80C5048BF0CC05DF804EB8900C1
:1004D00028BF40F8042B08BF704748BF20F8022B04
:1004E00011F0804F18BF00F8012B7047704770471C
:1004F0007047754600F02CF8AE4605006946534635
:1005000020F00700854618B020B5FFF70DFFBDE8C5
:1005100020404FF000064FF000074FF000084FF06A
:10052000000B21F00701AC46ACE8C009ACE8C009FB
:10053000ACE8C009ACE8C0098D46704710B5044668
:10054000AFF300802046BDE81040FFF778BE000002
:10055000004870470C41002001491820ABBEFEE75F
:100560002600020070470000464910B54A6822F490
:1005700040324A604A6843681A434A6001684A68E0
:1005800022F480724A6001684A68036942EA0322E1
:100590004A6001684A6822F040724A6001684A680D
:1005A00083681A434A6001688A6822F400628A609C
:1005B00001688A68C3681A438A60816A6FF0706252
:1005C000D14201688A6822F070628A6001688A6894
:1005D0000CD0836A1A438A6001688A6822F040520C
:1005E0008A6001688A68C36A1A4301E022F04052B7
:1005F0008A6001688A6822F002028A6001688A685B
:10060000037E42EA43028A6090F8201000290168C4
:100610004A680FD042F400624A6001684A6822F4D6
:1006200060424A6001684A68174C436A04EB4333EE
:100630001A4301E022F400624A600168CA6A22F4A7
:100640007002CA620168CA6A838B104C04EB0353C0
:100650001A43CA6201688A6822F400728A600168DB
:100660008A6890F8303042EA43228A6001688A68DA
:1006700022F480628A6001688A68406942EA8020C8
:10068000886010BD0023014000E0FFFF0000F0FF84
:1006900002F010F902F0A0FA012002F0AFF8F7E73B
:1006A000FEE7000070B51D4C01221103204600F04A
:1006B00092FA012280211A4800F08DFA01221102DB
:1006C000184800F088FA00228021204600F083FAC2
:1006D000154D00221021284600F07DFA002201214C
:1006E000284600F078FA00220221284600F073FA2A
:1006F00000220221204600F06EFA0022012120464D
:1007000000F069FA00220821204600F064FA204631
:10071000BDE870400022042100F05DBA00000240F4
:1007200000180240001402400004024070472020DC
:1007300000F026B978B50024009490F83C20012AF6
:1007400019D0012280F83C200A6807230568092A8D
:1007500013D9EE680A3A02EB420293409E43EE60E0
:100760000B788A680A3B03EB43039A400368DD6811
:100770002A43DA6010E0022078BD2E6902EB4202C3
:1007800093409E432E610B788A6803EB43039A40A3
:1007900003681D692A431A614A681F23072A13D276
:1007A00005686E6B521E02EB820293409E436E639D
:1007B0000A8893B20A79521E02EB820293400268C1
:1007C000556B2B43536327E005680D2A12D22E6B1D
:1007D000D21F02EB820293409E432E630B790A885C
:1007E000DB1F92B203EB83039A4003681D6B2A431D
:1007F0001A6311E0EE6A0D3A02EB820293409E43C7
:10080000EE620B790A880D3B92B203EB83039A40A8
:100810000368DD6A2A43DA621B4B0568194A9D4268
:100820000AD10D68122D07D1556825F400055560D1
:10083000556845F48005556005689D421DD1134DEE
:100840000B68AB4201D0112B17D1536823F48003FE
:100850005360536843F4000353600968A9420CD104
:100860000B490C4A0968B1FBF2F101EB8101490027
:1008700000E0491E00910029FBD180F83C40002097
:1008800078BD00000023014000200140120000104C
:100890003C00002040420F0070B504004FF00005FE
:1008A00003D0206C002610B107E0012070BD204667
:1008B00000F01CF8666484F83C60206CC00610D41C
:1008C000206C20F4885040F0020020642046FFF79E
:1008D0004BFE6664206C20F0020040F001002064B2
:1008E00000E0012584F83C60284670BD10B586B054
:1008F000044614216846FFF7D2FD1149206888425A
:100900001CD110480021026842F480720260006825
:1009100000F4807005900B481438026842F004021D
:100920000260006800F00400059020200090032081
:10093000CDE901016946044800F02EF806B010BD6B
:1009400000200140443802400008024070B50446CF
:1009500000F046F90546601C02D0044800780444C3
:1009600000F03EF9401BA042FAD370BD30000020D9
:10097000202802D1014900200870704700000020A3
:10098000044910B50A68024202D00860FFF7F0FF80
:1009900010BD0000143C01402DE9F84FDFF8F8A12C
:1009A0000022012403254FF00F090AF1040BAAF1DC
:1009B000040E00BF0B6804FA02F63340B34270D154
:1009C0000F7907F00307012F01D0022F16D1876896
:1009D0004FEA420805FA08FC27EA0C07D1F80CC0D8
:1009E0000CFA08FC4CEA070CC0F808C04768B7438B
:1009F0000E79C6F3001696403E4346600E79F643E4
:100A0000B6070AD0C7684FEA420C05FA0CF6B7439E
:100A10008E6806FA0CF63E43C6600E7906F00306B1
:100A2000022E10D1D60800EB8608D8F820605707B0
:100A30004FEAD76C09FA0CF7BE430F6907FA0CF7B7
:100A40003743C8F8207006684FEA420C05FA0CF7E5
:100A5000BE430F7907F0030707FA0CF73743076027
:100A60004E6816F4403F1CD04C4E376847F4804720
:100A70003760366822F0030706F480460096484E39
:100A800007EB060CDCF8086897073F0F09FA07F830
:100A900026EA0806DFF80C81404503D14FF0000834
:100AA00041E072E0DFF80081404502D14FF00108DB
:100AB00039E0DFF8F880404502D14FF0020832E01B
:100AC000DFF8EC80404502D14FF003082BE0DFF85F
:100AD000E480404502D14FF0040824E0DFF8D880DC
:100AE000404502D14FF005081DE0DFF8D0804045B9
:100AF00002D14FF0060816E0DFF8C480404502D16D
:100B00004FF007080FE0DFF8BC80404502D14FF0FE
:100B1000080808E0DFF8B080404502D14FF009082E
:100B200001E04FF00A0808FA07F848EA0608CCF88E
:100B30000888DAF800605746D1F804C09E435FEA9F
:100B4000CC2C00D51E433E60DBF800605F46D1F838
:100B500004C09E435FEA8C2C00D51E433E60DEF845
:100B600000607746D1F804C09E435FEA8C3C00D514
:100B70001E433E60084F083F3E68D1F804C09E43C4
:100B80005FEACC3C00D51E433E60521C102AFFF4A5
:100B900011AFBDE8F88F0000083C01404438024026
:100BA0000030014000000240000402400008024002
:100BB000000C0240001002400014024000180240E5
:100BC000001C02400020024000240240006908404E
:100BD00000D0012070470AB1816170470904FBE72A
:100BE000014880687047000030000020024881689A
:100BF0000278114481607047300000200B4810B526
:100C0000016841F400710160016841F48061016094
:100C1000016841F480710160032000F073F80F2037
:100C200000F006F800F024F8002010BD003C02405F
:100C300070B50D4D04464FF47A712878B1FBF0F091
:100C40000A490968B1FBF0F000F048FB48B9102CE4
:100C500007D200222146501E00F034F800206C60BC
:100C600070BD012070BD0000300000203C0000205D
:100C70000C4882B0016841F480410160006800F4D2
:100C8000804000900748001F016841F080510160DA
:100C90000068002200F0805000900F21901E02B0EA
:100CA00000F010B844380240002809DB00F01F02B1
:100CB000012191404009800000F1E020C0F80011BE
:100CC00070470000F0B40E4B1B680C46C3F30223C0
:100CD000C3F10705042D00D90425191D072901D2E8
:100CE000002300E0DB1E012606FA05F1491E214023
:100CF00099409E40761E16403143F0BC01F0E3B8A7
:100D00000CED00E0064900F0070208684FF6FF030B
:100D1000184040EA0220034A104308607047000070
:100D20000CED00E00000FA052DE9F84317480168D2
:100D300041F0805101600068154F00F0805001269D
:100D400000903E64FFF74CFF05464FF47A78114C53
:100D500005E000BFFFF744FF401B40450DD8606829
:100D6000C003F7D57E64FFF73BFF0546464607E024
:100D7000FFF736FF401BB04202D90320BDE8F883DD
:100D800060688003F4D50020F8E700004038024096
:100D900000000E42007000402DE9F0470E460500AD
:100DA00065D0DFF81481D8F80000F7B200F00F002A
:100DB000B04207D288F80070D8F8000000F00F00A9
:100DC000B04254D128683D4C810712D5400703D565
:100DD000206840F4E05020602878000703D52068A0
:100DE00040F4604020602068A96820F0F0000843CB
:100DF00020602878C0072DD030496868083901285C
:100E000012D0022813D0032811D0096889070029BD
:100E10002DDA216821F0030101432160FFF7E0FE94
:100E2000814641F2883A0EE009688903EFE70968D4
:100E30008901ECE7FFF7D4FEA0EB0901514502D987
:100E40000320BDE8F0872068696800F00C00B0EB73
:100E5000810FEFD1D8F80010404601F00F01B142E8
:100E600007D90770006800F00F00B04201D00120E0
:100E7000E7E72878400705D52068E96820F4E050C6
:100E8000084320602878000706D52068296920F4E7
:100E9000604040EAC100206000F038F82168084A4C
:100EA000C1F30311515CC840064908600648006858
:100EB000FFF7BEFE0020C4E7003C024008380240B5
:100EC000502D00083C000020340000200448054953
:100ED00000680968044AC1F38221515CC840704728
:100EE0003C00002008380240602D000804480549F5
:100EF00000680968044AC1F34231515CC840704738
:100F00003C00002008380240602D0008154810B54C
:100F1000006810F00C02144813D01449042A0FD0B2
:100F2000082A0ED10F4C241F2268236802F03F02CA
:100F30005B0207D52068C0F38810A0FB010106E022
:100F4000084610BD2168C1F38811A1FB00010023F0
:100F5000FFF7FCF92168C1F30141491C4900B0FBCE
:100F6000F1F010BD083802400024F40040787D0103
:100F70002DE9F84F04006ED02078DFF84C93C007BD
:100F8000A9F104054AD009F104000168C1F3810107
:100F9000012908D00068C0F3810002280AD1D9F8DD
:100FA0000000400206D52868800337D56068002815
:100FB000E1D033E06068B0F5803F10D0B0F5A02FED
:100FC000286810D020F480302860286820F4802021
:100FD00028606068A8B1FFF703FE06460DE02868A8
:100FE00040F48030F4E740F480202860F7E700BF49
:100FF000FFF7F6FD801B642873D828688003F7D5B7
:101000000CE0FFF7EDFD064605E000BFFFF7E8FD49
:10101000801B6428F0D828688003F7D42078DFF894
:10102000AC8280074FF0000A3ED5A748001D01683A
:1010300011F00C0F08D00068C0F3810002280BD11A
:10104000D9F80000400207D42868800716D5E06868
:10105000012800D112E033E1E068B8B10120C8F8FE
:101060000000FFF7BDFD064605E000BFFFF7B8FD35
:10107000801B0228C0D828688007F7D52868216916
:1010800020F0F80040EAC10028600DE0C8F800A098
:10109000FFF7A6FD064604E0FFF7A2FD801B02282D
:1010A0001FD828688007F7D42078000722D5864FFC
:1010B00087486169703771B101210160FFF790FDC8
:1010C000064604E0FFF78CFD801B022809D838682B
:1010D0008007F7D50EE0C0F800A0FFF781FD0646B7
:1010E00005E082E0FFF77CFD801B02287DD8386890
:1010F0008007F7D42078400768D5DFF8CCB1002707
:101100000BF13C0BDBF80000C0000BD4DBF8001047
:1011100041F08051CBF80010DBF80000012700F00F
:10112000805000906B4E3068C00510D4306840F499
:1011300080703060FFF754FD009005E0FFF750FD30
:101140000099401A022850D83068C005F6D55E4E86
:10115000A0686C3601280FD00528306810D020F028
:1011600001003060306820F004003060A068B8B141
:10117000FFF736FD00900FE0306840F00100F4E723
:1011800040F004003060F7E7FFF72AFD0099411AAC
:1011900041F28830814266D830688007F4D50EE08D
:1011A000FFF71EFD009007E0FFF71AFD0099411AB6
:1011B00041F28830814256D830688007F4D42FB18C
:1011C000DBF8001021F08051CBF80010A069C8B303
:1011D0003D49091D0968C1F3810102294AD002284D
:1011E000504607D0C8F8600000E03CE0FFF7F8FC8C
:1011F00004463BE04746C8F86000FFF7F1FC0646AE
:1012000005E000BFFFF7ECFC801B02282BD8286804
:101210008001F7D4D4E907010843A16A2E4A49089E
:1012200002EB0141626A41EA8211084394F82C10F2
:1012300040EA0161C9F8001001203866FFF7D0FCD0
:10124000044606E03EE000BFFFF7CAFC001B022890
:1012500009D828688001F7D534E000BFFFF7C0FC4B
:10126000001B022802D90320BDE8F88F28688001FE
:10127000F4D427E00128F7D0D9F80000E26900F49F
:10128000800191421CD1226A00F03F01914217D1A6
:1012900047F6C071626A0140B1EB821F10D1A26AA9
:1012A0004FF0FF3300F4403103EB5202B1EB024F39
:1012B00006D194F82C1000F07060B0EB016F01D0F3
:1012C0000120D1E70020CFE7043802400000474268
:1012D000800E4742007000400000FFFF10B5401E26
:1012E000B0F1807F01D3012010BD4FF0E024606198
:1012F0000F21601700F0E7FD0020A06107202061AA
:10130000002010BD7047704770B590F83C20012A4E
:1013100032D0012480F83C40022280F83D2003684E
:101320005A689D6822F070060A6832435A60134B6F
:1013300002689A4214D0B2F1804F11D0104B9A42F9
:101340000ED0104B9A420BD00F4B9A4208D00F4B45
:101350009A4205D00E4B9A4202D00E4B9A4204D1CB
:10136000496825F080031943916080F83D400021D1
:1013700080F83C10084670BD022070BD000001409E
:101380000004004000080040000C00400004014040
:10139000004001400018004010B5040003D094F84C
:1013A0003D0010B107E0012010BD002084F83C0092
:1013B000204600F01FF8022084F83D00211D20681F
:1013C00000F050FC012084F8460084F83E0084F8C8
:1013D0003F0084F8400084F8410084F8420084F81B
:1013E000430084F8440084F8450084F83D00002060
:1013F00010BD000008B5114A01681148914211D191
:10140000016841F0020101600068002200F0020062
:10141000009005211D20FFF755FCBDE808401D2068
:10142000FFF742BC074A914207D1016841F08001B1
:101430000160006800F08000009008BD00040040DA
:1014400040380240001C004090F83D10012901D0B6
:1014500001207047022180F83D100168CA6842F0FF
:101460000102CA6000681149884214D0B0F1804F6F
:1014700011D00F4988420ED00E4988420BD00E4938
:10148000884208D00D49884205D00D49884202D0D3
:101490000C49884204D1816801F00701062903D074
:1014A000016841F001010160002070470000014027
:1014B0000004004000080040000C0040000401400F
:1014C000004001400018004070B5044690F83C0010
:1014D0000025012817D0012684F83C60022084F8FA
:1014E0003D002068826822F0770222F47F42826009
:1014F0000868502838D00DDC20284FD005DC90B388
:10150000102811D14AE0022070BD302846D0402872
:101510000AD13BE060282FD070280DD0B0F5805F55
:1015200003D0B0F5005F12D0012584F83D600020A3
:1015300084F83C00284670BDCB68D1E901212068C1
:1015400000F0FCFB2068816841F0770109E0CB687E
:10155000D1E90121206800F0F1FB2068816841F4A5
:1015600080418160E1E719E0CA684968206800F0BD
:10157000F7FB5021206806E0CA684968206800F03F
:1015800000FC6021206800F0E3FBCEE7CA684968F0
:10159000206800F0E5FB40212068F4E7226801465E
:1015A0001046F0E770472DE9F04104460068C66830
:1015B00005694FF00007A90713D5B10711D5F91E2A
:1015C000016101202077206880698007204602D0D1
:1015D000FFF7E8FF04E000F07EF8204600F07CF81A
:1015E0002777680716D5700714D521686FF00400B7
:1015F0000861022020772068806910F4407F20462F
:1016000002D0FFF7CFFF04E000F065F8204600F0BD
:1016100063F82777280715D5300713D521686FF0B1
:1016200008000861042020772068C06980072046F0
:1016300002D0FFF7B7FF04E000F04DF8204600F0BD
:101640004BF82777E80616D5F00614D521686FF019
:1016500010000861082020772068C06910F4407FDE
:10166000204602D0FFF79EFF04E000F034F8204649
:1016700000F032F82777E80708D0F00706D0216895
:101680006FF001000861204600F028F8280608D510
:10169000300606D521686FF0800008612046FFF70C
:1016A00031FE680608D5700606D521686FF0400047
:1016B0000861204600F024F8A8060AD5B00608D52F
:1016C00021686FF0200008612046BDE8F041FFF777
:1016D0001ABEBDE8F08170477047000000680649F7
:1016E000884207D10548D0E90012491C42F10002A6
:1016F000C0E9001270470000000400401000002004
:10170000704770B5040004D094F84100002510B172
:1017100006E0012070BD84F84050204600F024F817
:10172000242084F841002068C16821F40051C16080
:10173000204600F039FB2068016921F490410161E5
:101740002068416921F02A0141612068C16841F4A3
:101750000051C1606564202084F8410084F8420093
:101760006563002070BD000010B586B004461421EA
:101770006846FEF794FE13492068884220D112483B
:101780000021026842F080420260006800F0804060
:1017900005900D481038026842F02002026000688F
:1017A00000F020000590C02000900220CDE901014A
:1017B000032003900820049069460448FFF7ECF8E2
:1017C00006B010BD007800404038024000140240CE
:1017D000FEE7000010B5064C012211462046FFF737
:1017E000FAF920460022BDE810400221FFF7F3B9C4
:1017F0000004024010B5064C012202212046FFF7EA
:10180000EAF920460022BDE810400121FFF7E3B9C4
:101810000004024010B5012280210548FFF7DBF9E2
:101820000022BDE8104010210248FFF7D4B90000A3
:10183000000002400004024010B5012210210548BA
:10184000FFF7C9F90022BDE8104080210248FFF7E8
:10185000C2B9000000040240000002407FB500242D
:1018600015480094019402941249039401604FF4C6
:101870008031C0E901140461047680F820400F49EA
:10188000C0E90A140125C561C46080F83040456193
:10189000FFF702F808B172B6FEE70F20CDE90005A8
:1018A000694602940448FEF745FF002801D072B64D
:1018B000FEE77FBD00200140A80000200100000FCE
:1018C0002DE9F04F87B014216846FEF7E8FD68481F
:1018D0000024016841F010010160016801F010016D
:1018E0000591016841F020010160016801F02001CB
:1018F0000591016841F080010160016801F08001FB
:101900000591016841F001010160016801F00101E8
:101910000591016841F004010160016801F00401D2
:101920000591016841F002010160016801F00201C6
:101930000591016841F0400101600068DFF83491D1
:1019400000F040000590002204214846FFF743F9CB
:10195000DFF824A14FF4E066002231465046FFF73D
:101960003AF941F28F07002239464448FFF733F92C
:10197000002210214248FFF72EF941F21B080022F5
:1019800041464048FFF727F9DFF8FCB000228021EC
:101990005846FFF720F9042000900125CDE90154B5
:1019A000694648460394FEF7F7FF202000904FF465
:1019B0004410CDE9010569464846FEF7EDFF009663
:1019C000CDE90154694650460394FEF7E5FF0097C0
:1019D000CDE90154694629480394FEF7DDFF102044
:1019E0000090CDE90154694625480394FEF7D4FFE1
:1019F000CDF80080CDE90154694622480394FEF7F2
:101A0000CBFFA802CDE900040220029069461D48E0
:101A1000FEF7C2FF4AF22000CDE9000469461948EA
:101A20000294FEF7B9FF80200090CDE90154694689
:101A300058460394FEF7B0FFE803CDE90004694679
:101A40000E480294FEF7A8FF4FF4A050CDE9000421
:101A500069460B480294FEF79FFF002205211720DC
:101A6000FFF730F91720FFF71FF907B0BDE8F08F37
:101A700030380240001002400014024000000240D2
:101A800000080240000402400018024010B586B071
:101A9000002416480094019402940394049412497B
:101AA000059401602C21C0E901140921C0E9031447
:101AB0008461FFF771FC08B172B6FEE74FF4805005
:101AC000009069460948FFF7FFFC08B172B6FEE7CF
:101AD000049404A905480594FFF716FC002801D0DA
:101AE00072B6FEE706B010BD00040040F000002012
:101AF000FEE7FEE710B5064C012202212046FFF763
:101B00006AF820460022BDE810400121FFF763B8C3
:101B10000000024010B5064C012211462046FFF796
:101B20005AF820460022BDE810400221FFF753B8C2
:101B30000000024010B5064C012208212046FFF7A4
:101B40004AF820460022BDE810400421FFF743B8C0
:101B50000000024010B5064C012204212046FFF788
:101B60003AF820460022BDE810400821FFF733B8BC
:101B700000000240962000F041FE0348FFF764FC9D
:101B8000012000F03BFEFBE7F0000020012000F008
:101B9000DFFAFBE710B5FFF729F800F0A9FF0128ED
:101BA00003D0BDE8104000F035BF10BD70B592B055
:101BB00030216846FEF773FC14210CA8FEF76FFC79
:101BC0001F480025016841F080510160006800F065
:101BD000805011901B48016841F440410160006849
:101BE000022400F440401190012000900004019074
:101BF0008001CDE906400F260896D820CDE90904DA
:101C000004200B906846FFF7B3F908B172B6FEE7FF
:101C1000FFF78AF808B172B6FEE74FF4A050CDE99D
:101C20000E504FF48050CDE90C64109005210CA8A3
:101C3000FFF7B2F8002801D072B6FEE712B070BD0F
:101C400040380240007000400248016841F47001D1
:101C50000160704788ED00E00148FFF7A4BC000078
:101C6000F0000020F0B50268294C2A4D2A4E2B4F77
:101C70002B4B4FF0804CA04209D0604507D0A842C2
:101C800005D0B04203D0B84201D0984204D122F02E
:101C9000700E4A6842EA0E02A0421BD0604519D07D
:101CA000A84217D0B04215D0B84213D0984211D0F4
:101CB0001C4DA8420ED01C4DA8420BD01B4DA84273
:101CC00008D01B4DA84205D01A4DA84202D01A4D8B
:101CD000A84203D122F44075CA682A434D6922F014
:101CE00080022A4302608A68C2620A688262A04255
:101CF00001D0984201D10969016301214161016963
:101D0000C90703D0016921F001010161F0BD0000A4
:101D1000000001400004004000080040000C0040AA
:101D200000040140004001400044014000480140DF
:101D300000180040001C00400020004010B58468DE
:101D400042EA032224F47F440A432243826010BD06
:101D5000826822F070020A4342F0070181607047F6
:101D600010B5036A046A24F001040462846924F053
:101D7000F00444EA021423F00A020A438461026276
:101D800010BD10B5036A046A24F01004046284696B
:101D900023F0A00324F4704444EA023243EA011120
:101DA0008261016210BD000070B5044600680169DF
:101DB000E26821F44051114301612169A068E269A0
:101DC00008436169114308432168CA6849F20C63FA
:101DD0009A430243CA6020684169A26921F44071B4
:101DE0001143416131492068884202D0304988421C
:101DF00002D1FFF77BF801E0FFF768F8E269002302
:101E0000192164253226B2F5004F626828D0A0FB64
:101E10000101930F9200FEF799FA0146B0FBF5F02D
:101E20006FF01802504301EB800006EB0010B0FB8E
:101E3000F5F000F0F002B1FBF5F002EB0012B1FB9F
:101E4000F5F06FF01803584301EB800006EB00102B
:101E5000B0FBF5F000F00F0021681044886070BD01
:101E6000A0FB010192185B41FEF770FA0146B0FB3E
:101E7000F5F00201B1FBF5F06FF01803584301EBE8
:101E8000800006EBC000B0FBF5F000F0F80002EBBC
:101E90004002B1FBF5F0584301EB800006EBC000B7
:101EA000B0FBF5F000F00700D6E70000001001409D
:101EB00000140140FEE700F0FDFC00F08DFE012063
:101EC00000F09CFCF7E70907090E002804DB00F18D
:101ED000E02080F80014704700F00F0000F1E020CF
:101EE00080F8141D704710B5FFF794FCFFF772FCE3
:101EF000FFF720FEBDE81040FFF7FCBD1148417818
:101F0000027801EB4201C2780079891A404201EB64
:101F100040000C4908394860C01C07280FD2DFE890
:101F200000F00C0C0A080604040000F018B800F0D9
:101F300074B8FFF7D8BF00F065B800F005B800F03E
:101F400019B800000800002010B5FFF775FCFFF776
:101F500051FCFFF7EFFDBDE81040FFF7CBBD10B51A
:101F6000FFF758FCFFF736FCFFF7F4FDBDE8104023
:101F7000FFF7D0BD70B5164C002280212046FEF739
:101F80002AFE144D002210212846FEF724FE0022CE
:101F900001212846FEF71FFE002202212846FEF7F7
:101FA0001AFE002208212046FEF715FE0022042119
:101FB0002046FEF710FE002202212046FEF70BFE0F
:101FC0002046BDE8704000220121FEF704BE00005B
:101FD0000000024000040240962000F00FFC084C74
:101FE00000F068FC00F01AFB2078012801D0FFF710
:101FF00085FF00F0F1FD3C2000F000FCF0E7000060
:102000000000002010B5FFF717FCFFF7E3FBFFF718
:1020100091FDBDE81040FFF76DBD10B5FFF7FAFB6D
:10202000FFF7D8FBFFF796FDBDE81040FFF762BD54
:1020300000F040FC00F0D0FD012000F0DFFBF7E7EE
:10204000AAB0FEF7DBFDFFF7B1FDFFF739FCFFF7A4
:1020500005FC38483649002401604FF4E131C0E9FD
:1020600001140C21C460C0E904418461C461FFF71C
:1020700048FB08B172B6FEE72E482F494838C0E940
:10208000001441F29311C0E9024104618461FFF739
:1020900083F908B172B6FEE7FFF7F8FCFEF702FB22
:1020A0001C2226496846FEF7C8F90021684600F060
:1020B0005BF8234C21491C2220601C3107A8FEF745
:1020C000BCF9002107A800F04FF81C4960601C22F1
:1020D00038310EA8FEF7B1F900210EA800F044F83F
:1020E0001649A0601C22543115A8FEF7A6F900215C
:1020F00015A800F039F81149E0601C2270311CA8C5
:10210000FEF79BF900211CA800F02EF80B49206176
:102110001C228C3123A8FEF790F9002123A800F09F
:1021200023F8606100F01BF80120FEF70FFCFBE7CD
:102130000078004080010020001C0040A82C00080E
:102140001800002001460020842900D0C81C7047D8
:1021500010B500B9012000F051FB002010BD10B5F2
:1021600000F072FB002010BD7FB50D4604464169AA
:10217000B0F9080081B1A16971B1FFF7E3FFD4E9BB
:1021800005128DE80700D4E900102B46226900F003
:1021900084FC039004B070BDFFF7D4FF03A9CDE920
:1021A0000001208A2B4682B2D4E9001000F048FCDE
:1021B000012801D00020EDE70398EBE72DE9F0417D
:1021C0001A4C0F460546E6682168002081F8520047
:1021D0002068001D00F04AFA38B9206890F82C10E9
:1021E00001208840216981432161681C07D137B1F2
:1021F0002168BDE8F0410E48091D00F07BBA206857
:102200003544B5424560216805D2A06BBDE8F04178
:10221000091D00F057BA606B091D00F053FAA06A5F
:10222000854200D2A562BDE8F08100004000002098
:10223000F80400202DE9F041054600F067FA2E4C25
:10224000A068401CA06020682C4F10B1606940B3AA
:102250002DE02560A068012829D1002606EB860024
:1022600007EB800000F020FA761C072EF6D32348F7
:102270008C3000F019FA2148A03000F015FA1F4800
:10228000B43000F011FA1D48C83000F00DFA1B48B8
:10229000DC3000F009FA19488C3060631430A06318
:1022A00005E02068E96AC06A884200D82560606A53
:1022B000401C6062E96A0120226988401043206165
:1022C00001EB810007EB8000291D00F013FA00F0FC
:1022D0003DFA606900280CD02068E96AC06A88422B
:1022E00007D207494FF080500860BFF34F8FBFF30C
:1022F0006F8FBDE8F0810000400000201C0400202A
:1023000004ED00E010B5044690F8510058B10128E2
:102310000CD002280FD0502080F31188BFF34F8FCC
:10232000BFF36F8FFEE7206B00F024FA2046BDE874
:10233000104000F01FBA10BD10484FF47051420712
:1023400006D0C01D0D4920F00700411AC1F570519B
:102350000B4A00230144C2E900030839183A21F06E
:10236000070111604B600B600B1AC0E9001393600A
:102370004FF0004053605061704700000C05002092
:1023800094000020144E154CA6F1C8074FF0805859
:10239000DFF84C9012E000BF00F0B8F9F068C568B3
:1023A000281D00F063F9A068401EA0606068401E10
:1023B000606000F0CBF92846FFF7A4FF60680028B2
:1023C000EAD138680128F9D9C9F80080BFF34F8FE6
:1023D000BFF36F8FF2E70000E4040020400000200C
:1023E00004ED00E02DE9F0479A46DDE909848146D5
:1023F0006FF00303206B03EB82021044089E20F071
:102400000707780707D0502080F31188BFF34F8F5C
:10241000BFF36F8FFEE7002561B1002023180A5C2F
:1024200083F834200A5C12B1401C1028F6D384F8DB
:10243000435001E084F83450072E00D30626E662AC
:10244000C4E91165201D00F03AF904F1180000F00C
:1024500036F92461C6F107006462A061E56484F87E
:10246000505084F8525052464946384600F0C0F861
:102470002060B8F1000F01D0C8F80040BDE8F08737
:1024800030B5114900E011460A688242FBD34B681F
:102490005C18844203D14068184448600846436889
:1024A0001C18944209D1084C183C2468A24209D057
:1024B00052681A4442600A6812680260814200D081
:1024C000086030BD0460F9E7940000200648416BC5
:1024D000096829B1416BC968C96849688162704758
:1024E0004FF0FF31FAE70000400000200848406844
:1024F000401C4FF0500080F3118804D0BFF34F8F81
:10250000BFF36F8FFEE7BFF34F8FBFF36F8FFEE711
:102510009C0000202DE9F0410546002700F0CAF993
:10252000324E306808B9FFF707FF706905424ED197
:10253000C5B3083568070ED005F00700C0F10800E4
:102540000544680707D0502080F31188BFF34F8FF0
:10255000BFF36F8FFEE72DB37068854237D82348ED
:10256000183001460C6801E020460C466168A9421B
:1025700002D221680029F7D131688C4227D0076840
:102580002168016060680837411B10290FD9601964
:10259000420708D0502080F31188BFF34F8FBFF35C
:1025A0006F8FFEE713E041606560FFF769FF6168C8
:1025B0007068401A7060B268904200D2B060706972
:1025C00001430020C4E90001F068401CF06000F005
:1025D00003FB780707D0502080F31188BFF34F8F9B
:1025E000BFF36F8FFEE73846BDE8F0817C00002026
:1025F00010B5031F4FF080741C601B1F21F00101F8
:102600001960191F044B0B6014390A60091F6FF021
:10261000020244380A6010BDED24000870B54FF482
:10262000004529460D48FEF7D1FA0D4C0D4E6911B3
:1026300020703046FEF7CAFA6070E9103046FEF7A7
:10264000C5FA094EA070A9103046FEF7BFFAE07037
:1026500029463046FEF7BAFA207170BD00000240EC
:10266000080000200008024000040240D0E90132C6
:1026700001699A60D0E901235A604A68824201D117
:1026800082684A60002202610868401E086008688B
:1026900070470000034B036003F154000860802082
:1026A00010607047C801002000F108014FF0FF32B0
:1026B000C0E90112C1600161002101607047002181
:1026C0000161704730B50B685A1C02D000F1080256
:1026D00002E0026904E02246546825689D42FAD966
:1026E00053684B6099608A60516008610168491CB9
:1026F000016030BD42684A6093688B60936859609E
:10270000916008610168491C01607047502080F3A6
:102710001188BFF34F8FBFF36F8F0A494868401C81
:10272000486001280CD10848006810F0FF0F07D05E
:10273000502080F31188BFF34F8FBFF36F8FFEE7F8
:10274000704700009C00002004ED00E00849486844
:1027500028B1401E486001D180F311887047502095
:1027600080F31188BFF34F8FBFF36F8FFEE7000038
:102770009C00002070B500282AD0164DA0F1080456
:1027800060686969084207D1502080F31188BFF35F
:102790004F8FBFF36F8FFEE722683AB1502080F36E
:1027A0001188BFF34F8FBFF36F8FFEE788436060E0
:1027B00000F080F860686968084468602046FFF7A8
:1027C0005FFE2869401C2861BDE8704000F004BA33
:1027D00070BD00007C0000204FF0E020002101616E
:1027E000816105494FF47A720968B1FBF2F1491E23
:1027F00041610721016170473C00002010B50200D3
:1028000014D00F48006B38B1502080F31188BFF30B
:102810004F8FBFF36F8FFEE700F04CF8002110469A
:10282000FFF7CCFC00F0D8F9002807D105494FF09C
:1028300080500860BFF34F8FBFF36F8F10BD000053
:102840004000002004ED00E010B586B000240394A1
:1028500005AA04A903A80494FFF71CFFDDE90301FE
:102860000094CDE9011000230EA11048059A00F054
:1028700014F90F490028C86211D0502080F3118844
:10288000BFF34F8FBFF36F8F4FF0FF30886201208F
:102890004861CC6006B0BDE8104000F041B806B019
:1028A00010BD000049444C4500000000852300088D
:1028B000400000200248016B491C01637047000082
:1028C000400000201448016B11B10121C161704723
:1028D0000021C1610169B1FA81F1C1F11F0101EB70
:1028E00081020E4951F822306BB101EB820101F1F6
:1028F00008034A6852684A609A4201D152684A60A5
:10290000D16801607047502080F31188BFF34F8F6A
:10291000BFF36F8FFEE70000400000201C04002082
:102920001CB537480168374A914207D1502080F3DF
:102930001188BFF34F8FBFF36F8FFEE700683149F7
:10294000491E884207D1502080F31188BFF34F8F72
:10295000BFF36F8FFEE72C4908780190FF200870C5
:1029600008788DF800009DF800009DF8002000F028
:10297000F000904207D0502080F31188BFF34F8FB2
:10298000BFF36F8FFEE79DF80000204C00F0500071
:1029900020700720A06005E09DF8002052008DF80F
:1029A0000020401E9DF800201206F5D4A0600328E8
:1029B00007D0502080F31188BFF34F8FBFF36F8F84
:1029C000FEE74FF44070A060019808700C4820307A
:1029D000016841F470010160016841F070410160DB
:1029E000FFF7FAFE00206060FDF754FC084801681C
:1029F00041F040410160FDF739FC00201CBD0000A2
:102A000000ED00E071C20F4100E400E09C000020F6
:102A100034EF00E010B5502080F31188BFF34F8FE2
:102A2000BFF36F8F00F072F818B104494FF0805077
:102A30000860002080F3118810BD000004ED00E064
:102A40002DE9FF5F8346DDE90E87994616468A46E3
:102A50009000FFF75FFD05001CD05420FFF75AFDE2
:102A6000040014D00020256384F85100CDE9024011
:102A7000CDE900874B46324651465846FFF7B2FC37
:102A80002046FFF7D7FB012004B0BDE8F09F2846A1
:102A9000FFF770FE4FF0FF30F6E7F0B585B0DDE9E7
:102AA0000B640A9DA6B1DCB1542700972663022669
:102AB00084F85160002604AFCDE90246CDE9005705
:102AC000FFF790FC2046FFF7B5FB049805B0F0BD7A
:102AD000502080F31188BFF34F8FBFF36F8FFEE755
:102AE000502080F31188BFF34F8FBFF36F8FFEE745
:102AF0000548416919B1006B18B1002070470120E9
:102B00007047022070470000400000202DE9F0418E
:102B10002F4C0026206B28B1A069401CA0613046D4
:102B2000BDE8F081E5686D1CE56013D1606B00685D
:102B300038B1502080F31188BFF34F8FBFF36F8FF0
:102B4000FEE7606BA16B6163A063206A401C20629A
:102B5000FFF7BCFCA06ADFF87C80854209D3606B7C
:102B60000068A0B1606BC068C7687868854211D200
:102B7000A0622068C06A00EB800158F8210001289B
:102B800000D90126E0690028C9D00126C7E74FF027
:102B9000FF30EDE7381DFFF769FDB86A18B107F19E
:102BA0001800FFF763FDF96A01202269884010438D
:102BB000206101EB810108EB8100391DFFF79AFDCF
:102BC000F86A2168C96A8842C9D30126C7E70000AC
:102BD000400000201C0400202DE9F0472C4D00246B
:102BE0002746286B38B1FFF791FD286B401E2863FC
:102BF000286B40B146E0502080F31188BFF34F8F1F
:102C0000BFF36F8FFEE7A968224E0120D1B3A6F172
:102C1000B40980463068E8B1F068C46804F118006F
:102C2000FFF724FD201DFFF721FDE06A2A6908FA5D
:102C300000F11143296100EB800109EB8100211DA6
:102C4000FFF758FDE06A2968C96A8842E2D3C5F8EF
:102C50001C80DFE70CB1FFF739FCAC6944B1464694
:102C6000FFF754FF00B1EE61641EF9D10020A861A6
:102C7000E86938B10849012738070860BFF34F8F6A
:102C8000BFF36F8FFFF762FD3846BDE8F0870000A5
:102C900040000020D004002004ED00E04FF0407020
:102CA000E1EE100A70470000B82D00088D1B0008E7
:102CB0000000000000000000800000000000000094
:102CC00000000000682D0008D91F0008FEFF00006A
:102CD0000000000080000000000000000000000074
:102CE000982D0008312000080000000000000000BE
:102CF000800000000000000000000000882D000897
:102D000091060008000000000000000080000000A4
:102D10000000000000000000782D0008751B00086E
:102D2000FEFF000000000000800000000000000026
:102D300000000000A82D0008B71E000802000000D7
:102D40000000000080000000000000000000000003
:102D5000000000000000000001020304060708094B
:102D60000000000001020304436861737369735437
:102D700061736B48616E6400535230345461736BFD
:102D800048616E646C6500004144435461736B4854
:102D9000616E646C650000004C45445461736B487F
:102DA000616E646C65000000576946695461736B1D
:102DB00048616E646C65000064656661756C74548E
:102DC00061736B00E42D000800000020A8000000E3
:102DD000E80100088C2E0008A8000020C84600006A
:102DE00004020008010000000000000000000000D4
:102DF00000000000000000000000000000000000D3
:102E000000000000000000000000000000000000C2
:102E100000000000010000001000000000000000A1
:102E20000024F4000000000000000000000000008A
:102E30000000000000000000000000000000000092
:102E40000000000000000000000000000000000082
:102E50000000000000000000000000000000000072
:102E60000000000000000000000000000000000062
:102E70000000000000000000000000000000000052
:0C2E800000000000AAAAAAAA000000009E
:04000005080001AD41
:00000001FF
